{
	"contracts/belajar/mapping.sol": {
		"Mapping": {
			"abi": [
				{
					"inputs": [
						{
							"internalType": "string",
							"name": "_nama",
							"type": "string"
						},
						{
							"internalType": "uint256",
							"name": "_saldo",
							"type": "uint256"
						}
					],
					"name": "add",
					"outputs": [],
					"stateMutability": "nonpayable",
					"type": "function"
				},
				{
					"inputs": [
						{
							"internalType": "string",
							"name": "_nama",
							"type": "string"
						},
						{
							"internalType": "string",
							"name": "_mainan",
							"type": "string"
						}
					],
					"name": "addMainan",
					"outputs": [],
					"stateMutability": "nonpayable",
					"type": "function"
				},
				{
					"inputs": [
						{
							"internalType": "string",
							"name": "",
							"type": "string"
						},
						{
							"internalType": "uint256",
							"name": "",
							"type": "uint256"
						}
					],
					"name": "koleksiMainan",
					"outputs": [
						{
							"internalType": "string",
							"name": "",
							"type": "string"
						}
					],
					"stateMutability": "view",
					"type": "function"
				},
				{
					"inputs": [
						{
							"internalType": "string",
							"name": "",
							"type": "string"
						}
					],
					"name": "saldo",
					"outputs": [
						{
							"internalType": "uint256",
							"name": "",
							"type": "uint256"
						}
					],
					"stateMutability": "view",
					"type": "function"
				},
				{
					"inputs": [
						{
							"internalType": "string",
							"name": "_nama",
							"type": "string"
						}
					],
					"name": "showMainans",
					"outputs": [
						{
							"internalType": "string[]",
							"name": "",
							"type": "string[]"
						}
					],
					"stateMutability": "view",
					"type": "function"
				}
			],
			"devdoc": {
				"kind": "dev",
				"methods": {},
				"version": 1
			},
			"evm": {
				"assembly": "    /* \"contracts/belajar/mapping.sol\":60:548  contract Mapping {... */\n  mstore(0x40, 0x80)\n  callvalue\n  dup1\n  iszero\n  tag_1\n  jumpi\n  revert(0x00, 0x00)\ntag_1:\n  pop\n  dataSize(sub_0)\n  dup1\n  dataOffset(sub_0)\n  0x00\n  codecopy\n  0x00\n  return\nstop\n\nsub_0: assembly {\n        /* \"contracts/belajar/mapping.sol\":60:548  contract Mapping {... */\n      mstore(0x40, 0x80)\n      callvalue\n      dup1\n      iszero\n      tag_1\n      jumpi\n      revert(0x00, 0x00)\n    tag_1:\n      pop\n      jumpi(tag_2, lt(calldatasize, 0x04))\n      shr(0xe0, calldataload(0x00))\n      dup1\n      0x8fa1b5\n      eq\n      tag_3\n      jumpi\n      dup1\n      0x1d0040b1\n      eq\n      tag_4\n      jumpi\n      dup1\n      0x2433b9dc\n      eq\n      tag_5\n      jumpi\n      dup1\n      0x36555b85\n      eq\n      tag_6\n      jumpi\n      dup1\n      0x3e1daba1\n      eq\n      tag_7\n      jumpi\n    tag_2:\n      revert(0x00, 0x00)\n        /* \"contracts/belajar/mapping.sol\":232:280  mapping(string => string[]) public koleksiMainan */\n    tag_3:\n      tag_8\n      0x04\n      dup1\n      calldatasize\n      sub\n      dup2\n      add\n      swap1\n      tag_9\n      swap2\n      swap1\n      tag_10\n      jump\t// in\n    tag_9:\n      tag_11\n      jump\t// in\n    tag_8:\n      mload(0x40)\n      tag_12\n      swap2\n      swap1\n      tag_13\n      jump\t// in\n    tag_12:\n      mload(0x40)\n      dup1\n      swap2\n      sub\n      swap1\n      return\n        /* \"contracts/belajar/mapping.sol\":84:120  mapping(string => uint) public saldo */\n    tag_4:\n      tag_14\n      0x04\n      dup1\n      calldatasize\n      sub\n      dup2\n      add\n      swap1\n      tag_15\n      swap2\n      swap1\n      tag_16\n      jump\t// in\n    tag_15:\n      tag_17\n      jump\t// in\n    tag_14:\n      mload(0x40)\n      tag_18\n      swap2\n      swap1\n      tag_19\n      jump\t// in\n    tag_18:\n      mload(0x40)\n      dup1\n      swap2\n      sub\n      swap1\n      return\n        /* \"contracts/belajar/mapping.sol\":420:545  function showMainans(string memory _nama) public view returns(string[] memory) {... */\n    tag_5:\n      tag_20\n      0x04\n      dup1\n      calldatasize\n      sub\n      dup2\n      add\n      swap1\n      tag_21\n      swap2\n      swap1\n      tag_16\n      jump\t// in\n    tag_21:\n      tag_22\n      jump\t// in\n    tag_20:\n      mload(0x40)\n      tag_23\n      swap2\n      swap1\n      tag_24\n      jump\t// in\n    tag_23:\n      mload(0x40)\n      dup1\n      swap2\n      sub\n      swap1\n      return\n        /* \"contracts/belajar/mapping.sol\":129:224  function add(string memory _nama, uint _saldo ) public {... */\n    tag_6:\n      tag_25\n      0x04\n      dup1\n      calldatasize\n      sub\n      dup2\n      add\n      swap1\n      tag_26\n      swap2\n      swap1\n      tag_10\n      jump\t// in\n    tag_26:\n      tag_27\n      jump\t// in\n    tag_25:\n      stop\n        /* \"contracts/belajar/mapping.sol\":289:412  function addMainan(string memory _nama, string memory _mainan) public {... */\n    tag_7:\n      tag_28\n      0x04\n      dup1\n      calldatasize\n      sub\n      dup2\n      add\n      swap1\n      tag_29\n      swap2\n      swap1\n      tag_30\n      jump\t// in\n    tag_29:\n      tag_31\n      jump\t// in\n    tag_28:\n      stop\n        /* \"contracts/belajar/mapping.sol\":232:280  mapping(string => string[]) public koleksiMainan */\n    tag_11:\n      0x01\n      dup3\n      dup1\n      mload\n      0x20\n      dup2\n      add\n      dup3\n      add\n      dup1\n      mload\n      dup5\n      dup3\n      mstore\n      0x20\n      dup4\n      add\n      0x20\n      dup6\n      add\n      keccak256\n      dup2\n      dup4\n      mstore\n      dup1\n      swap6\n      pop\n      pop\n      pop\n      pop\n      pop\n      pop\n      dup2\n      dup2\n      sload\n      dup2\n      lt\n      tag_32\n      jumpi\n      0x00\n      dup1\n      revert\n    tag_32:\n      swap1\n      0x00\n      mstore\n      keccak256(0x00, 0x20)\n      add\n      0x00\n      swap2\n      pop\n      swap2\n      pop\n      pop\n      dup1\n      sload\n      tag_34\n      swap1\n      tag_35\n      jump\t// in\n    tag_34:\n      dup1\n      0x1f\n      add\n      0x20\n      dup1\n      swap2\n      div\n      mul\n      0x20\n      add\n      mload(0x40)\n      swap1\n      dup2\n      add\n      0x40\n      mstore\n      dup1\n      swap3\n      swap2\n      swap1\n      dup2\n      dup2\n      mstore\n      0x20\n      add\n      dup3\n      dup1\n      sload\n      tag_36\n      swap1\n      tag_35\n      jump\t// in\n    tag_36:\n      dup1\n      iszero\n      tag_37\n      jumpi\n      dup1\n      0x1f\n      lt\n      tag_38\n      jumpi\n      0x0100\n      dup1\n      dup4\n      sload\n      div\n      mul\n      dup4\n      mstore\n      swap2\n      0x20\n      add\n      swap2\n      jump(tag_37)\n    tag_38:\n      dup3\n      add\n      swap2\n      swap1\n      0x00\n      mstore\n      keccak256(0x00, 0x20)\n      swap1\n    tag_39:\n      dup2\n      sload\n      dup2\n      mstore\n      swap1\n      0x01\n      add\n      swap1\n      0x20\n      add\n      dup1\n      dup4\n      gt\n      tag_39\n      jumpi\n      dup3\n      swap1\n      sub\n      0x1f\n      and\n      dup3\n      add\n      swap2\n    tag_37:\n      pop\n      pop\n      pop\n      pop\n      pop\n      dup2\n      jump\t// out\n        /* \"contracts/belajar/mapping.sol\":84:120  mapping(string => uint) public saldo */\n    tag_17:\n      0x00\n      dup2\n      dup1\n      mload\n      0x20\n      dup2\n      add\n      dup3\n      add\n      dup1\n      mload\n      dup5\n      dup3\n      mstore\n      0x20\n      dup4\n      add\n      0x20\n      dup6\n      add\n      keccak256\n      dup2\n      dup4\n      mstore\n      dup1\n      swap6\n      pop\n      pop\n      pop\n      pop\n      pop\n      pop\n      0x00\n      swap2\n      pop\n      swap1\n      pop\n      sload\n      dup2\n      jump\t// out\n        /* \"contracts/belajar/mapping.sol\":420:545  function showMainans(string memory _nama) public view returns(string[] memory) {... */\n    tag_22:\n        /* \"contracts/belajar/mapping.sol\":482:497  string[] memory */\n      0x60\n        /* \"contracts/belajar/mapping.sol\":517:530  koleksiMainan */\n      0x01\n        /* \"contracts/belajar/mapping.sol\":531:536  _nama */\n      dup3\n        /* \"contracts/belajar/mapping.sol\":517:537  koleksiMainan[_nama] */\n      mload(0x40)\n      tag_41\n      swap2\n      swap1\n      tag_42\n      jump\t// in\n    tag_41:\n      swap1\n      dup2\n      mstore\n      0x20\n      add\n      mload(0x40)\n      dup1\n      swap2\n      sub\n      swap1\n      keccak256\n        /* \"contracts/belajar/mapping.sol\":510:537  return koleksiMainan[_nama] */\n      dup1\n      sload\n      dup1\n      0x20\n      mul\n      0x20\n      add\n      mload(0x40)\n      swap1\n      dup2\n      add\n      0x40\n      mstore\n      dup1\n      swap3\n      swap2\n      swap1\n      dup2\n      dup2\n      mstore\n      0x20\n      add\n      0x00\n      swap1\n    tag_43:\n      dup3\n      dup3\n      lt\n      iszero\n      tag_44\n      jumpi\n      dup4\n      dup3\n      swap1\n      0x00\n      mstore\n      keccak256(0x00, 0x20)\n      add\n      dup1\n      sload\n      tag_46\n      swap1\n      tag_35\n      jump\t// in\n    tag_46:\n      dup1\n      0x1f\n      add\n      0x20\n      dup1\n      swap2\n      div\n      mul\n      0x20\n      add\n      mload(0x40)\n      swap1\n      dup2\n      add\n      0x40\n      mstore\n      dup1\n      swap3\n      swap2\n      swap1\n      dup2\n      dup2\n      mstore\n      0x20\n      add\n      dup3\n      dup1\n      sload\n      tag_47\n      swap1\n      tag_35\n      jump\t// in\n    tag_47:\n      dup1\n      iszero\n      tag_48\n      jumpi\n      dup1\n      0x1f\n      lt\n      tag_49\n      jumpi\n      0x0100\n      dup1\n      dup4\n      sload\n      div\n      mul\n      dup4\n      mstore\n      swap2\n      0x20\n      add\n      swap2\n      jump(tag_48)\n    tag_49:\n      dup3\n      add\n      swap2\n      swap1\n      0x00\n      mstore\n      keccak256(0x00, 0x20)\n      swap1\n    tag_50:\n      dup2\n      sload\n      dup2\n      mstore\n      swap1\n      0x01\n      add\n      swap1\n      0x20\n      add\n      dup1\n      dup4\n      gt\n      tag_50\n      jumpi\n      dup3\n      swap1\n      sub\n      0x1f\n      and\n      dup3\n      add\n      swap2\n    tag_48:\n      pop\n      pop\n      pop\n      pop\n      pop\n      dup2\n      mstore\n      0x20\n      add\n      swap1\n      0x01\n      add\n      swap1\n      jump(tag_43)\n    tag_44:\n      pop\n      pop\n      pop\n      pop\n      swap1\n      pop\n        /* \"contracts/belajar/mapping.sol\":420:545  function showMainans(string memory _nama) public view returns(string[] memory) {... */\n      swap2\n      swap1\n      pop\n      jump\t// out\n        /* \"contracts/belajar/mapping.sol\":129:224  function add(string memory _nama, uint _saldo ) public {... */\n    tag_27:\n        /* \"contracts/belajar/mapping.sol\":210:216  _saldo */\n      dup1\n        /* \"contracts/belajar/mapping.sol\":195:200  saldo */\n      0x00\n        /* \"contracts/belajar/mapping.sol\":201:206  _nama */\n      dup4\n        /* \"contracts/belajar/mapping.sol\":195:207  saldo[_nama] */\n      mload(0x40)\n      tag_52\n      swap2\n      swap1\n      tag_42\n      jump\t// in\n    tag_52:\n      swap1\n      dup2\n      mstore\n      0x20\n      add\n      mload(0x40)\n      dup1\n      swap2\n      sub\n      swap1\n      keccak256\n        /* \"contracts/belajar/mapping.sol\":195:216  saldo[_nama] = _saldo */\n      dup2\n      swap1\n      sstore\n      pop\n        /* \"contracts/belajar/mapping.sol\":129:224  function add(string memory _nama, uint _saldo ) public {... */\n      pop\n      pop\n      jump\t// out\n        /* \"contracts/belajar/mapping.sol\":289:412  function addMainan(string memory _nama, string memory _mainan) public {... */\n    tag_31:\n        /* \"contracts/belajar/mapping.sol\":370:383  koleksiMainan */\n      0x01\n        /* \"contracts/belajar/mapping.sol\":384:389  _nama */\n      dup3\n        /* \"contracts/belajar/mapping.sol\":370:390  koleksiMainan[_nama] */\n      mload(0x40)\n      tag_54\n      swap2\n      swap1\n      tag_42\n      jump\t// in\n    tag_54:\n      swap1\n      dup2\n      mstore\n      0x20\n      add\n      mload(0x40)\n      dup1\n      swap2\n      sub\n      swap1\n      keccak256\n        /* \"contracts/belajar/mapping.sol\":396:403  _mainan */\n      dup2\n        /* \"contracts/belajar/mapping.sol\":370:404  koleksiMainan[_nama].push(_mainan) */\n      swap1\n      dup1\n      0x01\n      dup2\n      sload\n      add\n      dup1\n      dup3\n      sstore\n      dup1\n      swap2\n      pop\n      pop\n      0x01\n      swap1\n      sub\n      swap1\n      0x00\n      mstore\n      keccak256(0x00, 0x20)\n      add\n      0x00\n      swap1\n      swap2\n      swap1\n      swap2\n      swap1\n      swap2\n      pop\n      swap1\n      dup2\n      tag_56\n      swap2\n      swap1\n      tag_57\n      jump\t// in\n    tag_56:\n      pop\n        /* \"contracts/belajar/mapping.sol\":289:412  function addMainan(string memory _nama, string memory _mainan) public {... */\n      pop\n      pop\n      jump\t// out\n        /* \"#utility.yul\":7:82   */\n    tag_58:\n        /* \"#utility.yul\":40:46   */\n      0x00\n        /* \"#utility.yul\":73:75   */\n      0x40\n        /* \"#utility.yul\":67:76   */\n      mload\n        /* \"#utility.yul\":57:76   */\n      swap1\n      pop\n        /* \"#utility.yul\":7:82   */\n      swap1\n      jump\t// out\n        /* \"#utility.yul\":88:205   */\n    tag_59:\n        /* \"#utility.yul\":197:198   */\n      0x00\n        /* \"#utility.yul\":194:195   */\n      0x00\n        /* \"#utility.yul\":187:199   */\n      revert\n        /* \"#utility.yul\":211:328   */\n    tag_60:\n        /* \"#utility.yul\":320:321   */\n      0x00\n        /* \"#utility.yul\":317:318   */\n      0x00\n        /* \"#utility.yul\":310:322   */\n      revert\n        /* \"#utility.yul\":334:451   */\n    tag_61:\n        /* \"#utility.yul\":443:444   */\n      0x00\n        /* \"#utility.yul\":440:441   */\n      0x00\n        /* \"#utility.yul\":433:445   */\n      revert\n        /* \"#utility.yul\":457:574   */\n    tag_62:\n        /* \"#utility.yul\":566:567   */\n      0x00\n        /* \"#utility.yul\":563:564   */\n      0x00\n        /* \"#utility.yul\":556:568   */\n      revert\n        /* \"#utility.yul\":580:682   */\n    tag_63:\n        /* \"#utility.yul\":621:627   */\n      0x00\n        /* \"#utility.yul\":672:674   */\n      0x1f\n        /* \"#utility.yul\":668:675   */\n      not\n        /* \"#utility.yul\":663:665   */\n      0x1f\n        /* \"#utility.yul\":656:661   */\n      dup4\n        /* \"#utility.yul\":652:666   */\n      add\n        /* \"#utility.yul\":648:676   */\n      and\n        /* \"#utility.yul\":638:676   */\n      swap1\n      pop\n        /* \"#utility.yul\":580:682   */\n      swap2\n      swap1\n      pop\n      jump\t// out\n        /* \"#utility.yul\":688:868   */\n    tag_64:\n        /* \"#utility.yul\":736:813   */\n      0x4e487b7100000000000000000000000000000000000000000000000000000000\n        /* \"#utility.yul\":733:734   */\n      0x00\n        /* \"#utility.yul\":726:814   */\n      mstore\n        /* \"#utility.yul\":833:837   */\n      0x41\n        /* \"#utility.yul\":830:831   */\n      0x04\n        /* \"#utility.yul\":823:838   */\n      mstore\n        /* \"#utility.yul\":857:861   */\n      0x24\n        /* \"#utility.yul\":854:855   */\n      0x00\n        /* \"#utility.yul\":847:862   */\n      revert\n        /* \"#utility.yul\":874:1155   */\n    tag_65:\n        /* \"#utility.yul\":957:984   */\n      tag_114\n        /* \"#utility.yul\":979:983   */\n      dup3\n        /* \"#utility.yul\":957:984   */\n      tag_63\n      jump\t// in\n    tag_114:\n        /* \"#utility.yul\":949:955   */\n      dup2\n        /* \"#utility.yul\":945:985   */\n      add\n        /* \"#utility.yul\":1087:1093   */\n      dup2\n        /* \"#utility.yul\":1075:1085   */\n      dup2\n        /* \"#utility.yul\":1072:1094   */\n      lt\n        /* \"#utility.yul\":1051:1069   */\n      0xffffffffffffffff\n        /* \"#utility.yul\":1039:1049   */\n      dup3\n        /* \"#utility.yul\":1036:1070   */\n      gt\n        /* \"#utility.yul\":1033:1095   */\n      or\n        /* \"#utility.yul\":1030:1118   */\n      iszero\n      tag_115\n      jumpi\n        /* \"#utility.yul\":1098:1116   */\n      tag_116\n      tag_64\n      jump\t// in\n    tag_116:\n        /* \"#utility.yul\":1030:1118   */\n    tag_115:\n        /* \"#utility.yul\":1138:1148   */\n      dup1\n        /* \"#utility.yul\":1134:1136   */\n      0x40\n        /* \"#utility.yul\":1127:1149   */\n      mstore\n        /* \"#utility.yul\":917:1155   */\n      pop\n        /* \"#utility.yul\":874:1155   */\n      pop\n      pop\n      jump\t// out\n        /* \"#utility.yul\":1161:1290   */\n    tag_66:\n        /* \"#utility.yul\":1195:1201   */\n      0x00\n        /* \"#utility.yul\":1222:1242   */\n      tag_118\n      tag_58\n      jump\t// in\n    tag_118:\n        /* \"#utility.yul\":1212:1242   */\n      swap1\n      pop\n        /* \"#utility.yul\":1251:1284   */\n      tag_119\n        /* \"#utility.yul\":1279:1283   */\n      dup3\n        /* \"#utility.yul\":1271:1277   */\n      dup3\n        /* \"#utility.yul\":1251:1284   */\n      tag_65\n      jump\t// in\n    tag_119:\n        /* \"#utility.yul\":1161:1290   */\n      swap2\n      swap1\n      pop\n      jump\t// out\n        /* \"#utility.yul\":1296:1604   */\n    tag_67:\n        /* \"#utility.yul\":1358:1362   */\n      0x00\n        /* \"#utility.yul\":1448:1466   */\n      0xffffffffffffffff\n        /* \"#utility.yul\":1440:1446   */\n      dup3\n        /* \"#utility.yul\":1437:1467   */\n      gt\n        /* \"#utility.yul\":1434:1490   */\n      iszero\n      tag_121\n      jumpi\n        /* \"#utility.yul\":1470:1488   */\n      tag_122\n      tag_64\n      jump\t// in\n    tag_122:\n        /* \"#utility.yul\":1434:1490   */\n    tag_121:\n        /* \"#utility.yul\":1508:1537   */\n      tag_123\n        /* \"#utility.yul\":1530:1536   */\n      dup3\n        /* \"#utility.yul\":1508:1537   */\n      tag_63\n      jump\t// in\n    tag_123:\n        /* \"#utility.yul\":1500:1537   */\n      swap1\n      pop\n        /* \"#utility.yul\":1592:1596   */\n      0x20\n        /* \"#utility.yul\":1586:1590   */\n      dup2\n        /* \"#utility.yul\":1582:1597   */\n      add\n        /* \"#utility.yul\":1574:1597   */\n      swap1\n      pop\n        /* \"#utility.yul\":1296:1604   */\n      swap2\n      swap1\n      pop\n      jump\t// out\n        /* \"#utility.yul\":1610:1758   */\n    tag_68:\n        /* \"#utility.yul\":1708:1714   */\n      dup3\n        /* \"#utility.yul\":1703:1706   */\n      dup2\n        /* \"#utility.yul\":1698:1701   */\n      dup4\n        /* \"#utility.yul\":1685:1715   */\n      calldatacopy\n        /* \"#utility.yul\":1749:1750   */\n      0x00\n        /* \"#utility.yul\":1740:1746   */\n      dup4\n        /* \"#utility.yul\":1735:1738   */\n      dup4\n        /* \"#utility.yul\":1731:1747   */\n      add\n        /* \"#utility.yul\":1724:1751   */\n      mstore\n        /* \"#utility.yul\":1610:1758   */\n      pop\n      pop\n      pop\n      jump\t// out\n        /* \"#utility.yul\":1764:2189   */\n    tag_69:\n        /* \"#utility.yul\":1842:1847   */\n      0x00\n        /* \"#utility.yul\":1867:1933   */\n      tag_126\n        /* \"#utility.yul\":1883:1932   */\n      tag_127\n        /* \"#utility.yul\":1925:1931   */\n      dup5\n        /* \"#utility.yul\":1883:1932   */\n      tag_67\n      jump\t// in\n    tag_127:\n        /* \"#utility.yul\":1867:1933   */\n      tag_66\n      jump\t// in\n    tag_126:\n        /* \"#utility.yul\":1858:1933   */\n      swap1\n      pop\n        /* \"#utility.yul\":1956:1962   */\n      dup3\n        /* \"#utility.yul\":1949:1954   */\n      dup2\n        /* \"#utility.yul\":1942:1963   */\n      mstore\n        /* \"#utility.yul\":1994:1998   */\n      0x20\n        /* \"#utility.yul\":1987:1992   */\n      dup2\n        /* \"#utility.yul\":1983:1999   */\n      add\n        /* \"#utility.yul\":2032:2035   */\n      dup5\n        /* \"#utility.yul\":2023:2029   */\n      dup5\n        /* \"#utility.yul\":2018:2021   */\n      dup5\n        /* \"#utility.yul\":2014:2030   */\n      add\n        /* \"#utility.yul\":2011:2036   */\n      gt\n        /* \"#utility.yul\":2008:2120   */\n      iszero\n      tag_128\n      jumpi\n        /* \"#utility.yul\":2039:2118   */\n      tag_129\n      tag_62\n      jump\t// in\n    tag_129:\n        /* \"#utility.yul\":2008:2120   */\n    tag_128:\n        /* \"#utility.yul\":2129:2183   */\n      tag_130\n        /* \"#utility.yul\":2176:2182   */\n      dup5\n        /* \"#utility.yul\":2171:2174   */\n      dup3\n        /* \"#utility.yul\":2166:2169   */\n      dup6\n        /* \"#utility.yul\":2129:2183   */\n      tag_68\n      jump\t// in\n    tag_130:\n        /* \"#utility.yul\":1848:2189   */\n      pop\n        /* \"#utility.yul\":1764:2189   */\n      swap4\n      swap3\n      pop\n      pop\n      pop\n      jump\t// out\n        /* \"#utility.yul\":2209:2549   */\n    tag_70:\n        /* \"#utility.yul\":2265:2270   */\n      0x00\n        /* \"#utility.yul\":2314:2317   */\n      dup3\n        /* \"#utility.yul\":2307:2311   */\n      0x1f\n        /* \"#utility.yul\":2299:2305   */\n      dup4\n        /* \"#utility.yul\":2295:2312   */\n      add\n        /* \"#utility.yul\":2291:2318   */\n      slt\n        /* \"#utility.yul\":2281:2403   */\n      tag_132\n      jumpi\n        /* \"#utility.yul\":2322:2401   */\n      tag_133\n      tag_61\n      jump\t// in\n    tag_133:\n        /* \"#utility.yul\":2281:2403   */\n    tag_132:\n        /* \"#utility.yul\":2439:2445   */\n      dup2\n        /* \"#utility.yul\":2426:2446   */\n      calldataload\n        /* \"#utility.yul\":2464:2543   */\n      tag_134\n        /* \"#utility.yul\":2539:2542   */\n      dup5\n        /* \"#utility.yul\":2531:2537   */\n      dup3\n        /* \"#utility.yul\":2524:2528   */\n      0x20\n        /* \"#utility.yul\":2516:2522   */\n      dup7\n        /* \"#utility.yul\":2512:2529   */\n      add\n        /* \"#utility.yul\":2464:2543   */\n      tag_69\n      jump\t// in\n    tag_134:\n        /* \"#utility.yul\":2455:2543   */\n      swap2\n      pop\n        /* \"#utility.yul\":2271:2549   */\n      pop\n        /* \"#utility.yul\":2209:2549   */\n      swap3\n      swap2\n      pop\n      pop\n      jump\t// out\n        /* \"#utility.yul\":2555:2632   */\n    tag_71:\n        /* \"#utility.yul\":2592:2599   */\n      0x00\n        /* \"#utility.yul\":2621:2626   */\n      dup2\n        /* \"#utility.yul\":2610:2626   */\n      swap1\n      pop\n        /* \"#utility.yul\":2555:2632   */\n      swap2\n      swap1\n      pop\n      jump\t// out\n        /* \"#utility.yul\":2638:2760   */\n    tag_72:\n        /* \"#utility.yul\":2711:2735   */\n      tag_137\n        /* \"#utility.yul\":2729:2734   */\n      dup2\n        /* \"#utility.yul\":2711:2735   */\n      tag_71\n      jump\t// in\n    tag_137:\n        /* \"#utility.yul\":2704:2709   */\n      dup2\n        /* \"#utility.yul\":2701:2736   */\n      eq\n        /* \"#utility.yul\":2691:2754   */\n      tag_138\n      jumpi\n        /* \"#utility.yul\":2750:2751   */\n      0x00\n        /* \"#utility.yul\":2747:2748   */\n      0x00\n        /* \"#utility.yul\":2740:2752   */\n      revert\n        /* \"#utility.yul\":2691:2754   */\n    tag_138:\n        /* \"#utility.yul\":2638:2760   */\n      pop\n      jump\t// out\n        /* \"#utility.yul\":2766:2905   */\n    tag_73:\n        /* \"#utility.yul\":2812:2817   */\n      0x00\n        /* \"#utility.yul\":2850:2856   */\n      dup2\n        /* \"#utility.yul\":2837:2857   */\n      calldataload\n        /* \"#utility.yul\":2828:2857   */\n      swap1\n      pop\n        /* \"#utility.yul\":2866:2899   */\n      tag_140\n        /* \"#utility.yul\":2893:2898   */\n      dup2\n        /* \"#utility.yul\":2866:2899   */\n      tag_72\n      jump\t// in\n    tag_140:\n        /* \"#utility.yul\":2766:2905   */\n      swap3\n      swap2\n      pop\n      pop\n      jump\t// out\n        /* \"#utility.yul\":2911:3565   */\n    tag_10:\n        /* \"#utility.yul\":2989:2995   */\n      0x00\n        /* \"#utility.yul\":2997:3003   */\n      0x00\n        /* \"#utility.yul\":3046:3048   */\n      0x40\n        /* \"#utility.yul\":3034:3043   */\n      dup4\n        /* \"#utility.yul\":3025:3032   */\n      dup6\n        /* \"#utility.yul\":3021:3044   */\n      sub\n        /* \"#utility.yul\":3017:3049   */\n      slt\n        /* \"#utility.yul\":3014:3133   */\n      iszero\n      tag_142\n      jumpi\n        /* \"#utility.yul\":3052:3131   */\n      tag_143\n      tag_59\n      jump\t// in\n    tag_143:\n        /* \"#utility.yul\":3014:3133   */\n    tag_142:\n        /* \"#utility.yul\":3200:3201   */\n      0x00\n        /* \"#utility.yul\":3189:3198   */\n      dup4\n        /* \"#utility.yul\":3185:3202   */\n      add\n        /* \"#utility.yul\":3172:3203   */\n      calldataload\n        /* \"#utility.yul\":3230:3248   */\n      0xffffffffffffffff\n        /* \"#utility.yul\":3222:3228   */\n      dup2\n        /* \"#utility.yul\":3219:3249   */\n      gt\n        /* \"#utility.yul\":3216:3333   */\n      iszero\n      tag_144\n      jumpi\n        /* \"#utility.yul\":3252:3331   */\n      tag_145\n      tag_60\n      jump\t// in\n    tag_145:\n        /* \"#utility.yul\":3216:3333   */\n    tag_144:\n        /* \"#utility.yul\":3357:3420   */\n      tag_146\n        /* \"#utility.yul\":3412:3419   */\n      dup6\n        /* \"#utility.yul\":3403:3409   */\n      dup3\n        /* \"#utility.yul\":3392:3401   */\n      dup7\n        /* \"#utility.yul\":3388:3410   */\n      add\n        /* \"#utility.yul\":3357:3420   */\n      tag_70\n      jump\t// in\n    tag_146:\n        /* \"#utility.yul\":3347:3420   */\n      swap3\n      pop\n        /* \"#utility.yul\":3143:3430   */\n      pop\n        /* \"#utility.yul\":3469:3471   */\n      0x20\n        /* \"#utility.yul\":3495:3548   */\n      tag_147\n        /* \"#utility.yul\":3540:3547   */\n      dup6\n        /* \"#utility.yul\":3531:3537   */\n      dup3\n        /* \"#utility.yul\":3520:3529   */\n      dup7\n        /* \"#utility.yul\":3516:3538   */\n      add\n        /* \"#utility.yul\":3495:3548   */\n      tag_73\n      jump\t// in\n    tag_147:\n        /* \"#utility.yul\":3485:3548   */\n      swap2\n      pop\n        /* \"#utility.yul\":3440:3558   */\n      pop\n        /* \"#utility.yul\":2911:3565   */\n      swap3\n      pop\n      swap3\n      swap1\n      pop\n      jump\t// out\n        /* \"#utility.yul\":3571:3670   */\n    tag_74:\n        /* \"#utility.yul\":3623:3629   */\n      0x00\n        /* \"#utility.yul\":3657:3662   */\n      dup2\n        /* \"#utility.yul\":3651:3663   */\n      mload\n        /* \"#utility.yul\":3641:3663   */\n      swap1\n      pop\n        /* \"#utility.yul\":3571:3670   */\n      swap2\n      swap1\n      pop\n      jump\t// out\n        /* \"#utility.yul\":3676:3845   */\n    tag_75:\n        /* \"#utility.yul\":3760:3771   */\n      0x00\n        /* \"#utility.yul\":3794:3800   */\n      dup3\n        /* \"#utility.yul\":3789:3792   */\n      dup3\n        /* \"#utility.yul\":3782:3801   */\n      mstore\n        /* \"#utility.yul\":3834:3838   */\n      0x20\n        /* \"#utility.yul\":3829:3832   */\n      dup3\n        /* \"#utility.yul\":3825:3839   */\n      add\n        /* \"#utility.yul\":3810:3839   */\n      swap1\n      pop\n        /* \"#utility.yul\":3676:3845   */\n      swap3\n      swap2\n      pop\n      pop\n      jump\t// out\n        /* \"#utility.yul\":3851:3990   */\n    tag_76:\n        /* \"#utility.yul\":3940:3946   */\n      dup3\n        /* \"#utility.yul\":3935:3938   */\n      dup2\n        /* \"#utility.yul\":3930:3933   */\n      dup4\n        /* \"#utility.yul\":3924:3947   */\n      mcopy\n        /* \"#utility.yul\":3981:3982   */\n      0x00\n        /* \"#utility.yul\":3972:3978   */\n      dup4\n        /* \"#utility.yul\":3967:3970   */\n      dup4\n        /* \"#utility.yul\":3963:3979   */\n      add\n        /* \"#utility.yul\":3956:3983   */\n      mstore\n        /* \"#utility.yul\":3851:3990   */\n      pop\n      pop\n      pop\n      jump\t// out\n        /* \"#utility.yul\":3996:4373   */\n    tag_77:\n        /* \"#utility.yul\":4084:4087   */\n      0x00\n        /* \"#utility.yul\":4112:4151   */\n      tag_152\n        /* \"#utility.yul\":4145:4150   */\n      dup3\n        /* \"#utility.yul\":4112:4151   */\n      tag_74\n      jump\t// in\n    tag_152:\n        /* \"#utility.yul\":4167:4238   */\n      tag_153\n        /* \"#utility.yul\":4231:4237   */\n      dup2\n        /* \"#utility.yul\":4226:4229   */\n      dup6\n        /* \"#utility.yul\":4167:4238   */\n      tag_75\n      jump\t// in\n    tag_153:\n        /* \"#utility.yul\":4160:4238   */\n      swap4\n      pop\n        /* \"#utility.yul\":4247:4312   */\n      tag_154\n        /* \"#utility.yul\":4305:4311   */\n      dup2\n        /* \"#utility.yul\":4300:4303   */\n      dup6\n        /* \"#utility.yul\":4293:4297   */\n      0x20\n        /* \"#utility.yul\":4286:4291   */\n      dup7\n        /* \"#utility.yul\":4282:4298   */\n      add\n        /* \"#utility.yul\":4247:4312   */\n      tag_76\n      jump\t// in\n    tag_154:\n        /* \"#utility.yul\":4337:4366   */\n      tag_155\n        /* \"#utility.yul\":4359:4365   */\n      dup2\n        /* \"#utility.yul\":4337:4366   */\n      tag_63\n      jump\t// in\n    tag_155:\n        /* \"#utility.yul\":4332:4335   */\n      dup5\n        /* \"#utility.yul\":4328:4367   */\n      add\n        /* \"#utility.yul\":4321:4367   */\n      swap2\n      pop\n        /* \"#utility.yul\":4088:4373   */\n      pop\n        /* \"#utility.yul\":3996:4373   */\n      swap3\n      swap2\n      pop\n      pop\n      jump\t// out\n        /* \"#utility.yul\":4379:4692   */\n    tag_13:\n        /* \"#utility.yul\":4492:4496   */\n      0x00\n        /* \"#utility.yul\":4530:4532   */\n      0x20\n        /* \"#utility.yul\":4519:4528   */\n      dup3\n        /* \"#utility.yul\":4515:4533   */\n      add\n        /* \"#utility.yul\":4507:4533   */\n      swap1\n      pop\n        /* \"#utility.yul\":4579:4588   */\n      dup2\n        /* \"#utility.yul\":4573:4577   */\n      dup2\n        /* \"#utility.yul\":4569:4589   */\n      sub\n        /* \"#utility.yul\":4565:4566   */\n      0x00\n        /* \"#utility.yul\":4554:4563   */\n      dup4\n        /* \"#utility.yul\":4550:4567   */\n      add\n        /* \"#utility.yul\":4543:4590   */\n      mstore\n        /* \"#utility.yul\":4607:4685   */\n      tag_157\n        /* \"#utility.yul\":4680:4684   */\n      dup2\n        /* \"#utility.yul\":4671:4677   */\n      dup5\n        /* \"#utility.yul\":4607:4685   */\n      tag_77\n      jump\t// in\n    tag_157:\n        /* \"#utility.yul\":4599:4685   */\n      swap1\n      pop\n        /* \"#utility.yul\":4379:4692   */\n      swap3\n      swap2\n      pop\n      pop\n      jump\t// out\n        /* \"#utility.yul\":4698:5207   */\n    tag_16:\n        /* \"#utility.yul\":4767:4773   */\n      0x00\n        /* \"#utility.yul\":4816:4818   */\n      0x20\n        /* \"#utility.yul\":4804:4813   */\n      dup3\n        /* \"#utility.yul\":4795:4802   */\n      dup5\n        /* \"#utility.yul\":4791:4814   */\n      sub\n        /* \"#utility.yul\":4787:4819   */\n      slt\n        /* \"#utility.yul\":4784:4903   */\n      iszero\n      tag_159\n      jumpi\n        /* \"#utility.yul\":4822:4901   */\n      tag_160\n      tag_59\n      jump\t// in\n    tag_160:\n        /* \"#utility.yul\":4784:4903   */\n    tag_159:\n        /* \"#utility.yul\":4970:4971   */\n      0x00\n        /* \"#utility.yul\":4959:4968   */\n      dup3\n        /* \"#utility.yul\":4955:4972   */\n      add\n        /* \"#utility.yul\":4942:4973   */\n      calldataload\n        /* \"#utility.yul\":5000:5018   */\n      0xffffffffffffffff\n        /* \"#utility.yul\":4992:4998   */\n      dup2\n        /* \"#utility.yul\":4989:5019   */\n      gt\n        /* \"#utility.yul\":4986:5103   */\n      iszero\n      tag_161\n      jumpi\n        /* \"#utility.yul\":5022:5101   */\n      tag_162\n      tag_60\n      jump\t// in\n    tag_162:\n        /* \"#utility.yul\":4986:5103   */\n    tag_161:\n        /* \"#utility.yul\":5127:5190   */\n      tag_163\n        /* \"#utility.yul\":5182:5189   */\n      dup5\n        /* \"#utility.yul\":5173:5179   */\n      dup3\n        /* \"#utility.yul\":5162:5171   */\n      dup6\n        /* \"#utility.yul\":5158:5180   */\n      add\n        /* \"#utility.yul\":5127:5190   */\n      tag_70\n      jump\t// in\n    tag_163:\n        /* \"#utility.yul\":5117:5190   */\n      swap2\n      pop\n        /* \"#utility.yul\":4913:5200   */\n      pop\n        /* \"#utility.yul\":4698:5207   */\n      swap3\n      swap2\n      pop\n      pop\n      jump\t// out\n        /* \"#utility.yul\":5213:5331   */\n    tag_78:\n        /* \"#utility.yul\":5300:5324   */\n      tag_165\n        /* \"#utility.yul\":5318:5323   */\n      dup2\n        /* \"#utility.yul\":5300:5324   */\n      tag_71\n      jump\t// in\n    tag_165:\n        /* \"#utility.yul\":5295:5298   */\n      dup3\n        /* \"#utility.yul\":5288:5325   */\n      mstore\n        /* \"#utility.yul\":5213:5331   */\n      pop\n      pop\n      jump\t// out\n        /* \"#utility.yul\":5337:5559   */\n    tag_19:\n        /* \"#utility.yul\":5430:5434   */\n      0x00\n        /* \"#utility.yul\":5468:5470   */\n      0x20\n        /* \"#utility.yul\":5457:5466   */\n      dup3\n        /* \"#utility.yul\":5453:5471   */\n      add\n        /* \"#utility.yul\":5445:5471   */\n      swap1\n      pop\n        /* \"#utility.yul\":5481:5552   */\n      tag_167\n        /* \"#utility.yul\":5549:5550   */\n      0x00\n        /* \"#utility.yul\":5538:5547   */\n      dup4\n        /* \"#utility.yul\":5534:5551   */\n      add\n        /* \"#utility.yul\":5525:5531   */\n      dup5\n        /* \"#utility.yul\":5481:5552   */\n      tag_78\n      jump\t// in\n    tag_167:\n        /* \"#utility.yul\":5337:5559   */\n      swap3\n      swap2\n      pop\n      pop\n      jump\t// out\n        /* \"#utility.yul\":5565:5689   */\n    tag_79:\n        /* \"#utility.yul\":5642:5648   */\n      0x00\n        /* \"#utility.yul\":5676:5681   */\n      dup2\n        /* \"#utility.yul\":5670:5682   */\n      mload\n        /* \"#utility.yul\":5660:5682   */\n      swap1\n      pop\n        /* \"#utility.yul\":5565:5689   */\n      swap2\n      swap1\n      pop\n      jump\t// out\n        /* \"#utility.yul\":5695:5889   */\n    tag_80:\n        /* \"#utility.yul\":5804:5815   */\n      0x00\n        /* \"#utility.yul\":5838:5844   */\n      dup3\n        /* \"#utility.yul\":5833:5836   */\n      dup3\n        /* \"#utility.yul\":5826:5845   */\n      mstore\n        /* \"#utility.yul\":5878:5882   */\n      0x20\n        /* \"#utility.yul\":5873:5876   */\n      dup3\n        /* \"#utility.yul\":5869:5883   */\n      add\n        /* \"#utility.yul\":5854:5883   */\n      swap1\n      pop\n        /* \"#utility.yul\":5695:5889   */\n      swap3\n      swap2\n      pop\n      pop\n      jump\t// out\n        /* \"#utility.yul\":5895:6037   */\n    tag_81:\n        /* \"#utility.yul\":5972:5976   */\n      0x00\n        /* \"#utility.yul\":5995:5998   */\n      dup2\n        /* \"#utility.yul\":5987:5998   */\n      swap1\n      pop\n        /* \"#utility.yul\":6025:6029   */\n      0x20\n        /* \"#utility.yul\":6020:6023   */\n      dup3\n        /* \"#utility.yul\":6016:6030   */\n      add\n        /* \"#utility.yul\":6008:6030   */\n      swap1\n      pop\n        /* \"#utility.yul\":5895:6037   */\n      swap2\n      swap1\n      pop\n      jump\t// out\n        /* \"#utility.yul\":6043:6202   */\n    tag_82:\n        /* \"#utility.yul\":6117:6128   */\n      0x00\n        /* \"#utility.yul\":6151:6157   */\n      dup3\n        /* \"#utility.yul\":6146:6149   */\n      dup3\n        /* \"#utility.yul\":6139:6158   */\n      mstore\n        /* \"#utility.yul\":6191:6195   */\n      0x20\n        /* \"#utility.yul\":6186:6189   */\n      dup3\n        /* \"#utility.yul\":6182:6196   */\n      add\n        /* \"#utility.yul\":6167:6196   */\n      swap1\n      pop\n        /* \"#utility.yul\":6043:6202   */\n      swap3\n      swap2\n      pop\n      pop\n      jump\t// out\n        /* \"#utility.yul\":6208:6565   */\n    tag_83:\n        /* \"#utility.yul\":6286:6289   */\n      0x00\n        /* \"#utility.yul\":6314:6353   */\n      tag_173\n        /* \"#utility.yul\":6347:6352   */\n      dup3\n        /* \"#utility.yul\":6314:6353   */\n      tag_74\n      jump\t// in\n    tag_173:\n        /* \"#utility.yul\":6369:6430   */\n      tag_174\n        /* \"#utility.yul\":6423:6429   */\n      dup2\n        /* \"#utility.yul\":6418:6421   */\n      dup6\n        /* \"#utility.yul\":6369:6430   */\n      tag_82\n      jump\t// in\n    tag_174:\n        /* \"#utility.yul\":6362:6430   */\n      swap4\n      pop\n        /* \"#utility.yul\":6439:6504   */\n      tag_175\n        /* \"#utility.yul\":6497:6503   */\n      dup2\n        /* \"#utility.yul\":6492:6495   */\n      dup6\n        /* \"#utility.yul\":6485:6489   */\n      0x20\n        /* \"#utility.yul\":6478:6483   */\n      dup7\n        /* \"#utility.yul\":6474:6490   */\n      add\n        /* \"#utility.yul\":6439:6504   */\n      tag_76\n      jump\t// in\n    tag_175:\n        /* \"#utility.yul\":6529:6558   */\n      tag_176\n        /* \"#utility.yul\":6551:6557   */\n      dup2\n        /* \"#utility.yul\":6529:6558   */\n      tag_63\n      jump\t// in\n    tag_176:\n        /* \"#utility.yul\":6524:6527   */\n      dup5\n        /* \"#utility.yul\":6520:6559   */\n      add\n        /* \"#utility.yul\":6513:6559   */\n      swap2\n      pop\n        /* \"#utility.yul\":6290:6565   */\n      pop\n        /* \"#utility.yul\":6208:6565   */\n      swap3\n      swap2\n      pop\n      pop\n      jump\t// out\n        /* \"#utility.yul\":6571:6767   */\n    tag_84:\n        /* \"#utility.yul\":6660:6670   */\n      0x00\n        /* \"#utility.yul\":6695:6761   */\n      tag_178\n        /* \"#utility.yul\":6757:6760   */\n      dup4\n        /* \"#utility.yul\":6749:6755   */\n      dup4\n        /* \"#utility.yul\":6695:6761   */\n      tag_83\n      jump\t// in\n    tag_178:\n        /* \"#utility.yul\":6681:6761   */\n      swap1\n      pop\n        /* \"#utility.yul\":6571:6767   */\n      swap3\n      swap2\n      pop\n      pop\n      jump\t// out\n        /* \"#utility.yul\":6773:6896   */\n    tag_85:\n        /* \"#utility.yul\":6853:6857   */\n      0x00\n        /* \"#utility.yul\":6885:6889   */\n      0x20\n        /* \"#utility.yul\":6880:6883   */\n      dup3\n        /* \"#utility.yul\":6876:6890   */\n      add\n        /* \"#utility.yul\":6868:6890   */\n      swap1\n      pop\n        /* \"#utility.yul\":6773:6896   */\n      swap2\n      swap1\n      pop\n      jump\t// out\n        /* \"#utility.yul\":6930:7921   */\n    tag_86:\n        /* \"#utility.yul\":7069:7072   */\n      0x00\n        /* \"#utility.yul\":7098:7162   */\n      tag_181\n        /* \"#utility.yul\":7156:7161   */\n      dup3\n        /* \"#utility.yul\":7098:7162   */\n      tag_79\n      jump\t// in\n    tag_181:\n        /* \"#utility.yul\":7178:7274   */\n      tag_182\n        /* \"#utility.yul\":7267:7273   */\n      dup2\n        /* \"#utility.yul\":7262:7265   */\n      dup6\n        /* \"#utility.yul\":7178:7274   */\n      tag_80\n      jump\t// in\n    tag_182:\n        /* \"#utility.yul\":7171:7274   */\n      swap4\n      pop\n        /* \"#utility.yul\":7300:7303   */\n      dup4\n        /* \"#utility.yul\":7345:7349   */\n      0x20\n        /* \"#utility.yul\":7337:7343   */\n      dup3\n        /* \"#utility.yul\":7333:7350   */\n      mul\n        /* \"#utility.yul\":7328:7331   */\n      dup6\n        /* \"#utility.yul\":7324:7351   */\n      add\n        /* \"#utility.yul\":7375:7441   */\n      tag_183\n        /* \"#utility.yul\":7435:7440   */\n      dup6\n        /* \"#utility.yul\":7375:7441   */\n      tag_81\n      jump\t// in\n    tag_183:\n        /* \"#utility.yul\":7464:7471   */\n      dup1\n        /* \"#utility.yul\":7495:7496   */\n      0x00\n        /* \"#utility.yul\":7480:7876   */\n    tag_184:\n        /* \"#utility.yul\":7505:7511   */\n      dup6\n        /* \"#utility.yul\":7502:7503   */\n      dup2\n        /* \"#utility.yul\":7499:7512   */\n      lt\n        /* \"#utility.yul\":7480:7876   */\n      iszero\n      tag_186\n      jumpi\n        /* \"#utility.yul\":7576:7585   */\n      dup5\n        /* \"#utility.yul\":7570:7574   */\n      dup5\n        /* \"#utility.yul\":7566:7586   */\n      sub\n        /* \"#utility.yul\":7561:7564   */\n      dup10\n        /* \"#utility.yul\":7554:7587   */\n      mstore\n        /* \"#utility.yul\":7627:7633   */\n      dup2\n        /* \"#utility.yul\":7621:7634   */\n      mload\n        /* \"#utility.yul\":7655:7739   */\n      tag_187\n        /* \"#utility.yul\":7734:7738   */\n      dup6\n        /* \"#utility.yul\":7719:7732   */\n      dup3\n        /* \"#utility.yul\":7655:7739   */\n      tag_84\n      jump\t// in\n    tag_187:\n        /* \"#utility.yul\":7647:7739   */\n      swap5\n      pop\n        /* \"#utility.yul\":7762:7832   */\n      tag_188\n        /* \"#utility.yul\":7825:7831   */\n      dup4\n        /* \"#utility.yul\":7762:7832   */\n      tag_85\n      jump\t// in\n    tag_188:\n        /* \"#utility.yul\":7752:7832   */\n      swap3\n      pop\n        /* \"#utility.yul\":7861:7865   */\n      0x20\n        /* \"#utility.yul\":7856:7859   */\n      dup11\n        /* \"#utility.yul\":7852:7866   */\n      add\n        /* \"#utility.yul\":7845:7866   */\n      swap10\n      pop\n        /* \"#utility.yul\":7540:7876   */\n      pop\n        /* \"#utility.yul\":7527:7528   */\n      0x01\n        /* \"#utility.yul\":7524:7525   */\n      dup2\n        /* \"#utility.yul\":7520:7529   */\n      add\n        /* \"#utility.yul\":7515:7529   */\n      swap1\n      pop\n        /* \"#utility.yul\":7480:7876   */\n      jump(tag_184)\n    tag_186:\n        /* \"#utility.yul\":7484:7498   */\n      pop\n        /* \"#utility.yul\":7892:7896   */\n      dup3\n        /* \"#utility.yul\":7885:7896   */\n      swap8\n      pop\n        /* \"#utility.yul\":7912:7915   */\n      dup8\n        /* \"#utility.yul\":7905:7915   */\n      swap6\n      pop\n        /* \"#utility.yul\":7074:7921   */\n      pop\n      pop\n      pop\n      pop\n      pop\n        /* \"#utility.yul\":6930:7921   */\n      swap3\n      swap2\n      pop\n      pop\n      jump\t// out\n        /* \"#utility.yul\":7927:8340   */\n    tag_24:\n        /* \"#utility.yul\":8090:8094   */\n      0x00\n        /* \"#utility.yul\":8128:8130   */\n      0x20\n        /* \"#utility.yul\":8117:8126   */\n      dup3\n        /* \"#utility.yul\":8113:8131   */\n      add\n        /* \"#utility.yul\":8105:8131   */\n      swap1\n      pop\n        /* \"#utility.yul\":8177:8186   */\n      dup2\n        /* \"#utility.yul\":8171:8175   */\n      dup2\n        /* \"#utility.yul\":8167:8187   */\n      sub\n        /* \"#utility.yul\":8163:8164   */\n      0x00\n        /* \"#utility.yul\":8152:8161   */\n      dup4\n        /* \"#utility.yul\":8148:8165   */\n      add\n        /* \"#utility.yul\":8141:8188   */\n      mstore\n        /* \"#utility.yul\":8205:8333   */\n      tag_190\n        /* \"#utility.yul\":8328:8332   */\n      dup2\n        /* \"#utility.yul\":8319:8325   */\n      dup5\n        /* \"#utility.yul\":8205:8333   */\n      tag_86\n      jump\t// in\n    tag_190:\n        /* \"#utility.yul\":8197:8333   */\n      swap1\n      pop\n        /* \"#utility.yul\":7927:8340   */\n      swap3\n      swap2\n      pop\n      pop\n      jump\t// out\n        /* \"#utility.yul\":8346:9180   */\n    tag_30:\n        /* \"#utility.yul\":8434:8440   */\n      0x00\n        /* \"#utility.yul\":8442:8448   */\n      0x00\n        /* \"#utility.yul\":8491:8493   */\n      0x40\n        /* \"#utility.yul\":8479:8488   */\n      dup4\n        /* \"#utility.yul\":8470:8477   */\n      dup6\n        /* \"#utility.yul\":8466:8489   */\n      sub\n        /* \"#utility.yul\":8462:8494   */\n      slt\n        /* \"#utility.yul\":8459:8578   */\n      iszero\n      tag_192\n      jumpi\n        /* \"#utility.yul\":8497:8576   */\n      tag_193\n      tag_59\n      jump\t// in\n    tag_193:\n        /* \"#utility.yul\":8459:8578   */\n    tag_192:\n        /* \"#utility.yul\":8645:8646   */\n      0x00\n        /* \"#utility.yul\":8634:8643   */\n      dup4\n        /* \"#utility.yul\":8630:8647   */\n      add\n        /* \"#utility.yul\":8617:8648   */\n      calldataload\n        /* \"#utility.yul\":8675:8693   */\n      0xffffffffffffffff\n        /* \"#utility.yul\":8667:8673   */\n      dup2\n        /* \"#utility.yul\":8664:8694   */\n      gt\n        /* \"#utility.yul\":8661:8778   */\n      iszero\n      tag_194\n      jumpi\n        /* \"#utility.yul\":8697:8776   */\n      tag_195\n      tag_60\n      jump\t// in\n    tag_195:\n        /* \"#utility.yul\":8661:8778   */\n    tag_194:\n        /* \"#utility.yul\":8802:8865   */\n      tag_196\n        /* \"#utility.yul\":8857:8864   */\n      dup6\n        /* \"#utility.yul\":8848:8854   */\n      dup3\n        /* \"#utility.yul\":8837:8846   */\n      dup7\n        /* \"#utility.yul\":8833:8855   */\n      add\n        /* \"#utility.yul\":8802:8865   */\n      tag_70\n      jump\t// in\n    tag_196:\n        /* \"#utility.yul\":8792:8865   */\n      swap3\n      pop\n        /* \"#utility.yul\":8588:8875   */\n      pop\n        /* \"#utility.yul\":8942:8944   */\n      0x20\n        /* \"#utility.yul\":8931:8940   */\n      dup4\n        /* \"#utility.yul\":8927:8945   */\n      add\n        /* \"#utility.yul\":8914:8946   */\n      calldataload\n        /* \"#utility.yul\":8973:8991   */\n      0xffffffffffffffff\n        /* \"#utility.yul\":8965:8971   */\n      dup2\n        /* \"#utility.yul\":8962:8992   */\n      gt\n        /* \"#utility.yul\":8959:9076   */\n      iszero\n      tag_197\n      jumpi\n        /* \"#utility.yul\":8995:9074   */\n      tag_198\n      tag_60\n      jump\t// in\n    tag_198:\n        /* \"#utility.yul\":8959:9076   */\n    tag_197:\n        /* \"#utility.yul\":9100:9163   */\n      tag_199\n        /* \"#utility.yul\":9155:9162   */\n      dup6\n        /* \"#utility.yul\":9146:9152   */\n      dup3\n        /* \"#utility.yul\":9135:9144   */\n      dup7\n        /* \"#utility.yul\":9131:9153   */\n      add\n        /* \"#utility.yul\":9100:9163   */\n      tag_70\n      jump\t// in\n    tag_199:\n        /* \"#utility.yul\":9090:9163   */\n      swap2\n      pop\n        /* \"#utility.yul\":8885:9173   */\n      pop\n        /* \"#utility.yul\":8346:9180   */\n      swap3\n      pop\n      swap3\n      swap1\n      pop\n      jump\t// out\n        /* \"#utility.yul\":9186:9366   */\n    tag_87:\n        /* \"#utility.yul\":9234:9311   */\n      0x4e487b7100000000000000000000000000000000000000000000000000000000\n        /* \"#utility.yul\":9231:9232   */\n      0x00\n        /* \"#utility.yul\":9224:9312   */\n      mstore\n        /* \"#utility.yul\":9331:9335   */\n      0x22\n        /* \"#utility.yul\":9328:9329   */\n      0x04\n        /* \"#utility.yul\":9321:9336   */\n      mstore\n        /* \"#utility.yul\":9355:9359   */\n      0x24\n        /* \"#utility.yul\":9352:9353   */\n      0x00\n        /* \"#utility.yul\":9345:9360   */\n      revert\n        /* \"#utility.yul\":9372:9692   */\n    tag_35:\n        /* \"#utility.yul\":9416:9422   */\n      0x00\n        /* \"#utility.yul\":9453:9454   */\n      0x02\n        /* \"#utility.yul\":9447:9451   */\n      dup3\n        /* \"#utility.yul\":9443:9455   */\n      div\n        /* \"#utility.yul\":9433:9455   */\n      swap1\n      pop\n        /* \"#utility.yul\":9500:9501   */\n      0x01\n        /* \"#utility.yul\":9494:9498   */\n      dup3\n        /* \"#utility.yul\":9490:9502   */\n      and\n        /* \"#utility.yul\":9521:9539   */\n      dup1\n        /* \"#utility.yul\":9511:9592   */\n      tag_202\n      jumpi\n        /* \"#utility.yul\":9577:9581   */\n      0x7f\n        /* \"#utility.yul\":9569:9575   */\n      dup3\n        /* \"#utility.yul\":9565:9582   */\n      and\n        /* \"#utility.yul\":9555:9582   */\n      swap2\n      pop\n        /* \"#utility.yul\":9511:9592   */\n    tag_202:\n        /* \"#utility.yul\":9639:9641   */\n      0x20\n        /* \"#utility.yul\":9631:9637   */\n      dup3\n        /* \"#utility.yul\":9628:9642   */\n      lt\n        /* \"#utility.yul\":9608:9626   */\n      dup2\n        /* \"#utility.yul\":9605:9643   */\n      sub\n        /* \"#utility.yul\":9602:9686   */\n      tag_203\n      jumpi\n        /* \"#utility.yul\":9658:9676   */\n      tag_204\n      tag_87\n      jump\t// in\n    tag_204:\n        /* \"#utility.yul\":9602:9686   */\n    tag_203:\n        /* \"#utility.yul\":9423:9692   */\n      pop\n        /* \"#utility.yul\":9372:9692   */\n      swap2\n      swap1\n      pop\n      jump\t// out\n        /* \"#utility.yul\":9698:9846   */\n    tag_88:\n        /* \"#utility.yul\":9800:9811   */\n      0x00\n        /* \"#utility.yul\":9837:9840   */\n      dup2\n        /* \"#utility.yul\":9822:9840   */\n      swap1\n      pop\n        /* \"#utility.yul\":9698:9846   */\n      swap3\n      swap2\n      pop\n      pop\n      jump\t// out\n        /* \"#utility.yul\":9852:10242   */\n    tag_89:\n        /* \"#utility.yul\":9958:9961   */\n      0x00\n        /* \"#utility.yul\":9986:10025   */\n      tag_207\n        /* \"#utility.yul\":10019:10024   */\n      dup3\n        /* \"#utility.yul\":9986:10025   */\n      tag_74\n      jump\t// in\n    tag_207:\n        /* \"#utility.yul\":10041:10130   */\n      tag_208\n        /* \"#utility.yul\":10123:10129   */\n      dup2\n        /* \"#utility.yul\":10118:10121   */\n      dup6\n        /* \"#utility.yul\":10041:10130   */\n      tag_88\n      jump\t// in\n    tag_208:\n        /* \"#utility.yul\":10034:10130   */\n      swap4\n      pop\n        /* \"#utility.yul\":10139:10204   */\n      tag_209\n        /* \"#utility.yul\":10197:10203   */\n      dup2\n        /* \"#utility.yul\":10192:10195   */\n      dup6\n        /* \"#utility.yul\":10185:10189   */\n      0x20\n        /* \"#utility.yul\":10178:10183   */\n      dup7\n        /* \"#utility.yul\":10174:10190   */\n      add\n        /* \"#utility.yul\":10139:10204   */\n      tag_76\n      jump\t// in\n    tag_209:\n        /* \"#utility.yul\":10229:10235   */\n      dup1\n        /* \"#utility.yul\":10224:10227   */\n      dup5\n        /* \"#utility.yul\":10220:10236   */\n      add\n        /* \"#utility.yul\":10213:10236   */\n      swap2\n      pop\n        /* \"#utility.yul\":9962:10242   */\n      pop\n        /* \"#utility.yul\":9852:10242   */\n      swap3\n      swap2\n      pop\n      pop\n      jump\t// out\n        /* \"#utility.yul\":10248:10523   */\n    tag_42:\n        /* \"#utility.yul\":10380:10383   */\n      0x00\n        /* \"#utility.yul\":10402:10497   */\n      tag_211\n        /* \"#utility.yul\":10493:10496   */\n      dup3\n        /* \"#utility.yul\":10484:10490   */\n      dup5\n        /* \"#utility.yul\":10402:10497   */\n      tag_89\n      jump\t// in\n    tag_211:\n        /* \"#utility.yul\":10395:10497   */\n      swap2\n      pop\n        /* \"#utility.yul\":10514:10517   */\n      dup2\n        /* \"#utility.yul\":10507:10517   */\n      swap1\n      pop\n        /* \"#utility.yul\":10248:10523   */\n      swap3\n      swap2\n      pop\n      pop\n      jump\t// out\n        /* \"#utility.yul\":10529:10670   */\n    tag_90:\n        /* \"#utility.yul\":10578:10582   */\n      0x00\n        /* \"#utility.yul\":10601:10604   */\n      dup2\n        /* \"#utility.yul\":10593:10604   */\n      swap1\n      pop\n        /* \"#utility.yul\":10624:10627   */\n      dup2\n        /* \"#utility.yul\":10621:10622   */\n      0x00\n        /* \"#utility.yul\":10614:10628   */\n      mstore\n        /* \"#utility.yul\":10658:10662   */\n      0x20\n        /* \"#utility.yul\":10655:10656   */\n      0x00\n        /* \"#utility.yul\":10645:10663   */\n      keccak256\n        /* \"#utility.yul\":10637:10663   */\n      swap1\n      pop\n        /* \"#utility.yul\":10529:10670   */\n      swap2\n      swap1\n      pop\n      jump\t// out\n        /* \"#utility.yul\":10676:10769   */\n    tag_91:\n        /* \"#utility.yul\":10713:10719   */\n      0x00\n        /* \"#utility.yul\":10760:10762   */\n      0x20\n        /* \"#utility.yul\":10755:10757   */\n      0x1f\n        /* \"#utility.yul\":10748:10753   */\n      dup4\n        /* \"#utility.yul\":10744:10758   */\n      add\n        /* \"#utility.yul\":10740:10763   */\n      div\n        /* \"#utility.yul\":10730:10763   */\n      swap1\n      pop\n        /* \"#utility.yul\":10676:10769   */\n      swap2\n      swap1\n      pop\n      jump\t// out\n        /* \"#utility.yul\":10775:10882   */\n    tag_92:\n        /* \"#utility.yul\":10819:10827   */\n      0x00\n        /* \"#utility.yul\":10869:10874   */\n      dup3\n        /* \"#utility.yul\":10863:10867   */\n      dup3\n        /* \"#utility.yul\":10859:10875   */\n      shl\n        /* \"#utility.yul\":10838:10875   */\n      swap1\n      pop\n        /* \"#utility.yul\":10775:10882   */\n      swap3\n      swap2\n      pop\n      pop\n      jump\t// out\n        /* \"#utility.yul\":10888:11281   */\n    tag_93:\n        /* \"#utility.yul\":10957:10963   */\n      0x00\n        /* \"#utility.yul\":11007:11008   */\n      0x08\n        /* \"#utility.yul\":10995:11005   */\n      dup4\n        /* \"#utility.yul\":10991:11009   */\n      mul\n        /* \"#utility.yul\":11030:11127   */\n      tag_216\n        /* \"#utility.yul\":11060:11126   */\n      0xffffffffffffffffffffffffffffffffffffffffffffffffffffffffffffffff\n        /* \"#utility.yul\":11049:11058   */\n      dup3\n        /* \"#utility.yul\":11030:11127   */\n      tag_92\n      jump\t// in\n    tag_216:\n        /* \"#utility.yul\":11148:11187   */\n      tag_217\n        /* \"#utility.yul\":11178:11186   */\n      dup7\n        /* \"#utility.yul\":11167:11176   */\n      dup4\n        /* \"#utility.yul\":11148:11187   */\n      tag_92\n      jump\t// in\n    tag_217:\n        /* \"#utility.yul\":11136:11187   */\n      swap6\n      pop\n        /* \"#utility.yul\":11220:11224   */\n      dup1\n        /* \"#utility.yul\":11216:11225   */\n      not\n        /* \"#utility.yul\":11209:11214   */\n      dup5\n        /* \"#utility.yul\":11205:11226   */\n      and\n        /* \"#utility.yul\":11196:11226   */\n      swap4\n      pop\n        /* \"#utility.yul\":11269:11273   */\n      dup1\n        /* \"#utility.yul\":11259:11267   */\n      dup7\n        /* \"#utility.yul\":11255:11274   */\n      and\n        /* \"#utility.yul\":11248:11253   */\n      dup5\n        /* \"#utility.yul\":11245:11275   */\n      or\n        /* \"#utility.yul\":11235:11275   */\n      swap3\n      pop\n        /* \"#utility.yul\":10964:11281   */\n      pop\n      pop\n        /* \"#utility.yul\":10888:11281   */\n      swap4\n      swap3\n      pop\n      pop\n      pop\n      jump\t// out\n        /* \"#utility.yul\":11287:11347   */\n    tag_94:\n        /* \"#utility.yul\":11315:11318   */\n      0x00\n        /* \"#utility.yul\":11336:11341   */\n      dup2\n        /* \"#utility.yul\":11329:11341   */\n      swap1\n      pop\n        /* \"#utility.yul\":11287:11347   */\n      swap2\n      swap1\n      pop\n      jump\t// out\n        /* \"#utility.yul\":11353:11495   */\n    tag_95:\n        /* \"#utility.yul\":11403:11412   */\n      0x00\n        /* \"#utility.yul\":11436:11489   */\n      tag_220\n        /* \"#utility.yul\":11454:11488   */\n      tag_221\n        /* \"#utility.yul\":11463:11487   */\n      tag_222\n        /* \"#utility.yul\":11481:11486   */\n      dup5\n        /* \"#utility.yul\":11463:11487   */\n      tag_71\n      jump\t// in\n    tag_222:\n        /* \"#utility.yul\":11454:11488   */\n      tag_94\n      jump\t// in\n    tag_221:\n        /* \"#utility.yul\":11436:11489   */\n      tag_71\n      jump\t// in\n    tag_220:\n        /* \"#utility.yul\":11423:11489   */\n      swap1\n      pop\n        /* \"#utility.yul\":11353:11495   */\n      swap2\n      swap1\n      pop\n      jump\t// out\n        /* \"#utility.yul\":11501:11576   */\n    tag_96:\n        /* \"#utility.yul\":11544:11547   */\n      0x00\n        /* \"#utility.yul\":11565:11570   */\n      dup2\n        /* \"#utility.yul\":11558:11570   */\n      swap1\n      pop\n        /* \"#utility.yul\":11501:11576   */\n      swap2\n      swap1\n      pop\n      jump\t// out\n        /* \"#utility.yul\":11582:11851   */\n    tag_97:\n        /* \"#utility.yul\":11692:11731   */\n      tag_225\n        /* \"#utility.yul\":11723:11730   */\n      dup4\n        /* \"#utility.yul\":11692:11731   */\n      tag_95\n      jump\t// in\n    tag_225:\n        /* \"#utility.yul\":11753:11844   */\n      tag_226\n        /* \"#utility.yul\":11802:11843   */\n      tag_227\n        /* \"#utility.yul\":11826:11842   */\n      dup3\n        /* \"#utility.yul\":11802:11843   */\n      tag_96\n      jump\t// in\n    tag_227:\n        /* \"#utility.yul\":11794:11800   */\n      dup5\n        /* \"#utility.yul\":11787:11791   */\n      dup5\n        /* \"#utility.yul\":11781:11792   */\n      sload\n        /* \"#utility.yul\":11753:11844   */\n      tag_93\n      jump\t// in\n    tag_226:\n        /* \"#utility.yul\":11747:11751   */\n      dup3\n        /* \"#utility.yul\":11740:11845   */\n      sstore\n        /* \"#utility.yul\":11658:11851   */\n      pop\n        /* \"#utility.yul\":11582:11851   */\n      pop\n      pop\n      pop\n      jump\t// out\n        /* \"#utility.yul\":11857:11930   */\n    tag_98:\n        /* \"#utility.yul\":11902:11905   */\n      0x00\n        /* \"#utility.yul\":11923:11924   */\n      0x00\n        /* \"#utility.yul\":11916:11924   */\n      swap1\n      pop\n        /* \"#utility.yul\":11857:11930   */\n      swap1\n      jump\t// out\n        /* \"#utility.yul\":11936:12125   */\n    tag_99:\n        /* \"#utility.yul\":12013:12045   */\n      tag_230\n      tag_98\n      jump\t// in\n    tag_230:\n        /* \"#utility.yul\":12054:12119   */\n      tag_231\n        /* \"#utility.yul\":12112:12118   */\n      dup2\n        /* \"#utility.yul\":12104:12110   */\n      dup5\n        /* \"#utility.yul\":12098:12102   */\n      dup5\n        /* \"#utility.yul\":12054:12119   */\n      tag_97\n      jump\t// in\n    tag_231:\n        /* \"#utility.yul\":11989:12125   */\n      pop\n        /* \"#utility.yul\":11936:12125   */\n      pop\n      pop\n      jump\t// out\n        /* \"#utility.yul\":12131:12317   */\n    tag_100:\n        /* \"#utility.yul\":12191:12311   */\n    tag_233:\n        /* \"#utility.yul\":12208:12211   */\n      dup2\n        /* \"#utility.yul\":12201:12206   */\n      dup2\n        /* \"#utility.yul\":12198:12212   */\n      lt\n        /* \"#utility.yul\":12191:12311   */\n      iszero\n      tag_235\n      jumpi\n        /* \"#utility.yul\":12262:12301   */\n      tag_236\n        /* \"#utility.yul\":12299:12300   */\n      0x00\n        /* \"#utility.yul\":12292:12297   */\n      dup3\n        /* \"#utility.yul\":12262:12301   */\n      tag_99\n      jump\t// in\n    tag_236:\n        /* \"#utility.yul\":12235:12236   */\n      0x01\n        /* \"#utility.yul\":12228:12233   */\n      dup2\n        /* \"#utility.yul\":12224:12237   */\n      add\n        /* \"#utility.yul\":12215:12237   */\n      swap1\n      pop\n        /* \"#utility.yul\":12191:12311   */\n      jump(tag_233)\n    tag_235:\n        /* \"#utility.yul\":12131:12317   */\n      pop\n      pop\n      jump\t// out\n        /* \"#utility.yul\":12323:12866   */\n    tag_101:\n        /* \"#utility.yul\":12424:12426   */\n      0x1f\n        /* \"#utility.yul\":12419:12422   */\n      dup3\n        /* \"#utility.yul\":12416:12427   */\n      gt\n        /* \"#utility.yul\":12413:12859   */\n      iszero\n      tag_238\n      jumpi\n        /* \"#utility.yul\":12458:12496   */\n      tag_239\n        /* \"#utility.yul\":12490:12495   */\n      dup2\n        /* \"#utility.yul\":12458:12496   */\n      tag_90\n      jump\t// in\n    tag_239:\n        /* \"#utility.yul\":12542:12571   */\n      tag_240\n        /* \"#utility.yul\":12560:12570   */\n      dup5\n        /* \"#utility.yul\":12542:12571   */\n      tag_91\n      jump\t// in\n    tag_240:\n        /* \"#utility.yul\":12532:12540   */\n      dup2\n        /* \"#utility.yul\":12528:12572   */\n      add\n        /* \"#utility.yul\":12725:12727   */\n      0x20\n        /* \"#utility.yul\":12713:12723   */\n      dup6\n        /* \"#utility.yul\":12710:12728   */\n      lt\n        /* \"#utility.yul\":12707:12756   */\n      iszero\n      tag_241\n      jumpi\n        /* \"#utility.yul\":12746:12754   */\n      dup2\n        /* \"#utility.yul\":12731:12754   */\n      swap1\n      pop\n        /* \"#utility.yul\":12707:12756   */\n    tag_241:\n        /* \"#utility.yul\":12769:12849   */\n      tag_242\n        /* \"#utility.yul\":12825:12847   */\n      tag_243\n        /* \"#utility.yul\":12843:12846   */\n      dup6\n        /* \"#utility.yul\":12825:12847   */\n      tag_91\n      jump\t// in\n    tag_243:\n        /* \"#utility.yul\":12815:12823   */\n      dup4\n        /* \"#utility.yul\":12811:12848   */\n      add\n        /* \"#utility.yul\":12798:12809   */\n      dup3\n        /* \"#utility.yul\":12769:12849   */\n      tag_100\n      jump\t// in\n    tag_242:\n        /* \"#utility.yul\":12428:12859   */\n      pop\n      pop\n        /* \"#utility.yul\":12413:12859   */\n    tag_238:\n        /* \"#utility.yul\":12323:12866   */\n      pop\n      pop\n      pop\n      jump\t// out\n        /* \"#utility.yul\":12872:12989   */\n    tag_102:\n        /* \"#utility.yul\":12926:12934   */\n      0x00\n        /* \"#utility.yul\":12976:12981   */\n      dup3\n        /* \"#utility.yul\":12970:12974   */\n      dup3\n        /* \"#utility.yul\":12966:12982   */\n      shr\n        /* \"#utility.yul\":12945:12982   */\n      swap1\n      pop\n        /* \"#utility.yul\":12872:12989   */\n      swap3\n      swap2\n      pop\n      pop\n      jump\t// out\n        /* \"#utility.yul\":12995:13164   */\n    tag_103:\n        /* \"#utility.yul\":13039:13045   */\n      0x00\n        /* \"#utility.yul\":13072:13123   */\n      tag_246\n        /* \"#utility.yul\":13120:13121   */\n      0x00\n        /* \"#utility.yul\":13116:13122   */\n      not\n        /* \"#utility.yul\":13108:13113   */\n      dup5\n        /* \"#utility.yul\":13105:13106   */\n      0x08\n        /* \"#utility.yul\":13101:13114   */\n      mul\n        /* \"#utility.yul\":13072:13123   */\n      tag_102\n      jump\t// in\n    tag_246:\n        /* \"#utility.yul\":13068:13124   */\n      not\n        /* \"#utility.yul\":13153:13157   */\n      dup1\n        /* \"#utility.yul\":13147:13151   */\n      dup4\n        /* \"#utility.yul\":13143:13158   */\n      and\n        /* \"#utility.yul\":13133:13158   */\n      swap2\n      pop\n        /* \"#utility.yul\":13046:13164   */\n      pop\n        /* \"#utility.yul\":12995:13164   */\n      swap3\n      swap2\n      pop\n      pop\n      jump\t// out\n        /* \"#utility.yul\":13169:13464   */\n    tag_104:\n        /* \"#utility.yul\":13245:13249   */\n      0x00\n        /* \"#utility.yul\":13391:13420   */\n      tag_248\n        /* \"#utility.yul\":13416:13419   */\n      dup4\n        /* \"#utility.yul\":13410:13414   */\n      dup4\n        /* \"#utility.yul\":13391:13420   */\n      tag_103\n      jump\t// in\n    tag_248:\n        /* \"#utility.yul\":13383:13420   */\n      swap2\n      pop\n        /* \"#utility.yul\":13453:13456   */\n      dup3\n        /* \"#utility.yul\":13450:13451   */\n      0x02\n        /* \"#utility.yul\":13446:13457   */\n      mul\n        /* \"#utility.yul\":13440:13444   */\n      dup3\n        /* \"#utility.yul\":13437:13458   */\n      or\n        /* \"#utility.yul\":13429:13458   */\n      swap1\n      pop\n        /* \"#utility.yul\":13169:13464   */\n      swap3\n      swap2\n      pop\n      pop\n      jump\t// out\n        /* \"#utility.yul\":13469:14864   */\n    tag_57:\n        /* \"#utility.yul\":13586:13623   */\n      tag_250\n        /* \"#utility.yul\":13619:13622   */\n      dup3\n        /* \"#utility.yul\":13586:13623   */\n      tag_74\n      jump\t// in\n    tag_250:\n        /* \"#utility.yul\":13688:13706   */\n      0xffffffffffffffff\n        /* \"#utility.yul\":13680:13686   */\n      dup2\n        /* \"#utility.yul\":13677:13707   */\n      gt\n        /* \"#utility.yul\":13674:13730   */\n      iszero\n      tag_251\n      jumpi\n        /* \"#utility.yul\":13710:13728   */\n      tag_252\n      tag_64\n      jump\t// in\n    tag_252:\n        /* \"#utility.yul\":13674:13730   */\n    tag_251:\n        /* \"#utility.yul\":13754:13792   */\n      tag_253\n        /* \"#utility.yul\":13786:13790   */\n      dup3\n        /* \"#utility.yul\":13780:13791   */\n      sload\n        /* \"#utility.yul\":13754:13792   */\n      tag_35\n      jump\t// in\n    tag_253:\n        /* \"#utility.yul\":13839:13906   */\n      tag_254\n        /* \"#utility.yul\":13899:13905   */\n      dup3\n        /* \"#utility.yul\":13891:13897   */\n      dup3\n        /* \"#utility.yul\":13885:13889   */\n      dup6\n        /* \"#utility.yul\":13839:13906   */\n      tag_101\n      jump\t// in\n    tag_254:\n        /* \"#utility.yul\":13933:13934   */\n      0x00\n        /* \"#utility.yul\":13957:13961   */\n      0x20\n        /* \"#utility.yul\":13944:13961   */\n      swap1\n      pop\n        /* \"#utility.yul\":13989:13991   */\n      0x1f\n        /* \"#utility.yul\":13981:13987   */\n      dup4\n        /* \"#utility.yul\":13978:13992   */\n      gt\n        /* \"#utility.yul\":14006:14007   */\n      0x01\n        /* \"#utility.yul\":14001:14619   */\n      dup2\n      eq\n      tag_256\n      jumpi\n        /* \"#utility.yul\":14663:14664   */\n      0x00\n        /* \"#utility.yul\":14680:14686   */\n      dup5\n        /* \"#utility.yul\":14677:14754   */\n      iszero\n      tag_257\n      jumpi\n        /* \"#utility.yul\":14729:14738   */\n      dup3\n        /* \"#utility.yul\":14724:14727   */\n      dup8\n        /* \"#utility.yul\":14720:14739   */\n      add\n        /* \"#utility.yul\":14714:14740   */\n      mload\n        /* \"#utility.yul\":14705:14740   */\n      swap1\n      pop\n        /* \"#utility.yul\":14677:14754   */\n    tag_257:\n        /* \"#utility.yul\":14780:14847   */\n      tag_258\n        /* \"#utility.yul\":14840:14846   */\n      dup6\n        /* \"#utility.yul\":14833:14838   */\n      dup3\n        /* \"#utility.yul\":14780:14847   */\n      tag_104\n      jump\t// in\n    tag_258:\n        /* \"#utility.yul\":14774:14778   */\n      dup7\n        /* \"#utility.yul\":14767:14848   */\n      sstore\n        /* \"#utility.yul\":14636:14858   */\n      pop\n        /* \"#utility.yul\":13971:14858   */\n      jump(tag_255)\n        /* \"#utility.yul\":14001:14619   */\n    tag_256:\n        /* \"#utility.yul\":14053:14057   */\n      0x1f\n        /* \"#utility.yul\":14049:14058   */\n      not\n        /* \"#utility.yul\":14041:14047   */\n      dup5\n        /* \"#utility.yul\":14037:14059   */\n      and\n        /* \"#utility.yul\":14087:14124   */\n      tag_259\n        /* \"#utility.yul\":14119:14123   */\n      dup7\n        /* \"#utility.yul\":14087:14124   */\n      tag_90\n      jump\t// in\n    tag_259:\n        /* \"#utility.yul\":14146:14147   */\n      0x00\n        /* \"#utility.yul\":14160:14368   */\n    tag_260:\n        /* \"#utility.yul\":14174:14181   */\n      dup3\n        /* \"#utility.yul\":14171:14172   */\n      dup2\n        /* \"#utility.yul\":14168:14182   */\n      lt\n        /* \"#utility.yul\":14160:14368   */\n      iszero\n      tag_262\n      jumpi\n        /* \"#utility.yul\":14253:14262   */\n      dup5\n        /* \"#utility.yul\":14248:14251   */\n      dup10\n        /* \"#utility.yul\":14244:14263   */\n      add\n        /* \"#utility.yul\":14238:14264   */\n      mload\n        /* \"#utility.yul\":14230:14236   */\n      dup3\n        /* \"#utility.yul\":14223:14265   */\n      sstore\n        /* \"#utility.yul\":14304:14305   */\n      0x01\n        /* \"#utility.yul\":14296:14302   */\n      dup3\n        /* \"#utility.yul\":14292:14306   */\n      add\n        /* \"#utility.yul\":14282:14306   */\n      swap2\n      pop\n        /* \"#utility.yul\":14351:14353   */\n      0x20\n        /* \"#utility.yul\":14340:14349   */\n      dup6\n        /* \"#utility.yul\":14336:14354   */\n      add\n        /* \"#utility.yul\":14323:14354   */\n      swap5\n      pop\n        /* \"#utility.yul\":14197:14201   */\n      0x20\n        /* \"#utility.yul\":14194:14195   */\n      dup2\n        /* \"#utility.yul\":14190:14202   */\n      add\n        /* \"#utility.yul\":14185:14202   */\n      swap1\n      pop\n        /* \"#utility.yul\":14160:14368   */\n      jump(tag_260)\n    tag_262:\n        /* \"#utility.yul\":14396:14402   */\n      dup7\n        /* \"#utility.yul\":14387:14394   */\n      dup4\n        /* \"#utility.yul\":14384:14403   */\n      lt\n        /* \"#utility.yul\":14381:14560   */\n      iszero\n      tag_263\n      jumpi\n        /* \"#utility.yul\":14454:14463   */\n      dup5\n        /* \"#utility.yul\":14449:14452   */\n      dup10\n        /* \"#utility.yul\":14445:14464   */\n      add\n        /* \"#utility.yul\":14439:14465   */\n      mload\n        /* \"#utility.yul\":14497:14545   */\n      tag_264\n        /* \"#utility.yul\":14539:14543   */\n      0x1f\n        /* \"#utility.yul\":14531:14537   */\n      dup10\n        /* \"#utility.yul\":14527:14544   */\n      and\n        /* \"#utility.yul\":14516:14525   */\n      dup3\n        /* \"#utility.yul\":14497:14545   */\n      tag_103\n      jump\t// in\n    tag_264:\n        /* \"#utility.yul\":14489:14495   */\n      dup4\n        /* \"#utility.yul\":14482:14546   */\n      sstore\n        /* \"#utility.yul\":14404:14560   */\n      pop\n        /* \"#utility.yul\":14381:14560   */\n    tag_263:\n        /* \"#utility.yul\":14606:14607   */\n      0x01\n        /* \"#utility.yul\":14602:14603   */\n      0x02\n        /* \"#utility.yul\":14594:14600   */\n      dup9\n        /* \"#utility.yul\":14590:14604   */\n      mul\n        /* \"#utility.yul\":14586:14608   */\n      add\n        /* \"#utility.yul\":14580:14584   */\n      dup9\n        /* \"#utility.yul\":14573:14609   */\n      sstore\n        /* \"#utility.yul\":14008:14619   */\n      pop\n      pop\n      pop\n        /* \"#utility.yul\":13971:14858   */\n    tag_255:\n      pop\n        /* \"#utility.yul\":13561:14864   */\n      pop\n      pop\n      pop\n        /* \"#utility.yul\":13469:14864   */\n      pop\n      pop\n      jump\t// out\n\n    auxdata: 0xa26469706673582212204cb1e3fc291e06af4a48a7887a9b9398715444b8b98ee84a6483f93d3294c0d164736f6c634300081e0033\n}\n",
				"bytecode": {
					"linkReferences": {},
					"object": "6080604052348015600e575f5ffd5b50610b338061001c5f395ff3fe608060405234801561000f575f5ffd5b5060043610610054575f3560e01c80628fa1b5146100585780631d0040b1146100885780632433b9dc146100b857806336555b85146100e85780633e1daba114610104575b5f5ffd5b610072600480360381019061006d91906104ff565b610120565b60405161007f91906105b9565b60405180910390f35b6100a2600480360381019061009d91906105d9565b6101e9565b6040516100af919061062f565b60405180910390f35b6100d260048036038101906100cd91906105d9565b610215565b6040516100df919061074b565b60405180910390f35b61010260048036038101906100fd91906104ff565b610307565b005b61011e6004803603810190610119919061076b565b61032d565b005b6001828051602081018201805184825260208301602085012081835280955050505050508181548110610151575f80fd5b905f5260205f20015f9150915050805461016a9061080e565b80601f01602080910402602001604051908101604052809291908181526020018280546101969061080e565b80156101e15780601f106101b8576101008083540402835291602001916101e1565b820191905f5260205f20905b8154815290600101906020018083116101c457829003601f168201915b505050505081565b5f818051602081018201805184825260208301602085012081835280955050505050505f915090505481565b60606001826040516102279190610878565b9081526020016040518091039020805480602002602001604051908101604052809291908181526020015f905b828210156102fc578382905f5260205f200180546102719061080e565b80601f016020809104026020016040519081016040528092919081815260200182805461029d9061080e565b80156102e85780601f106102bf576101008083540402835291602001916102e8565b820191905f5260205f20905b8154815290600101906020018083116102cb57829003601f168201915b505050505081526020019060010190610254565b505050509050919050565b805f836040516103179190610878565b9081526020016040518091039020819055505050565b60018260405161033d9190610878565b908152602001604051809103902081908060018154018082558091505060019003905f5260205f20015f90919091909150908161037a9190610a2e565b505050565b5f604051905090565b5f5ffd5b5f5ffd5b5f5ffd5b5f5ffd5b5f601f19601f8301169050919050565b7f4e487b71000000000000000000000000000000000000000000000000000000005f52604160045260245ffd5b6103de82610398565b810181811067ffffffffffffffff821117156103fd576103fc6103a8565b5b80604052505050565b5f61040f61037f565b905061041b82826103d5565b919050565b5f67ffffffffffffffff82111561043a576104396103a8565b5b61044382610398565b9050602081019050919050565b828183375f83830152505050565b5f61047061046b84610420565b610406565b90508281526020810184848401111561048c5761048b610394565b5b610497848285610450565b509392505050565b5f82601f8301126104b3576104b2610390565b5b81356104c384826020860161045e565b91505092915050565b5f819050919050565b6104de816104cc565b81146104e8575f5ffd5b50565b5f813590506104f9816104d5565b92915050565b5f5f6040838503121561051557610514610388565b5b5f83013567ffffffffffffffff8111156105325761053161038c565b5b61053e8582860161049f565b925050602061054f858286016104eb565b9150509250929050565b5f81519050919050565b5f82825260208201905092915050565b8281835e5f83830152505050565b5f61058b82610559565b6105958185610563565b93506105a5818560208601610573565b6105ae81610398565b840191505092915050565b5f6020820190508181035f8301526105d18184610581565b905092915050565b5f602082840312156105ee576105ed610388565b5b5f82013567ffffffffffffffff81111561060b5761060a61038c565b5b6106178482850161049f565b91505092915050565b610629816104cc565b82525050565b5f6020820190506106425f830184610620565b92915050565b5f81519050919050565b5f82825260208201905092915050565b5f819050602082019050919050565b5f82825260208201905092915050565b5f61068b82610559565b6106958185610671565b93506106a5818560208601610573565b6106ae81610398565b840191505092915050565b5f6106c48383610681565b905092915050565b5f602082019050919050565b5f6106e282610648565b6106ec8185610652565b9350836020820285016106fe85610662565b805f5b85811015610739578484038952815161071a85826106b9565b9450610725836106cc565b925060208a01995050600181019050610701565b50829750879550505050505092915050565b5f6020820190508181035f83015261076381846106d8565b905092915050565b5f5f6040838503121561078157610780610388565b5b5f83013567ffffffffffffffff81111561079e5761079d61038c565b5b6107aa8582860161049f565b925050602083013567ffffffffffffffff8111156107cb576107ca61038c565b5b6107d78582860161049f565b9150509250929050565b7f4e487b71000000000000000000000000000000000000000000000000000000005f52602260045260245ffd5b5f600282049050600182168061082557607f821691505b602082108103610838576108376107e1565b5b50919050565b5f81905092915050565b5f61085282610559565b61085c818561083e565b935061086c818560208601610573565b80840191505092915050565b5f6108838284610848565b915081905092915050565b5f819050815f5260205f209050919050565b5f6020601f8301049050919050565b5f82821b905092915050565b5f600883026108ea7fffffffffffffffffffffffffffffffffffffffffffffffffffffffffffffffff826108af565b6108f486836108af565b95508019841693508086168417925050509392505050565b5f819050919050565b5f61092f61092a610925846104cc565b61090c565b6104cc565b9050919050565b5f819050919050565b61094883610915565b61095c61095482610936565b8484546108bb565b825550505050565b5f5f905090565b610973610964565b61097e81848461093f565b505050565b5b818110156109a1576109965f8261096b565b600181019050610984565b5050565b601f8211156109e6576109b78161088e565b6109c0846108a0565b810160208510156109cf578190505b6109e36109db856108a0565b830182610983565b50505b505050565b5f82821c905092915050565b5f610a065f19846008026109eb565b1980831691505092915050565b5f610a1e83836109f7565b9150826002028217905092915050565b610a3782610559565b67ffffffffffffffff811115610a5057610a4f6103a8565b5b610a5a825461080e565b610a658282856109a5565b5f60209050601f831160018114610a96575f8415610a84578287015190505b610a8e8582610a13565b865550610af5565b601f198416610aa48661088e565b5f5b82811015610acb57848901518255600182019150602085019450602081019050610aa6565b86831015610ae85784890151610ae4601f8916826109f7565b8355505b6001600288020188555050505b50505050505056fea26469706673582212204cb1e3fc291e06af4a48a7887a9b9398715444b8b98ee84a6483f93d3294c0d164736f6c634300081e0033",
					"opcodes": "PUSH1 0x80 PUSH1 0x40 MSTORE CALLVALUE DUP1 ISZERO PUSH1 0xE JUMPI PUSH0 PUSH0 REVERT JUMPDEST POP PUSH2 0xB33 DUP1 PUSH2 0x1C PUSH0 CODECOPY PUSH0 RETURN INVALID PUSH1 0x80 PUSH1 0x40 MSTORE CALLVALUE DUP1 ISZERO PUSH2 0xF JUMPI PUSH0 PUSH0 REVERT JUMPDEST POP PUSH1 0x4 CALLDATASIZE LT PUSH2 0x54 JUMPI PUSH0 CALLDATALOAD PUSH1 0xE0 SHR DUP1 PUSH3 0x8FA1B5 EQ PUSH2 0x58 JUMPI DUP1 PUSH4 0x1D0040B1 EQ PUSH2 0x88 JUMPI DUP1 PUSH4 0x2433B9DC EQ PUSH2 0xB8 JUMPI DUP1 PUSH4 0x36555B85 EQ PUSH2 0xE8 JUMPI DUP1 PUSH4 0x3E1DABA1 EQ PUSH2 0x104 JUMPI JUMPDEST PUSH0 PUSH0 REVERT JUMPDEST PUSH2 0x72 PUSH1 0x4 DUP1 CALLDATASIZE SUB DUP2 ADD SWAP1 PUSH2 0x6D SWAP2 SWAP1 PUSH2 0x4FF JUMP JUMPDEST PUSH2 0x120 JUMP JUMPDEST PUSH1 0x40 MLOAD PUSH2 0x7F SWAP2 SWAP1 PUSH2 0x5B9 JUMP JUMPDEST PUSH1 0x40 MLOAD DUP1 SWAP2 SUB SWAP1 RETURN JUMPDEST PUSH2 0xA2 PUSH1 0x4 DUP1 CALLDATASIZE SUB DUP2 ADD SWAP1 PUSH2 0x9D SWAP2 SWAP1 PUSH2 0x5D9 JUMP JUMPDEST PUSH2 0x1E9 JUMP JUMPDEST PUSH1 0x40 MLOAD PUSH2 0xAF SWAP2 SWAP1 PUSH2 0x62F JUMP JUMPDEST PUSH1 0x40 MLOAD DUP1 SWAP2 SUB SWAP1 RETURN JUMPDEST PUSH2 0xD2 PUSH1 0x4 DUP1 CALLDATASIZE SUB DUP2 ADD SWAP1 PUSH2 0xCD SWAP2 SWAP1 PUSH2 0x5D9 JUMP JUMPDEST PUSH2 0x215 JUMP JUMPDEST PUSH1 0x40 MLOAD PUSH2 0xDF SWAP2 SWAP1 PUSH2 0x74B JUMP JUMPDEST PUSH1 0x40 MLOAD DUP1 SWAP2 SUB SWAP1 RETURN JUMPDEST PUSH2 0x102 PUSH1 0x4 DUP1 CALLDATASIZE SUB DUP2 ADD SWAP1 PUSH2 0xFD SWAP2 SWAP1 PUSH2 0x4FF JUMP JUMPDEST PUSH2 0x307 JUMP JUMPDEST STOP JUMPDEST PUSH2 0x11E PUSH1 0x4 DUP1 CALLDATASIZE SUB DUP2 ADD SWAP1 PUSH2 0x119 SWAP2 SWAP1 PUSH2 0x76B JUMP JUMPDEST PUSH2 0x32D JUMP JUMPDEST STOP JUMPDEST PUSH1 0x1 DUP3 DUP1 MLOAD PUSH1 0x20 DUP2 ADD DUP3 ADD DUP1 MLOAD DUP5 DUP3 MSTORE PUSH1 0x20 DUP4 ADD PUSH1 0x20 DUP6 ADD KECCAK256 DUP2 DUP4 MSTORE DUP1 SWAP6 POP POP POP POP POP POP DUP2 DUP2 SLOAD DUP2 LT PUSH2 0x151 JUMPI PUSH0 DUP1 REVERT JUMPDEST SWAP1 PUSH0 MSTORE PUSH1 0x20 PUSH0 KECCAK256 ADD PUSH0 SWAP2 POP SWAP2 POP POP DUP1 SLOAD PUSH2 0x16A SWAP1 PUSH2 0x80E JUMP JUMPDEST DUP1 PUSH1 0x1F ADD PUSH1 0x20 DUP1 SWAP2 DIV MUL PUSH1 0x20 ADD PUSH1 0x40 MLOAD SWAP1 DUP2 ADD PUSH1 0x40 MSTORE DUP1 SWAP3 SWAP2 SWAP1 DUP2 DUP2 MSTORE PUSH1 0x20 ADD DUP3 DUP1 SLOAD PUSH2 0x196 SWAP1 PUSH2 0x80E JUMP JUMPDEST DUP1 ISZERO PUSH2 0x1E1 JUMPI DUP1 PUSH1 0x1F LT PUSH2 0x1B8 JUMPI PUSH2 0x100 DUP1 DUP4 SLOAD DIV MUL DUP4 MSTORE SWAP2 PUSH1 0x20 ADD SWAP2 PUSH2 0x1E1 JUMP JUMPDEST DUP3 ADD SWAP2 SWAP1 PUSH0 MSTORE PUSH1 0x20 PUSH0 KECCAK256 SWAP1 JUMPDEST DUP2 SLOAD DUP2 MSTORE SWAP1 PUSH1 0x1 ADD SWAP1 PUSH1 0x20 ADD DUP1 DUP4 GT PUSH2 0x1C4 JUMPI DUP3 SWAP1 SUB PUSH1 0x1F AND DUP3 ADD SWAP2 JUMPDEST POP POP POP POP POP DUP2 JUMP JUMPDEST PUSH0 DUP2 DUP1 MLOAD PUSH1 0x20 DUP2 ADD DUP3 ADD DUP1 MLOAD DUP5 DUP3 MSTORE PUSH1 0x20 DUP4 ADD PUSH1 0x20 DUP6 ADD KECCAK256 DUP2 DUP4 MSTORE DUP1 SWAP6 POP POP POP POP POP POP PUSH0 SWAP2 POP SWAP1 POP SLOAD DUP2 JUMP JUMPDEST PUSH1 0x60 PUSH1 0x1 DUP3 PUSH1 0x40 MLOAD PUSH2 0x227 SWAP2 SWAP1 PUSH2 0x878 JUMP JUMPDEST SWAP1 DUP2 MSTORE PUSH1 0x20 ADD PUSH1 0x40 MLOAD DUP1 SWAP2 SUB SWAP1 KECCAK256 DUP1 SLOAD DUP1 PUSH1 0x20 MUL PUSH1 0x20 ADD PUSH1 0x40 MLOAD SWAP1 DUP2 ADD PUSH1 0x40 MSTORE DUP1 SWAP3 SWAP2 SWAP1 DUP2 DUP2 MSTORE PUSH1 0x20 ADD PUSH0 SWAP1 JUMPDEST DUP3 DUP3 LT ISZERO PUSH2 0x2FC JUMPI DUP4 DUP3 SWAP1 PUSH0 MSTORE PUSH1 0x20 PUSH0 KECCAK256 ADD DUP1 SLOAD PUSH2 0x271 SWAP1 PUSH2 0x80E JUMP JUMPDEST DUP1 PUSH1 0x1F ADD PUSH1 0x20 DUP1 SWAP2 DIV MUL PUSH1 0x20 ADD PUSH1 0x40 MLOAD SWAP1 DUP2 ADD PUSH1 0x40 MSTORE DUP1 SWAP3 SWAP2 SWAP1 DUP2 DUP2 MSTORE PUSH1 0x20 ADD DUP3 DUP1 SLOAD PUSH2 0x29D SWAP1 PUSH2 0x80E JUMP JUMPDEST DUP1 ISZERO PUSH2 0x2E8 JUMPI DUP1 PUSH1 0x1F LT PUSH2 0x2BF JUMPI PUSH2 0x100 DUP1 DUP4 SLOAD DIV MUL DUP4 MSTORE SWAP2 PUSH1 0x20 ADD SWAP2 PUSH2 0x2E8 JUMP JUMPDEST DUP3 ADD SWAP2 SWAP1 PUSH0 MSTORE PUSH1 0x20 PUSH0 KECCAK256 SWAP1 JUMPDEST DUP2 SLOAD DUP2 MSTORE SWAP1 PUSH1 0x1 ADD SWAP1 PUSH1 0x20 ADD DUP1 DUP4 GT PUSH2 0x2CB JUMPI DUP3 SWAP1 SUB PUSH1 0x1F AND DUP3 ADD SWAP2 JUMPDEST POP POP POP POP POP DUP2 MSTORE PUSH1 0x20 ADD SWAP1 PUSH1 0x1 ADD SWAP1 PUSH2 0x254 JUMP JUMPDEST POP POP POP POP SWAP1 POP SWAP2 SWAP1 POP JUMP JUMPDEST DUP1 PUSH0 DUP4 PUSH1 0x40 MLOAD PUSH2 0x317 SWAP2 SWAP1 PUSH2 0x878 JUMP JUMPDEST SWAP1 DUP2 MSTORE PUSH1 0x20 ADD PUSH1 0x40 MLOAD DUP1 SWAP2 SUB SWAP1 KECCAK256 DUP2 SWAP1 SSTORE POP POP POP JUMP JUMPDEST PUSH1 0x1 DUP3 PUSH1 0x40 MLOAD PUSH2 0x33D SWAP2 SWAP1 PUSH2 0x878 JUMP JUMPDEST SWAP1 DUP2 MSTORE PUSH1 0x20 ADD PUSH1 0x40 MLOAD DUP1 SWAP2 SUB SWAP1 KECCAK256 DUP2 SWAP1 DUP1 PUSH1 0x1 DUP2 SLOAD ADD DUP1 DUP3 SSTORE DUP1 SWAP2 POP POP PUSH1 0x1 SWAP1 SUB SWAP1 PUSH0 MSTORE PUSH1 0x20 PUSH0 KECCAK256 ADD PUSH0 SWAP1 SWAP2 SWAP1 SWAP2 SWAP1 SWAP2 POP SWAP1 DUP2 PUSH2 0x37A SWAP2 SWAP1 PUSH2 0xA2E JUMP JUMPDEST POP POP POP JUMP JUMPDEST PUSH0 PUSH1 0x40 MLOAD SWAP1 POP SWAP1 JUMP JUMPDEST PUSH0 PUSH0 REVERT JUMPDEST PUSH0 PUSH0 REVERT JUMPDEST PUSH0 PUSH0 REVERT JUMPDEST PUSH0 PUSH0 REVERT JUMPDEST PUSH0 PUSH1 0x1F NOT PUSH1 0x1F DUP4 ADD AND SWAP1 POP SWAP2 SWAP1 POP JUMP JUMPDEST PUSH32 0x4E487B7100000000000000000000000000000000000000000000000000000000 PUSH0 MSTORE PUSH1 0x41 PUSH1 0x4 MSTORE PUSH1 0x24 PUSH0 REVERT JUMPDEST PUSH2 0x3DE DUP3 PUSH2 0x398 JUMP JUMPDEST DUP2 ADD DUP2 DUP2 LT PUSH8 0xFFFFFFFFFFFFFFFF DUP3 GT OR ISZERO PUSH2 0x3FD JUMPI PUSH2 0x3FC PUSH2 0x3A8 JUMP JUMPDEST JUMPDEST DUP1 PUSH1 0x40 MSTORE POP POP POP JUMP JUMPDEST PUSH0 PUSH2 0x40F PUSH2 0x37F JUMP JUMPDEST SWAP1 POP PUSH2 0x41B DUP3 DUP3 PUSH2 0x3D5 JUMP JUMPDEST SWAP2 SWAP1 POP JUMP JUMPDEST PUSH0 PUSH8 0xFFFFFFFFFFFFFFFF DUP3 GT ISZERO PUSH2 0x43A JUMPI PUSH2 0x439 PUSH2 0x3A8 JUMP JUMPDEST JUMPDEST PUSH2 0x443 DUP3 PUSH2 0x398 JUMP JUMPDEST SWAP1 POP PUSH1 0x20 DUP2 ADD SWAP1 POP SWAP2 SWAP1 POP JUMP JUMPDEST DUP3 DUP2 DUP4 CALLDATACOPY PUSH0 DUP4 DUP4 ADD MSTORE POP POP POP JUMP JUMPDEST PUSH0 PUSH2 0x470 PUSH2 0x46B DUP5 PUSH2 0x420 JUMP JUMPDEST PUSH2 0x406 JUMP JUMPDEST SWAP1 POP DUP3 DUP2 MSTORE PUSH1 0x20 DUP2 ADD DUP5 DUP5 DUP5 ADD GT ISZERO PUSH2 0x48C JUMPI PUSH2 0x48B PUSH2 0x394 JUMP JUMPDEST JUMPDEST PUSH2 0x497 DUP5 DUP3 DUP6 PUSH2 0x450 JUMP JUMPDEST POP SWAP4 SWAP3 POP POP POP JUMP JUMPDEST PUSH0 DUP3 PUSH1 0x1F DUP4 ADD SLT PUSH2 0x4B3 JUMPI PUSH2 0x4B2 PUSH2 0x390 JUMP JUMPDEST JUMPDEST DUP2 CALLDATALOAD PUSH2 0x4C3 DUP5 DUP3 PUSH1 0x20 DUP7 ADD PUSH2 0x45E JUMP JUMPDEST SWAP2 POP POP SWAP3 SWAP2 POP POP JUMP JUMPDEST PUSH0 DUP2 SWAP1 POP SWAP2 SWAP1 POP JUMP JUMPDEST PUSH2 0x4DE DUP2 PUSH2 0x4CC JUMP JUMPDEST DUP2 EQ PUSH2 0x4E8 JUMPI PUSH0 PUSH0 REVERT JUMPDEST POP JUMP JUMPDEST PUSH0 DUP2 CALLDATALOAD SWAP1 POP PUSH2 0x4F9 DUP2 PUSH2 0x4D5 JUMP JUMPDEST SWAP3 SWAP2 POP POP JUMP JUMPDEST PUSH0 PUSH0 PUSH1 0x40 DUP4 DUP6 SUB SLT ISZERO PUSH2 0x515 JUMPI PUSH2 0x514 PUSH2 0x388 JUMP JUMPDEST JUMPDEST PUSH0 DUP4 ADD CALLDATALOAD PUSH8 0xFFFFFFFFFFFFFFFF DUP2 GT ISZERO PUSH2 0x532 JUMPI PUSH2 0x531 PUSH2 0x38C JUMP JUMPDEST JUMPDEST PUSH2 0x53E DUP6 DUP3 DUP7 ADD PUSH2 0x49F JUMP JUMPDEST SWAP3 POP POP PUSH1 0x20 PUSH2 0x54F DUP6 DUP3 DUP7 ADD PUSH2 0x4EB JUMP JUMPDEST SWAP2 POP POP SWAP3 POP SWAP3 SWAP1 POP JUMP JUMPDEST PUSH0 DUP2 MLOAD SWAP1 POP SWAP2 SWAP1 POP JUMP JUMPDEST PUSH0 DUP3 DUP3 MSTORE PUSH1 0x20 DUP3 ADD SWAP1 POP SWAP3 SWAP2 POP POP JUMP JUMPDEST DUP3 DUP2 DUP4 MCOPY PUSH0 DUP4 DUP4 ADD MSTORE POP POP POP JUMP JUMPDEST PUSH0 PUSH2 0x58B DUP3 PUSH2 0x559 JUMP JUMPDEST PUSH2 0x595 DUP2 DUP6 PUSH2 0x563 JUMP JUMPDEST SWAP4 POP PUSH2 0x5A5 DUP2 DUP6 PUSH1 0x20 DUP7 ADD PUSH2 0x573 JUMP JUMPDEST PUSH2 0x5AE DUP2 PUSH2 0x398 JUMP JUMPDEST DUP5 ADD SWAP2 POP POP SWAP3 SWAP2 POP POP JUMP JUMPDEST PUSH0 PUSH1 0x20 DUP3 ADD SWAP1 POP DUP2 DUP2 SUB PUSH0 DUP4 ADD MSTORE PUSH2 0x5D1 DUP2 DUP5 PUSH2 0x581 JUMP JUMPDEST SWAP1 POP SWAP3 SWAP2 POP POP JUMP JUMPDEST PUSH0 PUSH1 0x20 DUP3 DUP5 SUB SLT ISZERO PUSH2 0x5EE JUMPI PUSH2 0x5ED PUSH2 0x388 JUMP JUMPDEST JUMPDEST PUSH0 DUP3 ADD CALLDATALOAD PUSH8 0xFFFFFFFFFFFFFFFF DUP2 GT ISZERO PUSH2 0x60B JUMPI PUSH2 0x60A PUSH2 0x38C JUMP JUMPDEST JUMPDEST PUSH2 0x617 DUP5 DUP3 DUP6 ADD PUSH2 0x49F JUMP JUMPDEST SWAP2 POP POP SWAP3 SWAP2 POP POP JUMP JUMPDEST PUSH2 0x629 DUP2 PUSH2 0x4CC JUMP JUMPDEST DUP3 MSTORE POP POP JUMP JUMPDEST PUSH0 PUSH1 0x20 DUP3 ADD SWAP1 POP PUSH2 0x642 PUSH0 DUP4 ADD DUP5 PUSH2 0x620 JUMP JUMPDEST SWAP3 SWAP2 POP POP JUMP JUMPDEST PUSH0 DUP2 MLOAD SWAP1 POP SWAP2 SWAP1 POP JUMP JUMPDEST PUSH0 DUP3 DUP3 MSTORE PUSH1 0x20 DUP3 ADD SWAP1 POP SWAP3 SWAP2 POP POP JUMP JUMPDEST PUSH0 DUP2 SWAP1 POP PUSH1 0x20 DUP3 ADD SWAP1 POP SWAP2 SWAP1 POP JUMP JUMPDEST PUSH0 DUP3 DUP3 MSTORE PUSH1 0x20 DUP3 ADD SWAP1 POP SWAP3 SWAP2 POP POP JUMP JUMPDEST PUSH0 PUSH2 0x68B DUP3 PUSH2 0x559 JUMP JUMPDEST PUSH2 0x695 DUP2 DUP6 PUSH2 0x671 JUMP JUMPDEST SWAP4 POP PUSH2 0x6A5 DUP2 DUP6 PUSH1 0x20 DUP7 ADD PUSH2 0x573 JUMP JUMPDEST PUSH2 0x6AE DUP2 PUSH2 0x398 JUMP JUMPDEST DUP5 ADD SWAP2 POP POP SWAP3 SWAP2 POP POP JUMP JUMPDEST PUSH0 PUSH2 0x6C4 DUP4 DUP4 PUSH2 0x681 JUMP JUMPDEST SWAP1 POP SWAP3 SWAP2 POP POP JUMP JUMPDEST PUSH0 PUSH1 0x20 DUP3 ADD SWAP1 POP SWAP2 SWAP1 POP JUMP JUMPDEST PUSH0 PUSH2 0x6E2 DUP3 PUSH2 0x648 JUMP JUMPDEST PUSH2 0x6EC DUP2 DUP6 PUSH2 0x652 JUMP JUMPDEST SWAP4 POP DUP4 PUSH1 0x20 DUP3 MUL DUP6 ADD PUSH2 0x6FE DUP6 PUSH2 0x662 JUMP JUMPDEST DUP1 PUSH0 JUMPDEST DUP6 DUP2 LT ISZERO PUSH2 0x739 JUMPI DUP5 DUP5 SUB DUP10 MSTORE DUP2 MLOAD PUSH2 0x71A DUP6 DUP3 PUSH2 0x6B9 JUMP JUMPDEST SWAP5 POP PUSH2 0x725 DUP4 PUSH2 0x6CC JUMP JUMPDEST SWAP3 POP PUSH1 0x20 DUP11 ADD SWAP10 POP POP PUSH1 0x1 DUP2 ADD SWAP1 POP PUSH2 0x701 JUMP JUMPDEST POP DUP3 SWAP8 POP DUP8 SWAP6 POP POP POP POP POP POP SWAP3 SWAP2 POP POP JUMP JUMPDEST PUSH0 PUSH1 0x20 DUP3 ADD SWAP1 POP DUP2 DUP2 SUB PUSH0 DUP4 ADD MSTORE PUSH2 0x763 DUP2 DUP5 PUSH2 0x6D8 JUMP JUMPDEST SWAP1 POP SWAP3 SWAP2 POP POP JUMP JUMPDEST PUSH0 PUSH0 PUSH1 0x40 DUP4 DUP6 SUB SLT ISZERO PUSH2 0x781 JUMPI PUSH2 0x780 PUSH2 0x388 JUMP JUMPDEST JUMPDEST PUSH0 DUP4 ADD CALLDATALOAD PUSH8 0xFFFFFFFFFFFFFFFF DUP2 GT ISZERO PUSH2 0x79E JUMPI PUSH2 0x79D PUSH2 0x38C JUMP JUMPDEST JUMPDEST PUSH2 0x7AA DUP6 DUP3 DUP7 ADD PUSH2 0x49F JUMP JUMPDEST SWAP3 POP POP PUSH1 0x20 DUP4 ADD CALLDATALOAD PUSH8 0xFFFFFFFFFFFFFFFF DUP2 GT ISZERO PUSH2 0x7CB JUMPI PUSH2 0x7CA PUSH2 0x38C JUMP JUMPDEST JUMPDEST PUSH2 0x7D7 DUP6 DUP3 DUP7 ADD PUSH2 0x49F JUMP JUMPDEST SWAP2 POP POP SWAP3 POP SWAP3 SWAP1 POP JUMP JUMPDEST PUSH32 0x4E487B7100000000000000000000000000000000000000000000000000000000 PUSH0 MSTORE PUSH1 0x22 PUSH1 0x4 MSTORE PUSH1 0x24 PUSH0 REVERT JUMPDEST PUSH0 PUSH1 0x2 DUP3 DIV SWAP1 POP PUSH1 0x1 DUP3 AND DUP1 PUSH2 0x825 JUMPI PUSH1 0x7F DUP3 AND SWAP2 POP JUMPDEST PUSH1 0x20 DUP3 LT DUP2 SUB PUSH2 0x838 JUMPI PUSH2 0x837 PUSH2 0x7E1 JUMP JUMPDEST JUMPDEST POP SWAP2 SWAP1 POP JUMP JUMPDEST PUSH0 DUP2 SWAP1 POP SWAP3 SWAP2 POP POP JUMP JUMPDEST PUSH0 PUSH2 0x852 DUP3 PUSH2 0x559 JUMP JUMPDEST PUSH2 0x85C DUP2 DUP6 PUSH2 0x83E JUMP JUMPDEST SWAP4 POP PUSH2 0x86C DUP2 DUP6 PUSH1 0x20 DUP7 ADD PUSH2 0x573 JUMP JUMPDEST DUP1 DUP5 ADD SWAP2 POP POP SWAP3 SWAP2 POP POP JUMP JUMPDEST PUSH0 PUSH2 0x883 DUP3 DUP5 PUSH2 0x848 JUMP JUMPDEST SWAP2 POP DUP2 SWAP1 POP SWAP3 SWAP2 POP POP JUMP JUMPDEST PUSH0 DUP2 SWAP1 POP DUP2 PUSH0 MSTORE PUSH1 0x20 PUSH0 KECCAK256 SWAP1 POP SWAP2 SWAP1 POP JUMP JUMPDEST PUSH0 PUSH1 0x20 PUSH1 0x1F DUP4 ADD DIV SWAP1 POP SWAP2 SWAP1 POP JUMP JUMPDEST PUSH0 DUP3 DUP3 SHL SWAP1 POP SWAP3 SWAP2 POP POP JUMP JUMPDEST PUSH0 PUSH1 0x8 DUP4 MUL PUSH2 0x8EA PUSH32 0xFFFFFFFFFFFFFFFFFFFFFFFFFFFFFFFFFFFFFFFFFFFFFFFFFFFFFFFFFFFFFFFF DUP3 PUSH2 0x8AF JUMP JUMPDEST PUSH2 0x8F4 DUP7 DUP4 PUSH2 0x8AF JUMP JUMPDEST SWAP6 POP DUP1 NOT DUP5 AND SWAP4 POP DUP1 DUP7 AND DUP5 OR SWAP3 POP POP POP SWAP4 SWAP3 POP POP POP JUMP JUMPDEST PUSH0 DUP2 SWAP1 POP SWAP2 SWAP1 POP JUMP JUMPDEST PUSH0 PUSH2 0x92F PUSH2 0x92A PUSH2 0x925 DUP5 PUSH2 0x4CC JUMP JUMPDEST PUSH2 0x90C JUMP JUMPDEST PUSH2 0x4CC JUMP JUMPDEST SWAP1 POP SWAP2 SWAP1 POP JUMP JUMPDEST PUSH0 DUP2 SWAP1 POP SWAP2 SWAP1 POP JUMP JUMPDEST PUSH2 0x948 DUP4 PUSH2 0x915 JUMP JUMPDEST PUSH2 0x95C PUSH2 0x954 DUP3 PUSH2 0x936 JUMP JUMPDEST DUP5 DUP5 SLOAD PUSH2 0x8BB JUMP JUMPDEST DUP3 SSTORE POP POP POP POP JUMP JUMPDEST PUSH0 PUSH0 SWAP1 POP SWAP1 JUMP JUMPDEST PUSH2 0x973 PUSH2 0x964 JUMP JUMPDEST PUSH2 0x97E DUP2 DUP5 DUP5 PUSH2 0x93F JUMP JUMPDEST POP POP POP JUMP JUMPDEST JUMPDEST DUP2 DUP2 LT ISZERO PUSH2 0x9A1 JUMPI PUSH2 0x996 PUSH0 DUP3 PUSH2 0x96B JUMP JUMPDEST PUSH1 0x1 DUP2 ADD SWAP1 POP PUSH2 0x984 JUMP JUMPDEST POP POP JUMP JUMPDEST PUSH1 0x1F DUP3 GT ISZERO PUSH2 0x9E6 JUMPI PUSH2 0x9B7 DUP2 PUSH2 0x88E JUMP JUMPDEST PUSH2 0x9C0 DUP5 PUSH2 0x8A0 JUMP JUMPDEST DUP2 ADD PUSH1 0x20 DUP6 LT ISZERO PUSH2 0x9CF JUMPI DUP2 SWAP1 POP JUMPDEST PUSH2 0x9E3 PUSH2 0x9DB DUP6 PUSH2 0x8A0 JUMP JUMPDEST DUP4 ADD DUP3 PUSH2 0x983 JUMP JUMPDEST POP POP JUMPDEST POP POP POP JUMP JUMPDEST PUSH0 DUP3 DUP3 SHR SWAP1 POP SWAP3 SWAP2 POP POP JUMP JUMPDEST PUSH0 PUSH2 0xA06 PUSH0 NOT DUP5 PUSH1 0x8 MUL PUSH2 0x9EB JUMP JUMPDEST NOT DUP1 DUP4 AND SWAP2 POP POP SWAP3 SWAP2 POP POP JUMP JUMPDEST PUSH0 PUSH2 0xA1E DUP4 DUP4 PUSH2 0x9F7 JUMP JUMPDEST SWAP2 POP DUP3 PUSH1 0x2 MUL DUP3 OR SWAP1 POP SWAP3 SWAP2 POP POP JUMP JUMPDEST PUSH2 0xA37 DUP3 PUSH2 0x559 JUMP JUMPDEST PUSH8 0xFFFFFFFFFFFFFFFF DUP2 GT ISZERO PUSH2 0xA50 JUMPI PUSH2 0xA4F PUSH2 0x3A8 JUMP JUMPDEST JUMPDEST PUSH2 0xA5A DUP3 SLOAD PUSH2 0x80E JUMP JUMPDEST PUSH2 0xA65 DUP3 DUP3 DUP6 PUSH2 0x9A5 JUMP JUMPDEST PUSH0 PUSH1 0x20 SWAP1 POP PUSH1 0x1F DUP4 GT PUSH1 0x1 DUP2 EQ PUSH2 0xA96 JUMPI PUSH0 DUP5 ISZERO PUSH2 0xA84 JUMPI DUP3 DUP8 ADD MLOAD SWAP1 POP JUMPDEST PUSH2 0xA8E DUP6 DUP3 PUSH2 0xA13 JUMP JUMPDEST DUP7 SSTORE POP PUSH2 0xAF5 JUMP JUMPDEST PUSH1 0x1F NOT DUP5 AND PUSH2 0xAA4 DUP7 PUSH2 0x88E JUMP JUMPDEST PUSH0 JUMPDEST DUP3 DUP2 LT ISZERO PUSH2 0xACB JUMPI DUP5 DUP10 ADD MLOAD DUP3 SSTORE PUSH1 0x1 DUP3 ADD SWAP2 POP PUSH1 0x20 DUP6 ADD SWAP5 POP PUSH1 0x20 DUP2 ADD SWAP1 POP PUSH2 0xAA6 JUMP JUMPDEST DUP7 DUP4 LT ISZERO PUSH2 0xAE8 JUMPI DUP5 DUP10 ADD MLOAD PUSH2 0xAE4 PUSH1 0x1F DUP10 AND DUP3 PUSH2 0x9F7 JUMP JUMPDEST DUP4 SSTORE POP JUMPDEST PUSH1 0x1 PUSH1 0x2 DUP9 MUL ADD DUP9 SSTORE POP POP POP JUMPDEST POP POP POP POP POP POP JUMP INVALID LOG2 PUSH5 0x6970667358 0x22 SLT KECCAK256 0x4C 0xB1 CALLF 0xFC29 0x1E MOD 0xAF BLOBBASEFEE BASEFEE 0xA7 DUP9 PUSH27 0x9B9398715444B8B98EE84A6483F93D3294C0D164736F6C63430008 0x1E STOP CALLER "
				},
				"gasEstimates": {
					"creation": {
						"codeDepositCost": "573400",
						"executionCost": "604",
						"totalCost": "574004"
					},
					"external": {
						"add(string,uint256)": "infinite",
						"addMainan(string,string)": "infinite",
						"koleksiMainan(string,uint256)": "infinite",
						"saldo(string)": "infinite",
						"showMainans(string)": "infinite"
					}
				},
				"methodIdentifiers": {
					"add(string,uint256)": "36555b85",
					"addMainan(string,string)": "3e1daba1",
					"koleksiMainan(string,uint256)": "008fa1b5",
					"saldo(string)": "1d0040b1",
					"showMainans(string)": "2433b9dc"
				}
			},
			"storageLayout": {
				"storage": [
					{
						"astId": 5,
						"contract": "contracts/belajar/mapping.sol:Mapping",
						"label": "saldo",
						"offset": 0,
						"slot": "0",
						"type": "t_mapping(t_string_memory_ptr,t_uint256)"
					},
					{
						"astId": 24,
						"contract": "contracts/belajar/mapping.sol:Mapping",
						"label": "koleksiMainan",
						"offset": 0,
						"slot": "1",
						"type": "t_mapping(t_string_memory_ptr,t_array(t_string_storage)dyn_storage)"
					}
				],
				"types": {
					"t_array(t_string_storage)dyn_storage": {
						"base": "t_string_storage",
						"encoding": "dynamic_array",
						"label": "string[]",
						"numberOfBytes": "32"
					},
					"t_mapping(t_string_memory_ptr,t_array(t_string_storage)dyn_storage)": {
						"encoding": "mapping",
						"key": "t_string_memory_ptr",
						"label": "mapping(string => string[])",
						"numberOfBytes": "32",
						"value": "t_array(t_string_storage)dyn_storage"
					},
					"t_mapping(t_string_memory_ptr,t_uint256)": {
						"encoding": "mapping",
						"key": "t_string_memory_ptr",
						"label": "mapping(string => uint256)",
						"numberOfBytes": "32",
						"value": "t_uint256"
					},
					"t_string_memory_ptr": {
						"encoding": "bytes",
						"label": "string",
						"numberOfBytes": "32"
					},
					"t_string_storage": {
						"encoding": "bytes",
						"label": "string",
						"numberOfBytes": "32"
					},
					"t_uint256": {
						"encoding": "inplace",
						"label": "uint256",
						"numberOfBytes": "32"
					}
				}
			},
			"userdoc": {
				"kind": "user",
				"methods": {},
				"version": 1
			}
		}
	}
}