{
	"contracts/belajar/structArrayFunction.sol": {
		"belajarStruct": {
			"abi": [
				{
					"inputs": [
						{
							"internalType": "uint256",
							"name": "",
							"type": "uint256"
						}
					],
					"name": "heroes",
					"outputs": [
						{
							"internalType": "string",
							"name": "nama",
							"type": "string"
						},
						{
							"internalType": "uint256",
							"name": "umur",
							"type": "uint256"
						},
						{
							"internalType": "string",
							"name": "makananFavorit",
							"type": "string"
						}
					],
					"stateMutability": "view",
					"type": "function"
				},
				{
					"inputs": [
						{
							"internalType": "uint256",
							"name": "",
							"type": "uint256"
						}
					],
					"name": "humans",
					"outputs": [
						{
							"internalType": "string",
							"name": "",
							"type": "string"
						}
					],
					"stateMutability": "view",
					"type": "function"
				},
				{
					"inputs": [],
					"name": "tambahOrang",
					"outputs": [],
					"stateMutability": "nonpayable",
					"type": "function"
				}
			],
			"devdoc": {
				"kind": "dev",
				"methods": {},
				"version": 1
			},
			"evm": {
				"assembly": "    /* \"contracts/belajar/structArrayFunction.sol\":60:524  contract belajarStruct {... */\n  mstore(0x40, 0x80)\n    /* \"contracts/belajar/structArrayFunction.sol\":310:359  string[] public humans = [\"Nanda\",\"Riyan\",\"Faiq\"] */\n  mload(0x40)\n  dup1\n  0x60\n  add\n  0x40\n  mstore\n  dup1\n  mload(0x40)\n  dup1\n  0x40\n  add\n  0x40\n  mstore\n  dup1\n  0x05\n  dup2\n  mstore\n  0x20\n  add\n  0x4e616e6461000000000000000000000000000000000000000000000000000000\n  dup2\n  mstore\n  pop\n  dup2\n  mstore\n  0x20\n  add\n  mload(0x40)\n  dup1\n  0x40\n  add\n  0x40\n  mstore\n  dup1\n  0x05\n  dup2\n  mstore\n  0x20\n  add\n  0x526979616e000000000000000000000000000000000000000000000000000000\n  dup2\n  mstore\n  pop\n  dup2\n  mstore\n  0x20\n  add\n  mload(0x40)\n  dup1\n  0x40\n  add\n  0x40\n  mstore\n  dup1\n  0x04\n  dup2\n  mstore\n  0x20\n  add\n  0x4661697100000000000000000000000000000000000000000000000000000000\n  dup2\n  mstore\n  pop\n  dup2\n  mstore\n  pop\n  0x00\n  swap1\n  0x03\n  tag_1\n  swap3\n  swap2\n  swap1\n  tag_2\n  jump\t// in\ntag_1:\n  pop\n    /* \"contracts/belajar/structArrayFunction.sol\":60:524  contract belajarStruct {... */\n  callvalue\n  dup1\n  iszero\n  tag_3\n  jumpi\n  revert(0x00, 0x00)\ntag_3:\n  pop\n  jump(tag_4)\ntag_2:\n  dup3\n  dup1\n  sload\n  dup3\n  dup3\n  sstore\n  swap1\n  0x00\n  mstore\n  keccak256(0x00, 0x20)\n  swap1\n  dup2\n  add\n  swap3\n  dup3\n  iszero\n  tag_5\n  jumpi\n  swap2\n  0x20\n  mul\n  dup3\n  add\ntag_6:\n  dup3\n  dup2\n  gt\n  iszero\n  tag_7\n  jumpi\n  dup3\n  mload\n  dup3\n  swap1\n  dup2\n  tag_8\n  swap2\n  swap1\n  tag_9\n  jump\t// in\ntag_8:\n  pop\n  swap2\n  0x20\n  add\n  swap2\n  swap1\n  0x01\n  add\n  swap1\n  jump(tag_6)\ntag_7:\ntag_5:\n  pop\n  swap1\n  pop\n  tag_10\n  swap2\n  swap1\n  tag_11\n  jump\t// in\ntag_10:\n  pop\n  swap1\n  jump\t// out\ntag_11:\ntag_12:\n  dup1\n  dup3\n  gt\n  iszero\n  tag_13\n  jumpi\n  0x00\n  dup2\n  dup2\n  tag_14\n  swap2\n  swap1\n  tag_15\n  jump\t// in\ntag_14:\n  pop\n  0x01\n  add\n  jump(tag_12)\ntag_13:\n  pop\n  swap1\n  jump\t// out\ntag_15:\n  pop\n  dup1\n  sload\n  tag_16\n  swap1\n  tag_17\n  jump\t// in\ntag_16:\n  0x00\n  dup3\n  sstore\n  dup1\n  0x1f\n  lt\n  tag_19\n  jumpi\n  pop\n  jump(tag_18)\ntag_19:\n  0x1f\n  add\n  0x20\n  swap1\n  div\n  swap1\n  0x00\n  mstore\n  keccak256(0x00, 0x20)\n  swap1\n  dup2\n  add\n  swap1\n  tag_20\n  swap2\n  swap1\n  tag_21\n  jump\t// in\ntag_20:\ntag_18:\n  pop\n  jump\t// out\ntag_21:\ntag_22:\n  dup1\n  dup3\n  gt\n  iszero\n  tag_23\n  jumpi\n  0x00\n  dup2\n  0x00\n  swap1\n  sstore\n  pop\n  0x01\n  add\n  jump(tag_22)\ntag_23:\n  pop\n  swap1\n  jump\t// out\n    /* \"#utility.yul\":7:106   */\ntag_24:\n    /* \"#utility.yul\":59:65   */\n  0x00\n    /* \"#utility.yul\":93:98   */\n  dup2\n    /* \"#utility.yul\":87:99   */\n  mload\n    /* \"#utility.yul\":77:99   */\n  swap1\n  pop\n    /* \"#utility.yul\":7:106   */\n  swap2\n  swap1\n  pop\n  jump\t// out\n    /* \"#utility.yul\":112:292   */\ntag_25:\n    /* \"#utility.yul\":160:237   */\n  0x4e487b7100000000000000000000000000000000000000000000000000000000\n    /* \"#utility.yul\":157:158   */\n  0x00\n    /* \"#utility.yul\":150:238   */\n  mstore\n    /* \"#utility.yul\":257:261   */\n  0x41\n    /* \"#utility.yul\":254:255   */\n  0x04\n    /* \"#utility.yul\":247:262   */\n  mstore\n    /* \"#utility.yul\":281:285   */\n  0x24\n    /* \"#utility.yul\":278:279   */\n  0x00\n    /* \"#utility.yul\":271:286   */\n  revert\n    /* \"#utility.yul\":298:478   */\ntag_26:\n    /* \"#utility.yul\":346:423   */\n  0x4e487b7100000000000000000000000000000000000000000000000000000000\n    /* \"#utility.yul\":343:344   */\n  0x00\n    /* \"#utility.yul\":336:424   */\n  mstore\n    /* \"#utility.yul\":443:447   */\n  0x22\n    /* \"#utility.yul\":440:441   */\n  0x04\n    /* \"#utility.yul\":433:448   */\n  mstore\n    /* \"#utility.yul\":467:471   */\n  0x24\n    /* \"#utility.yul\":464:465   */\n  0x00\n    /* \"#utility.yul\":457:472   */\n  revert\n    /* \"#utility.yul\":484:804   */\ntag_17:\n    /* \"#utility.yul\":528:534   */\n  0x00\n    /* \"#utility.yul\":565:566   */\n  0x02\n    /* \"#utility.yul\":559:563   */\n  dup3\n    /* \"#utility.yul\":555:567   */\n  div\n    /* \"#utility.yul\":545:567   */\n  swap1\n  pop\n    /* \"#utility.yul\":612:613   */\n  0x01\n    /* \"#utility.yul\":606:610   */\n  dup3\n    /* \"#utility.yul\":602:614   */\n  and\n    /* \"#utility.yul\":633:651   */\n  dup1\n    /* \"#utility.yul\":623:704   */\n  tag_48\n  jumpi\n    /* \"#utility.yul\":689:693   */\n  0x7f\n    /* \"#utility.yul\":681:687   */\n  dup3\n    /* \"#utility.yul\":677:694   */\n  and\n    /* \"#utility.yul\":667:694   */\n  swap2\n  pop\n    /* \"#utility.yul\":623:704   */\ntag_48:\n    /* \"#utility.yul\":751:753   */\n  0x20\n    /* \"#utility.yul\":743:749   */\n  dup3\n    /* \"#utility.yul\":740:754   */\n  lt\n    /* \"#utility.yul\":720:738   */\n  dup2\n    /* \"#utility.yul\":717:755   */\n  sub\n    /* \"#utility.yul\":714:798   */\n  tag_49\n  jumpi\n    /* \"#utility.yul\":770:788   */\n  tag_50\n  tag_26\n  jump\t// in\ntag_50:\n    /* \"#utility.yul\":714:798   */\ntag_49:\n    /* \"#utility.yul\":535:804   */\n  pop\n    /* \"#utility.yul\":484:804   */\n  swap2\n  swap1\n  pop\n  jump\t// out\n    /* \"#utility.yul\":810:951   */\ntag_27:\n    /* \"#utility.yul\":859:863   */\n  0x00\n    /* \"#utility.yul\":882:885   */\n  dup2\n    /* \"#utility.yul\":874:885   */\n  swap1\n  pop\n    /* \"#utility.yul\":905:908   */\n  dup2\n    /* \"#utility.yul\":902:903   */\n  0x00\n    /* \"#utility.yul\":895:909   */\n  mstore\n    /* \"#utility.yul\":939:943   */\n  0x20\n    /* \"#utility.yul\":936:937   */\n  0x00\n    /* \"#utility.yul\":926:944   */\n  keccak256\n    /* \"#utility.yul\":918:944   */\n  swap1\n  pop\n    /* \"#utility.yul\":810:951   */\n  swap2\n  swap1\n  pop\n  jump\t// out\n    /* \"#utility.yul\":957:1050   */\ntag_28:\n    /* \"#utility.yul\":994:1000   */\n  0x00\n    /* \"#utility.yul\":1041:1043   */\n  0x20\n    /* \"#utility.yul\":1036:1038   */\n  0x1f\n    /* \"#utility.yul\":1029:1034   */\n  dup4\n    /* \"#utility.yul\":1025:1039   */\n  add\n    /* \"#utility.yul\":1021:1044   */\n  div\n    /* \"#utility.yul\":1011:1044   */\n  swap1\n  pop\n    /* \"#utility.yul\":957:1050   */\n  swap2\n  swap1\n  pop\n  jump\t// out\n    /* \"#utility.yul\":1056:1163   */\ntag_29:\n    /* \"#utility.yul\":1100:1108   */\n  0x00\n    /* \"#utility.yul\":1150:1155   */\n  dup3\n    /* \"#utility.yul\":1144:1148   */\n  dup3\n    /* \"#utility.yul\":1140:1156   */\n  shl\n    /* \"#utility.yul\":1119:1156   */\n  swap1\n  pop\n    /* \"#utility.yul\":1056:1163   */\n  swap3\n  swap2\n  pop\n  pop\n  jump\t// out\n    /* \"#utility.yul\":1169:1562   */\ntag_30:\n    /* \"#utility.yul\":1238:1244   */\n  0x00\n    /* \"#utility.yul\":1288:1289   */\n  0x08\n    /* \"#utility.yul\":1276:1286   */\n  dup4\n    /* \"#utility.yul\":1272:1290   */\n  mul\n    /* \"#utility.yul\":1311:1408   */\n  tag_55\n    /* \"#utility.yul\":1341:1407   */\n  0xffffffffffffffffffffffffffffffffffffffffffffffffffffffffffffffff\n    /* \"#utility.yul\":1330:1339   */\n  dup3\n    /* \"#utility.yul\":1311:1408   */\n  tag_29\n  jump\t// in\ntag_55:\n    /* \"#utility.yul\":1429:1468   */\n  tag_56\n    /* \"#utility.yul\":1459:1467   */\n  dup7\n    /* \"#utility.yul\":1448:1457   */\n  dup4\n    /* \"#utility.yul\":1429:1468   */\n  tag_29\n  jump\t// in\ntag_56:\n    /* \"#utility.yul\":1417:1468   */\n  swap6\n  pop\n    /* \"#utility.yul\":1501:1505   */\n  dup1\n    /* \"#utility.yul\":1497:1506   */\n  not\n    /* \"#utility.yul\":1490:1495   */\n  dup5\n    /* \"#utility.yul\":1486:1507   */\n  and\n    /* \"#utility.yul\":1477:1507   */\n  swap4\n  pop\n    /* \"#utility.yul\":1550:1554   */\n  dup1\n    /* \"#utility.yul\":1540:1548   */\n  dup7\n    /* \"#utility.yul\":1536:1555   */\n  and\n    /* \"#utility.yul\":1529:1534   */\n  dup5\n    /* \"#utility.yul\":1526:1556   */\n  or\n    /* \"#utility.yul\":1516:1556   */\n  swap3\n  pop\n    /* \"#utility.yul\":1245:1562   */\n  pop\n  pop\n    /* \"#utility.yul\":1169:1562   */\n  swap4\n  swap3\n  pop\n  pop\n  pop\n  jump\t// out\n    /* \"#utility.yul\":1568:1645   */\ntag_31:\n    /* \"#utility.yul\":1605:1612   */\n  0x00\n    /* \"#utility.yul\":1634:1639   */\n  dup2\n    /* \"#utility.yul\":1623:1639   */\n  swap1\n  pop\n    /* \"#utility.yul\":1568:1645   */\n  swap2\n  swap1\n  pop\n  jump\t// out\n    /* \"#utility.yul\":1651:1711   */\ntag_32:\n    /* \"#utility.yul\":1679:1682   */\n  0x00\n    /* \"#utility.yul\":1700:1705   */\n  dup2\n    /* \"#utility.yul\":1693:1705   */\n  swap1\n  pop\n    /* \"#utility.yul\":1651:1711   */\n  swap2\n  swap1\n  pop\n  jump\t// out\n    /* \"#utility.yul\":1717:1859   */\ntag_33:\n    /* \"#utility.yul\":1767:1776   */\n  0x00\n    /* \"#utility.yul\":1800:1853   */\n  tag_60\n    /* \"#utility.yul\":1818:1852   */\n  tag_61\n    /* \"#utility.yul\":1827:1851   */\n  tag_62\n    /* \"#utility.yul\":1845:1850   */\n  dup5\n    /* \"#utility.yul\":1827:1851   */\n  tag_31\n  jump\t// in\ntag_62:\n    /* \"#utility.yul\":1818:1852   */\n  tag_32\n  jump\t// in\ntag_61:\n    /* \"#utility.yul\":1800:1853   */\n  tag_31\n  jump\t// in\ntag_60:\n    /* \"#utility.yul\":1787:1853   */\n  swap1\n  pop\n    /* \"#utility.yul\":1717:1859   */\n  swap2\n  swap1\n  pop\n  jump\t// out\n    /* \"#utility.yul\":1865:1940   */\ntag_34:\n    /* \"#utility.yul\":1908:1911   */\n  0x00\n    /* \"#utility.yul\":1929:1934   */\n  dup2\n    /* \"#utility.yul\":1922:1934   */\n  swap1\n  pop\n    /* \"#utility.yul\":1865:1940   */\n  swap2\n  swap1\n  pop\n  jump\t// out\n    /* \"#utility.yul\":1946:2215   */\ntag_35:\n    /* \"#utility.yul\":2056:2095   */\n  tag_65\n    /* \"#utility.yul\":2087:2094   */\n  dup4\n    /* \"#utility.yul\":2056:2095   */\n  tag_33\n  jump\t// in\ntag_65:\n    /* \"#utility.yul\":2117:2208   */\n  tag_66\n    /* \"#utility.yul\":2166:2207   */\n  tag_67\n    /* \"#utility.yul\":2190:2206   */\n  dup3\n    /* \"#utility.yul\":2166:2207   */\n  tag_34\n  jump\t// in\ntag_67:\n    /* \"#utility.yul\":2158:2164   */\n  dup5\n    /* \"#utility.yul\":2151:2155   */\n  dup5\n    /* \"#utility.yul\":2145:2156   */\n  sload\n    /* \"#utility.yul\":2117:2208   */\n  tag_30\n  jump\t// in\ntag_66:\n    /* \"#utility.yul\":2111:2115   */\n  dup3\n    /* \"#utility.yul\":2104:2209   */\n  sstore\n    /* \"#utility.yul\":2022:2215   */\n  pop\n    /* \"#utility.yul\":1946:2215   */\n  pop\n  pop\n  pop\n  jump\t// out\n    /* \"#utility.yul\":2221:2294   */\ntag_36:\n    /* \"#utility.yul\":2266:2269   */\n  0x00\n    /* \"#utility.yul\":2287:2288   */\n  0x00\n    /* \"#utility.yul\":2280:2288   */\n  swap1\n  pop\n    /* \"#utility.yul\":2221:2294   */\n  swap1\n  jump\t// out\n    /* \"#utility.yul\":2300:2489   */\ntag_37:\n    /* \"#utility.yul\":2377:2409   */\n  tag_70\n  tag_36\n  jump\t// in\ntag_70:\n    /* \"#utility.yul\":2418:2483   */\n  tag_71\n    /* \"#utility.yul\":2476:2482   */\n  dup2\n    /* \"#utility.yul\":2468:2474   */\n  dup5\n    /* \"#utility.yul\":2462:2466   */\n  dup5\n    /* \"#utility.yul\":2418:2483   */\n  tag_35\n  jump\t// in\ntag_71:\n    /* \"#utility.yul\":2353:2489   */\n  pop\n    /* \"#utility.yul\":2300:2489   */\n  pop\n  pop\n  jump\t// out\n    /* \"#utility.yul\":2495:2681   */\ntag_38:\n    /* \"#utility.yul\":2555:2675   */\ntag_73:\n    /* \"#utility.yul\":2572:2575   */\n  dup2\n    /* \"#utility.yul\":2565:2570   */\n  dup2\n    /* \"#utility.yul\":2562:2576   */\n  lt\n    /* \"#utility.yul\":2555:2675   */\n  iszero\n  tag_75\n  jumpi\n    /* \"#utility.yul\":2626:2665   */\n  tag_76\n    /* \"#utility.yul\":2663:2664   */\n  0x00\n    /* \"#utility.yul\":2656:2661   */\n  dup3\n    /* \"#utility.yul\":2626:2665   */\n  tag_37\n  jump\t// in\ntag_76:\n    /* \"#utility.yul\":2599:2600   */\n  0x01\n    /* \"#utility.yul\":2592:2597   */\n  dup2\n    /* \"#utility.yul\":2588:2601   */\n  add\n    /* \"#utility.yul\":2579:2601   */\n  swap1\n  pop\n    /* \"#utility.yul\":2555:2675   */\n  jump(tag_73)\ntag_75:\n    /* \"#utility.yul\":2495:2681   */\n  pop\n  pop\n  jump\t// out\n    /* \"#utility.yul\":2687:3230   */\ntag_39:\n    /* \"#utility.yul\":2788:2790   */\n  0x1f\n    /* \"#utility.yul\":2783:2786   */\n  dup3\n    /* \"#utility.yul\":2780:2791   */\n  gt\n    /* \"#utility.yul\":2777:3223   */\n  iszero\n  tag_78\n  jumpi\n    /* \"#utility.yul\":2822:2860   */\n  tag_79\n    /* \"#utility.yul\":2854:2859   */\n  dup2\n    /* \"#utility.yul\":2822:2860   */\n  tag_27\n  jump\t// in\ntag_79:\n    /* \"#utility.yul\":2906:2935   */\n  tag_80\n    /* \"#utility.yul\":2924:2934   */\n  dup5\n    /* \"#utility.yul\":2906:2935   */\n  tag_28\n  jump\t// in\ntag_80:\n    /* \"#utility.yul\":2896:2904   */\n  dup2\n    /* \"#utility.yul\":2892:2936   */\n  add\n    /* \"#utility.yul\":3089:3091   */\n  0x20\n    /* \"#utility.yul\":3077:3087   */\n  dup6\n    /* \"#utility.yul\":3074:3092   */\n  lt\n    /* \"#utility.yul\":3071:3120   */\n  iszero\n  tag_81\n  jumpi\n    /* \"#utility.yul\":3110:3118   */\n  dup2\n    /* \"#utility.yul\":3095:3118   */\n  swap1\n  pop\n    /* \"#utility.yul\":3071:3120   */\ntag_81:\n    /* \"#utility.yul\":3133:3213   */\n  tag_82\n    /* \"#utility.yul\":3189:3211   */\n  tag_83\n    /* \"#utility.yul\":3207:3210   */\n  dup6\n    /* \"#utility.yul\":3189:3211   */\n  tag_28\n  jump\t// in\ntag_83:\n    /* \"#utility.yul\":3179:3187   */\n  dup4\n    /* \"#utility.yul\":3175:3212   */\n  add\n    /* \"#utility.yul\":3162:3173   */\n  dup3\n    /* \"#utility.yul\":3133:3213   */\n  tag_38\n  jump\t// in\ntag_82:\n    /* \"#utility.yul\":2792:3223   */\n  pop\n  pop\n    /* \"#utility.yul\":2777:3223   */\ntag_78:\n    /* \"#utility.yul\":2687:3230   */\n  pop\n  pop\n  pop\n  jump\t// out\n    /* \"#utility.yul\":3236:3353   */\ntag_40:\n    /* \"#utility.yul\":3290:3298   */\n  0x00\n    /* \"#utility.yul\":3340:3345   */\n  dup3\n    /* \"#utility.yul\":3334:3338   */\n  dup3\n    /* \"#utility.yul\":3330:3346   */\n  shr\n    /* \"#utility.yul\":3309:3346   */\n  swap1\n  pop\n    /* \"#utility.yul\":3236:3353   */\n  swap3\n  swap2\n  pop\n  pop\n  jump\t// out\n    /* \"#utility.yul\":3359:3528   */\ntag_41:\n    /* \"#utility.yul\":3403:3409   */\n  0x00\n    /* \"#utility.yul\":3436:3487   */\n  tag_86\n    /* \"#utility.yul\":3484:3485   */\n  0x00\n    /* \"#utility.yul\":3480:3486   */\n  not\n    /* \"#utility.yul\":3472:3477   */\n  dup5\n    /* \"#utility.yul\":3469:3470   */\n  0x08\n    /* \"#utility.yul\":3465:3478   */\n  mul\n    /* \"#utility.yul\":3436:3487   */\n  tag_40\n  jump\t// in\ntag_86:\n    /* \"#utility.yul\":3432:3488   */\n  not\n    /* \"#utility.yul\":3517:3521   */\n  dup1\n    /* \"#utility.yul\":3511:3515   */\n  dup4\n    /* \"#utility.yul\":3507:3522   */\n  and\n    /* \"#utility.yul\":3497:3522   */\n  swap2\n  pop\n    /* \"#utility.yul\":3410:3528   */\n  pop\n    /* \"#utility.yul\":3359:3528   */\n  swap3\n  swap2\n  pop\n  pop\n  jump\t// out\n    /* \"#utility.yul\":3533:3828   */\ntag_42:\n    /* \"#utility.yul\":3609:3613   */\n  0x00\n    /* \"#utility.yul\":3755:3784   */\n  tag_88\n    /* \"#utility.yul\":3780:3783   */\n  dup4\n    /* \"#utility.yul\":3774:3778   */\n  dup4\n    /* \"#utility.yul\":3755:3784   */\n  tag_41\n  jump\t// in\ntag_88:\n    /* \"#utility.yul\":3747:3784   */\n  swap2\n  pop\n    /* \"#utility.yul\":3817:3820   */\n  dup3\n    /* \"#utility.yul\":3814:3815   */\n  0x02\n    /* \"#utility.yul\":3810:3821   */\n  mul\n    /* \"#utility.yul\":3804:3808   */\n  dup3\n    /* \"#utility.yul\":3801:3822   */\n  or\n    /* \"#utility.yul\":3793:3822   */\n  swap1\n  pop\n    /* \"#utility.yul\":3533:3828   */\n  swap3\n  swap2\n  pop\n  pop\n  jump\t// out\n    /* \"#utility.yul\":3833:5228   */\ntag_9:\n    /* \"#utility.yul\":3950:3987   */\n  tag_90\n    /* \"#utility.yul\":3983:3986   */\n  dup3\n    /* \"#utility.yul\":3950:3987   */\n  tag_24\n  jump\t// in\ntag_90:\n    /* \"#utility.yul\":4052:4070   */\n  0xffffffffffffffff\n    /* \"#utility.yul\":4044:4050   */\n  dup2\n    /* \"#utility.yul\":4041:4071   */\n  gt\n    /* \"#utility.yul\":4038:4094   */\n  iszero\n  tag_91\n  jumpi\n    /* \"#utility.yul\":4074:4092   */\n  tag_92\n  tag_25\n  jump\t// in\ntag_92:\n    /* \"#utility.yul\":4038:4094   */\ntag_91:\n    /* \"#utility.yul\":4118:4156   */\n  tag_93\n    /* \"#utility.yul\":4150:4154   */\n  dup3\n    /* \"#utility.yul\":4144:4155   */\n  sload\n    /* \"#utility.yul\":4118:4156   */\n  tag_17\n  jump\t// in\ntag_93:\n    /* \"#utility.yul\":4203:4270   */\n  tag_94\n    /* \"#utility.yul\":4263:4269   */\n  dup3\n    /* \"#utility.yul\":4255:4261   */\n  dup3\n    /* \"#utility.yul\":4249:4253   */\n  dup6\n    /* \"#utility.yul\":4203:4270   */\n  tag_39\n  jump\t// in\ntag_94:\n    /* \"#utility.yul\":4297:4298   */\n  0x00\n    /* \"#utility.yul\":4321:4325   */\n  0x20\n    /* \"#utility.yul\":4308:4325   */\n  swap1\n  pop\n    /* \"#utility.yul\":4353:4355   */\n  0x1f\n    /* \"#utility.yul\":4345:4351   */\n  dup4\n    /* \"#utility.yul\":4342:4356   */\n  gt\n    /* \"#utility.yul\":4370:4371   */\n  0x01\n    /* \"#utility.yul\":4365:4983   */\n  dup2\n  eq\n  tag_96\n  jumpi\n    /* \"#utility.yul\":5027:5028   */\n  0x00\n    /* \"#utility.yul\":5044:5050   */\n  dup5\n    /* \"#utility.yul\":5041:5118   */\n  iszero\n  tag_97\n  jumpi\n    /* \"#utility.yul\":5093:5102   */\n  dup3\n    /* \"#utility.yul\":5088:5091   */\n  dup8\n    /* \"#utility.yul\":5084:5103   */\n  add\n    /* \"#utility.yul\":5078:5104   */\n  mload\n    /* \"#utility.yul\":5069:5104   */\n  swap1\n  pop\n    /* \"#utility.yul\":5041:5118   */\ntag_97:\n    /* \"#utility.yul\":5144:5211   */\n  tag_98\n    /* \"#utility.yul\":5204:5210   */\n  dup6\n    /* \"#utility.yul\":5197:5202   */\n  dup3\n    /* \"#utility.yul\":5144:5211   */\n  tag_42\n  jump\t// in\ntag_98:\n    /* \"#utility.yul\":5138:5142   */\n  dup7\n    /* \"#utility.yul\":5131:5212   */\n  sstore\n    /* \"#utility.yul\":5000:5222   */\n  pop\n    /* \"#utility.yul\":4335:5222   */\n  jump(tag_95)\n    /* \"#utility.yul\":4365:4983   */\ntag_96:\n    /* \"#utility.yul\":4417:4421   */\n  0x1f\n    /* \"#utility.yul\":4413:4422   */\n  not\n    /* \"#utility.yul\":4405:4411   */\n  dup5\n    /* \"#utility.yul\":4401:4423   */\n  and\n    /* \"#utility.yul\":4451:4488   */\n  tag_99\n    /* \"#utility.yul\":4483:4487   */\n  dup7\n    /* \"#utility.yul\":4451:4488   */\n  tag_27\n  jump\t// in\ntag_99:\n    /* \"#utility.yul\":4510:4511   */\n  0x00\n    /* \"#utility.yul\":4524:4732   */\ntag_100:\n    /* \"#utility.yul\":4538:4545   */\n  dup3\n    /* \"#utility.yul\":4535:4536   */\n  dup2\n    /* \"#utility.yul\":4532:4546   */\n  lt\n    /* \"#utility.yul\":4524:4732   */\n  iszero\n  tag_102\n  jumpi\n    /* \"#utility.yul\":4617:4626   */\n  dup5\n    /* \"#utility.yul\":4612:4615   */\n  dup10\n    /* \"#utility.yul\":4608:4627   */\n  add\n    /* \"#utility.yul\":4602:4628   */\n  mload\n    /* \"#utility.yul\":4594:4600   */\n  dup3\n    /* \"#utility.yul\":4587:4629   */\n  sstore\n    /* \"#utility.yul\":4668:4669   */\n  0x01\n    /* \"#utility.yul\":4660:4666   */\n  dup3\n    /* \"#utility.yul\":4656:4670   */\n  add\n    /* \"#utility.yul\":4646:4670   */\n  swap2\n  pop\n    /* \"#utility.yul\":4715:4717   */\n  0x20\n    /* \"#utility.yul\":4704:4713   */\n  dup6\n    /* \"#utility.yul\":4700:4718   */\n  add\n    /* \"#utility.yul\":4687:4718   */\n  swap5\n  pop\n    /* \"#utility.yul\":4561:4565   */\n  0x20\n    /* \"#utility.yul\":4558:4559   */\n  dup2\n    /* \"#utility.yul\":4554:4566   */\n  add\n    /* \"#utility.yul\":4549:4566   */\n  swap1\n  pop\n    /* \"#utility.yul\":4524:4732   */\n  jump(tag_100)\ntag_102:\n    /* \"#utility.yul\":4760:4766   */\n  dup7\n    /* \"#utility.yul\":4751:4758   */\n  dup4\n    /* \"#utility.yul\":4748:4767   */\n  lt\n    /* \"#utility.yul\":4745:4924   */\n  iszero\n  tag_103\n  jumpi\n    /* \"#utility.yul\":4818:4827   */\n  dup5\n    /* \"#utility.yul\":4813:4816   */\n  dup10\n    /* \"#utility.yul\":4809:4828   */\n  add\n    /* \"#utility.yul\":4803:4829   */\n  mload\n    /* \"#utility.yul\":4861:4909   */\n  tag_104\n    /* \"#utility.yul\":4903:4907   */\n  0x1f\n    /* \"#utility.yul\":4895:4901   */\n  dup10\n    /* \"#utility.yul\":4891:4908   */\n  and\n    /* \"#utility.yul\":4880:4889   */\n  dup3\n    /* \"#utility.yul\":4861:4909   */\n  tag_41\n  jump\t// in\ntag_104:\n    /* \"#utility.yul\":4853:4859   */\n  dup4\n    /* \"#utility.yul\":4846:4910   */\n  sstore\n    /* \"#utility.yul\":4768:4924   */\n  pop\n    /* \"#utility.yul\":4745:4924   */\ntag_103:\n    /* \"#utility.yul\":4970:4971   */\n  0x01\n    /* \"#utility.yul\":4966:4967   */\n  0x02\n    /* \"#utility.yul\":4958:4964   */\n  dup9\n    /* \"#utility.yul\":4954:4968   */\n  mul\n    /* \"#utility.yul\":4950:4972   */\n  add\n    /* \"#utility.yul\":4944:4948   */\n  dup9\n    /* \"#utility.yul\":4937:4973   */\n  sstore\n    /* \"#utility.yul\":4372:4983   */\n  pop\n  pop\n  pop\n    /* \"#utility.yul\":4335:5222   */\ntag_95:\n  pop\n    /* \"#utility.yul\":3925:5228   */\n  pop\n  pop\n  pop\n    /* \"#utility.yul\":3833:5228   */\n  pop\n  pop\n  jump\t// out\n    /* \"contracts/belajar/structArrayFunction.sol\":60:524  contract belajarStruct {... */\ntag_4:\n  dataSize(sub_0)\n  dup1\n  dataOffset(sub_0)\n  0x00\n  codecopy\n  0x00\n  return\nstop\n\nsub_0: assembly {\n        /* \"contracts/belajar/structArrayFunction.sol\":60:524  contract belajarStruct {... */\n      mstore(0x40, 0x80)\n      callvalue\n      dup1\n      iszero\n      tag_1\n      jumpi\n      revert(0x00, 0x00)\n    tag_1:\n      pop\n      jumpi(tag_2, lt(calldatasize, 0x04))\n      shr(0xe0, calldataload(0x00))\n      dup1\n      0x4335101d\n      eq\n      tag_3\n      jumpi\n      dup1\n      0x8102fced\n      eq\n      tag_4\n      jumpi\n      dup1\n      0xa8d4a03b\n      eq\n      tag_5\n      jumpi\n    tag_2:\n      revert(0x00, 0x00)\n        /* \"contracts/belajar/structArrayFunction.sol\":430:519  function tambahOrang() public {... */\n    tag_3:\n      tag_6\n      tag_7\n      jump\t// in\n    tag_6:\n      stop\n        /* \"contracts/belajar/structArrayFunction.sol\":310:359  string[] public humans = [\"Nanda\",\"Riyan\",\"Faiq\"] */\n    tag_4:\n      tag_8\n      0x04\n      dup1\n      calldatasize\n      sub\n      dup2\n      add\n      swap1\n      tag_9\n      swap2\n      swap1\n      tag_10\n      jump\t// in\n    tag_9:\n      tag_11\n      jump\t// in\n    tag_8:\n      mload(0x40)\n      tag_12\n      swap2\n      swap1\n      tag_13\n      jump\t// in\n    tag_12:\n      mload(0x40)\n      dup1\n      swap2\n      sub\n      swap1\n      return\n        /* \"contracts/belajar/structArrayFunction.sol\":368:389  orang[] public heroes */\n    tag_5:\n      tag_14\n      0x04\n      dup1\n      calldatasize\n      sub\n      dup2\n      add\n      swap1\n      tag_15\n      swap2\n      swap1\n      tag_10\n      jump\t// in\n    tag_15:\n      tag_16\n      jump\t// in\n    tag_14:\n      mload(0x40)\n      tag_17\n      swap4\n      swap3\n      swap2\n      swap1\n      tag_18\n      jump\t// in\n    tag_17:\n      mload(0x40)\n      dup1\n      swap2\n      sub\n      swap1\n      return\n        /* \"contracts/belajar/structArrayFunction.sol\":430:519  function tambahOrang() public {... */\n    tag_7:\n        /* \"contracts/belajar/structArrayFunction.sol\":471:477  heroes */\n      0x01\n        /* \"contracts/belajar/structArrayFunction.sol\":483:510  orang(\"Riyan\", 17, \"Telur\") */\n      mload(0x40)\n      dup1\n      0x60\n      add\n      0x40\n      mstore\n      dup1\n      mload(0x40)\n      dup1\n      0x40\n      add\n      0x40\n      mstore\n      dup1\n      0x05\n      dup2\n      mstore\n      0x20\n      add\n      0x526979616e000000000000000000000000000000000000000000000000000000\n      dup2\n      mstore\n      pop\n      dup2\n      mstore\n      0x20\n      add\n        /* \"contracts/belajar/structArrayFunction.sol\":498:500  17 */\n      0x11\n        /* \"contracts/belajar/structArrayFunction.sol\":483:510  orang(\"Riyan\", 17, \"Telur\") */\n      dup2\n      mstore\n      0x20\n      add\n      mload(0x40)\n      dup1\n      0x40\n      add\n      0x40\n      mstore\n      dup1\n      0x05\n      dup2\n      mstore\n      0x20\n      add\n      0x54656c7572000000000000000000000000000000000000000000000000000000\n      dup2\n      mstore\n      pop\n      dup2\n      mstore\n      pop\n        /* \"contracts/belajar/structArrayFunction.sol\":471:511  heroes.push(orang(\"Riyan\", 17, \"Telur\")) */\n      swap1\n      dup1\n      0x01\n      dup2\n      sload\n      add\n      dup1\n      dup3\n      sstore\n      dup1\n      swap2\n      pop\n      pop\n      0x01\n      swap1\n      sub\n      swap1\n      0x00\n      mstore\n      keccak256(0x00, 0x20)\n      swap1\n      0x03\n      mul\n      add\n      0x00\n      swap1\n      swap2\n      swap1\n      swap2\n      swap1\n      swap2\n      pop\n      0x00\n      dup3\n      add\n      mload\n      dup2\n      0x00\n      add\n      swap1\n      dup2\n      tag_21\n      swap2\n      swap1\n      tag_22\n      jump\t// in\n    tag_21:\n      pop\n      0x20\n      dup3\n      add\n      mload\n      dup2\n      0x01\n      add\n      sstore\n      0x40\n      dup3\n      add\n      mload\n      dup2\n      0x02\n      add\n      swap1\n      dup2\n      tag_23\n      swap2\n      swap1\n      tag_22\n      jump\t// in\n    tag_23:\n      pop\n      pop\n      pop\n        /* \"contracts/belajar/structArrayFunction.sol\":430:519  function tambahOrang() public {... */\n      jump\t// out\n        /* \"contracts/belajar/structArrayFunction.sol\":310:359  string[] public humans = [\"Nanda\",\"Riyan\",\"Faiq\"] */\n    tag_11:\n      0x00\n      dup2\n      dup2\n      sload\n      dup2\n      lt\n      tag_24\n      jumpi\n      0x00\n      dup1\n      revert\n    tag_24:\n      swap1\n      0x00\n      mstore\n      keccak256(0x00, 0x20)\n      add\n      0x00\n      swap2\n      pop\n      swap1\n      pop\n      dup1\n      sload\n      tag_26\n      swap1\n      tag_27\n      jump\t// in\n    tag_26:\n      dup1\n      0x1f\n      add\n      0x20\n      dup1\n      swap2\n      div\n      mul\n      0x20\n      add\n      mload(0x40)\n      swap1\n      dup2\n      add\n      0x40\n      mstore\n      dup1\n      swap3\n      swap2\n      swap1\n      dup2\n      dup2\n      mstore\n      0x20\n      add\n      dup3\n      dup1\n      sload\n      tag_28\n      swap1\n      tag_27\n      jump\t// in\n    tag_28:\n      dup1\n      iszero\n      tag_29\n      jumpi\n      dup1\n      0x1f\n      lt\n      tag_30\n      jumpi\n      0x0100\n      dup1\n      dup4\n      sload\n      div\n      mul\n      dup4\n      mstore\n      swap2\n      0x20\n      add\n      swap2\n      jump(tag_29)\n    tag_30:\n      dup3\n      add\n      swap2\n      swap1\n      0x00\n      mstore\n      keccak256(0x00, 0x20)\n      swap1\n    tag_31:\n      dup2\n      sload\n      dup2\n      mstore\n      swap1\n      0x01\n      add\n      swap1\n      0x20\n      add\n      dup1\n      dup4\n      gt\n      tag_31\n      jumpi\n      dup3\n      swap1\n      sub\n      0x1f\n      and\n      dup3\n      add\n      swap2\n    tag_29:\n      pop\n      pop\n      pop\n      pop\n      pop\n      dup2\n      jump\t// out\n        /* \"contracts/belajar/structArrayFunction.sol\":368:389  orang[] public heroes */\n    tag_16:\n      0x01\n      dup2\n      dup2\n      sload\n      dup2\n      lt\n      tag_32\n      jumpi\n      0x00\n      dup1\n      revert\n    tag_32:\n      swap1\n      0x00\n      mstore\n      keccak256(0x00, 0x20)\n      swap1\n      0x03\n      mul\n      add\n      0x00\n      swap2\n      pop\n      swap1\n      pop\n      dup1\n      0x00\n      add\n      dup1\n      sload\n      tag_34\n      swap1\n      tag_27\n      jump\t// in\n    tag_34:\n      dup1\n      0x1f\n      add\n      0x20\n      dup1\n      swap2\n      div\n      mul\n      0x20\n      add\n      mload(0x40)\n      swap1\n      dup2\n      add\n      0x40\n      mstore\n      dup1\n      swap3\n      swap2\n      swap1\n      dup2\n      dup2\n      mstore\n      0x20\n      add\n      dup3\n      dup1\n      sload\n      tag_35\n      swap1\n      tag_27\n      jump\t// in\n    tag_35:\n      dup1\n      iszero\n      tag_36\n      jumpi\n      dup1\n      0x1f\n      lt\n      tag_37\n      jumpi\n      0x0100\n      dup1\n      dup4\n      sload\n      div\n      mul\n      dup4\n      mstore\n      swap2\n      0x20\n      add\n      swap2\n      jump(tag_36)\n    tag_37:\n      dup3\n      add\n      swap2\n      swap1\n      0x00\n      mstore\n      keccak256(0x00, 0x20)\n      swap1\n    tag_38:\n      dup2\n      sload\n      dup2\n      mstore\n      swap1\n      0x01\n      add\n      swap1\n      0x20\n      add\n      dup1\n      dup4\n      gt\n      tag_38\n      jumpi\n      dup3\n      swap1\n      sub\n      0x1f\n      and\n      dup3\n      add\n      swap2\n    tag_36:\n      pop\n      pop\n      pop\n      pop\n      pop\n      swap1\n      dup1\n      0x01\n      add\n      sload\n      swap1\n      dup1\n      0x02\n      add\n      dup1\n      sload\n      tag_39\n      swap1\n      tag_27\n      jump\t// in\n    tag_39:\n      dup1\n      0x1f\n      add\n      0x20\n      dup1\n      swap2\n      div\n      mul\n      0x20\n      add\n      mload(0x40)\n      swap1\n      dup2\n      add\n      0x40\n      mstore\n      dup1\n      swap3\n      swap2\n      swap1\n      dup2\n      dup2\n      mstore\n      0x20\n      add\n      dup3\n      dup1\n      sload\n      tag_40\n      swap1\n      tag_27\n      jump\t// in\n    tag_40:\n      dup1\n      iszero\n      tag_41\n      jumpi\n      dup1\n      0x1f\n      lt\n      tag_42\n      jumpi\n      0x0100\n      dup1\n      dup4\n      sload\n      div\n      mul\n      dup4\n      mstore\n      swap2\n      0x20\n      add\n      swap2\n      jump(tag_41)\n    tag_42:\n      dup3\n      add\n      swap2\n      swap1\n      0x00\n      mstore\n      keccak256(0x00, 0x20)\n      swap1\n    tag_43:\n      dup2\n      sload\n      dup2\n      mstore\n      swap1\n      0x01\n      add\n      swap1\n      0x20\n      add\n      dup1\n      dup4\n      gt\n      tag_43\n      jumpi\n      dup3\n      swap1\n      sub\n      0x1f\n      and\n      dup3\n      add\n      swap2\n    tag_41:\n      pop\n      pop\n      pop\n      pop\n      pop\n      swap1\n      pop\n      dup4\n      jump\t// out\n        /* \"#utility.yul\":88:205   */\n    tag_45:\n        /* \"#utility.yul\":197:198   */\n      0x00\n        /* \"#utility.yul\":194:195   */\n      0x00\n        /* \"#utility.yul\":187:199   */\n      revert\n        /* \"#utility.yul\":334:411   */\n    tag_47:\n        /* \"#utility.yul\":371:378   */\n      0x00\n        /* \"#utility.yul\":400:405   */\n      dup2\n        /* \"#utility.yul\":389:405   */\n      swap1\n      pop\n        /* \"#utility.yul\":334:411   */\n      swap2\n      swap1\n      pop\n      jump\t// out\n        /* \"#utility.yul\":417:539   */\n    tag_48:\n        /* \"#utility.yul\":490:514   */\n      tag_79\n        /* \"#utility.yul\":508:513   */\n      dup2\n        /* \"#utility.yul\":490:514   */\n      tag_47\n      jump\t// in\n    tag_79:\n        /* \"#utility.yul\":483:488   */\n      dup2\n        /* \"#utility.yul\":480:515   */\n      eq\n        /* \"#utility.yul\":470:533   */\n      tag_80\n      jumpi\n        /* \"#utility.yul\":529:530   */\n      0x00\n        /* \"#utility.yul\":526:527   */\n      0x00\n        /* \"#utility.yul\":519:531   */\n      revert\n        /* \"#utility.yul\":470:533   */\n    tag_80:\n        /* \"#utility.yul\":417:539   */\n      pop\n      jump\t// out\n        /* \"#utility.yul\":545:684   */\n    tag_49:\n        /* \"#utility.yul\":591:596   */\n      0x00\n        /* \"#utility.yul\":629:635   */\n      dup2\n        /* \"#utility.yul\":616:636   */\n      calldataload\n        /* \"#utility.yul\":607:636   */\n      swap1\n      pop\n        /* \"#utility.yul\":645:678   */\n      tag_82\n        /* \"#utility.yul\":672:677   */\n      dup2\n        /* \"#utility.yul\":645:678   */\n      tag_48\n      jump\t// in\n    tag_82:\n        /* \"#utility.yul\":545:684   */\n      swap3\n      swap2\n      pop\n      pop\n      jump\t// out\n        /* \"#utility.yul\":690:1019   */\n    tag_10:\n        /* \"#utility.yul\":749:755   */\n      0x00\n        /* \"#utility.yul\":798:800   */\n      0x20\n        /* \"#utility.yul\":786:795   */\n      dup3\n        /* \"#utility.yul\":777:784   */\n      dup5\n        /* \"#utility.yul\":773:796   */\n      sub\n        /* \"#utility.yul\":769:801   */\n      slt\n        /* \"#utility.yul\":766:885   */\n      iszero\n      tag_84\n      jumpi\n        /* \"#utility.yul\":804:883   */\n      tag_85\n      tag_45\n      jump\t// in\n    tag_85:\n        /* \"#utility.yul\":766:885   */\n    tag_84:\n        /* \"#utility.yul\":924:925   */\n      0x00\n        /* \"#utility.yul\":949:1002   */\n      tag_86\n        /* \"#utility.yul\":994:1001   */\n      dup5\n        /* \"#utility.yul\":985:991   */\n      dup3\n        /* \"#utility.yul\":974:983   */\n      dup6\n        /* \"#utility.yul\":970:992   */\n      add\n        /* \"#utility.yul\":949:1002   */\n      tag_49\n      jump\t// in\n    tag_86:\n        /* \"#utility.yul\":939:1002   */\n      swap2\n      pop\n        /* \"#utility.yul\":895:1012   */\n      pop\n        /* \"#utility.yul\":690:1019   */\n      swap3\n      swap2\n      pop\n      pop\n      jump\t// out\n        /* \"#utility.yul\":1025:1124   */\n    tag_50:\n        /* \"#utility.yul\":1077:1083   */\n      0x00\n        /* \"#utility.yul\":1111:1116   */\n      dup2\n        /* \"#utility.yul\":1105:1117   */\n      mload\n        /* \"#utility.yul\":1095:1117   */\n      swap1\n      pop\n        /* \"#utility.yul\":1025:1124   */\n      swap2\n      swap1\n      pop\n      jump\t// out\n        /* \"#utility.yul\":1130:1299   */\n    tag_51:\n        /* \"#utility.yul\":1214:1225   */\n      0x00\n        /* \"#utility.yul\":1248:1254   */\n      dup3\n        /* \"#utility.yul\":1243:1246   */\n      dup3\n        /* \"#utility.yul\":1236:1255   */\n      mstore\n        /* \"#utility.yul\":1288:1292   */\n      0x20\n        /* \"#utility.yul\":1283:1286   */\n      dup3\n        /* \"#utility.yul\":1279:1293   */\n      add\n        /* \"#utility.yul\":1264:1293   */\n      swap1\n      pop\n        /* \"#utility.yul\":1130:1299   */\n      swap3\n      swap2\n      pop\n      pop\n      jump\t// out\n        /* \"#utility.yul\":1305:1444   */\n    tag_52:\n        /* \"#utility.yul\":1394:1400   */\n      dup3\n        /* \"#utility.yul\":1389:1392   */\n      dup2\n        /* \"#utility.yul\":1384:1387   */\n      dup4\n        /* \"#utility.yul\":1378:1401   */\n      mcopy\n        /* \"#utility.yul\":1435:1436   */\n      0x00\n        /* \"#utility.yul\":1426:1432   */\n      dup4\n        /* \"#utility.yul\":1421:1424   */\n      dup4\n        /* \"#utility.yul\":1417:1433   */\n      add\n        /* \"#utility.yul\":1410:1437   */\n      mstore\n        /* \"#utility.yul\":1305:1444   */\n      pop\n      pop\n      pop\n      jump\t// out\n        /* \"#utility.yul\":1450:1552   */\n    tag_53:\n        /* \"#utility.yul\":1491:1497   */\n      0x00\n        /* \"#utility.yul\":1542:1544   */\n      0x1f\n        /* \"#utility.yul\":1538:1545   */\n      not\n        /* \"#utility.yul\":1533:1535   */\n      0x1f\n        /* \"#utility.yul\":1526:1531   */\n      dup4\n        /* \"#utility.yul\":1522:1536   */\n      add\n        /* \"#utility.yul\":1518:1546   */\n      and\n        /* \"#utility.yul\":1508:1546   */\n      swap1\n      pop\n        /* \"#utility.yul\":1450:1552   */\n      swap2\n      swap1\n      pop\n      jump\t// out\n        /* \"#utility.yul\":1558:1935   */\n    tag_54:\n        /* \"#utility.yul\":1646:1649   */\n      0x00\n        /* \"#utility.yul\":1674:1713   */\n      tag_92\n        /* \"#utility.yul\":1707:1712   */\n      dup3\n        /* \"#utility.yul\":1674:1713   */\n      tag_50\n      jump\t// in\n    tag_92:\n        /* \"#utility.yul\":1729:1800   */\n      tag_93\n        /* \"#utility.yul\":1793:1799   */\n      dup2\n        /* \"#utility.yul\":1788:1791   */\n      dup6\n        /* \"#utility.yul\":1729:1800   */\n      tag_51\n      jump\t// in\n    tag_93:\n        /* \"#utility.yul\":1722:1800   */\n      swap4\n      pop\n        /* \"#utility.yul\":1809:1874   */\n      tag_94\n        /* \"#utility.yul\":1867:1873   */\n      dup2\n        /* \"#utility.yul\":1862:1865   */\n      dup6\n        /* \"#utility.yul\":1855:1859   */\n      0x20\n        /* \"#utility.yul\":1848:1853   */\n      dup7\n        /* \"#utility.yul\":1844:1860   */\n      add\n        /* \"#utility.yul\":1809:1874   */\n      tag_52\n      jump\t// in\n    tag_94:\n        /* \"#utility.yul\":1899:1928   */\n      tag_95\n        /* \"#utility.yul\":1921:1927   */\n      dup2\n        /* \"#utility.yul\":1899:1928   */\n      tag_53\n      jump\t// in\n    tag_95:\n        /* \"#utility.yul\":1894:1897   */\n      dup5\n        /* \"#utility.yul\":1890:1929   */\n      add\n        /* \"#utility.yul\":1883:1929   */\n      swap2\n      pop\n        /* \"#utility.yul\":1650:1935   */\n      pop\n        /* \"#utility.yul\":1558:1935   */\n      swap3\n      swap2\n      pop\n      pop\n      jump\t// out\n        /* \"#utility.yul\":1941:2254   */\n    tag_13:\n        /* \"#utility.yul\":2054:2058   */\n      0x00\n        /* \"#utility.yul\":2092:2094   */\n      0x20\n        /* \"#utility.yul\":2081:2090   */\n      dup3\n        /* \"#utility.yul\":2077:2095   */\n      add\n        /* \"#utility.yul\":2069:2095   */\n      swap1\n      pop\n        /* \"#utility.yul\":2141:2150   */\n      dup2\n        /* \"#utility.yul\":2135:2139   */\n      dup2\n        /* \"#utility.yul\":2131:2151   */\n      sub\n        /* \"#utility.yul\":2127:2128   */\n      0x00\n        /* \"#utility.yul\":2116:2125   */\n      dup4\n        /* \"#utility.yul\":2112:2129   */\n      add\n        /* \"#utility.yul\":2105:2152   */\n      mstore\n        /* \"#utility.yul\":2169:2247   */\n      tag_97\n        /* \"#utility.yul\":2242:2246   */\n      dup2\n        /* \"#utility.yul\":2233:2239   */\n      dup5\n        /* \"#utility.yul\":2169:2247   */\n      tag_54\n      jump\t// in\n    tag_97:\n        /* \"#utility.yul\":2161:2247   */\n      swap1\n      pop\n        /* \"#utility.yul\":1941:2254   */\n      swap3\n      swap2\n      pop\n      pop\n      jump\t// out\n        /* \"#utility.yul\":2260:2378   */\n    tag_55:\n        /* \"#utility.yul\":2347:2371   */\n      tag_99\n        /* \"#utility.yul\":2365:2370   */\n      dup2\n        /* \"#utility.yul\":2347:2371   */\n      tag_47\n      jump\t// in\n    tag_99:\n        /* \"#utility.yul\":2342:2345   */\n      dup3\n        /* \"#utility.yul\":2335:2372   */\n      mstore\n        /* \"#utility.yul\":2260:2378   */\n      pop\n      pop\n      jump\t// out\n        /* \"#utility.yul\":2384:3008   */\n    tag_18:\n        /* \"#utility.yul\":2573:2577   */\n      0x00\n        /* \"#utility.yul\":2611:2613   */\n      0x60\n        /* \"#utility.yul\":2600:2609   */\n      dup3\n        /* \"#utility.yul\":2596:2614   */\n      add\n        /* \"#utility.yul\":2588:2614   */\n      swap1\n      pop\n        /* \"#utility.yul\":2660:2669   */\n      dup2\n        /* \"#utility.yul\":2654:2658   */\n      dup2\n        /* \"#utility.yul\":2650:2670   */\n      sub\n        /* \"#utility.yul\":2646:2647   */\n      0x00\n        /* \"#utility.yul\":2635:2644   */\n      dup4\n        /* \"#utility.yul\":2631:2648   */\n      add\n        /* \"#utility.yul\":2624:2671   */\n      mstore\n        /* \"#utility.yul\":2688:2766   */\n      tag_101\n        /* \"#utility.yul\":2761:2765   */\n      dup2\n        /* \"#utility.yul\":2752:2758   */\n      dup7\n        /* \"#utility.yul\":2688:2766   */\n      tag_54\n      jump\t// in\n    tag_101:\n        /* \"#utility.yul\":2680:2766   */\n      swap1\n      pop\n        /* \"#utility.yul\":2776:2848   */\n      tag_102\n        /* \"#utility.yul\":2844:2846   */\n      0x20\n        /* \"#utility.yul\":2833:2842   */\n      dup4\n        /* \"#utility.yul\":2829:2847   */\n      add\n        /* \"#utility.yul\":2820:2826   */\n      dup6\n        /* \"#utility.yul\":2776:2848   */\n      tag_55\n      jump\t// in\n    tag_102:\n        /* \"#utility.yul\":2895:2904   */\n      dup2\n        /* \"#utility.yul\":2889:2893   */\n      dup2\n        /* \"#utility.yul\":2885:2905   */\n      sub\n        /* \"#utility.yul\":2880:2882   */\n      0x40\n        /* \"#utility.yul\":2869:2878   */\n      dup4\n        /* \"#utility.yul\":2865:2883   */\n      add\n        /* \"#utility.yul\":2858:2906   */\n      mstore\n        /* \"#utility.yul\":2923:3001   */\n      tag_103\n        /* \"#utility.yul\":2996:3000   */\n      dup2\n        /* \"#utility.yul\":2987:2993   */\n      dup5\n        /* \"#utility.yul\":2923:3001   */\n      tag_54\n      jump\t// in\n    tag_103:\n        /* \"#utility.yul\":2915:3001   */\n      swap1\n      pop\n        /* \"#utility.yul\":2384:3008   */\n      swap5\n      swap4\n      pop\n      pop\n      pop\n      pop\n      jump\t// out\n        /* \"#utility.yul\":3014:3194   */\n    tag_56:\n        /* \"#utility.yul\":3062:3139   */\n      0x4e487b7100000000000000000000000000000000000000000000000000000000\n        /* \"#utility.yul\":3059:3060   */\n      0x00\n        /* \"#utility.yul\":3052:3140   */\n      mstore\n        /* \"#utility.yul\":3159:3163   */\n      0x41\n        /* \"#utility.yul\":3156:3157   */\n      0x04\n        /* \"#utility.yul\":3149:3164   */\n      mstore\n        /* \"#utility.yul\":3183:3187   */\n      0x24\n        /* \"#utility.yul\":3180:3181   */\n      0x00\n        /* \"#utility.yul\":3173:3188   */\n      revert\n        /* \"#utility.yul\":3200:3380   */\n    tag_57:\n        /* \"#utility.yul\":3248:3325   */\n      0x4e487b7100000000000000000000000000000000000000000000000000000000\n        /* \"#utility.yul\":3245:3246   */\n      0x00\n        /* \"#utility.yul\":3238:3326   */\n      mstore\n        /* \"#utility.yul\":3345:3349   */\n      0x22\n        /* \"#utility.yul\":3342:3343   */\n      0x04\n        /* \"#utility.yul\":3335:3350   */\n      mstore\n        /* \"#utility.yul\":3369:3373   */\n      0x24\n        /* \"#utility.yul\":3366:3367   */\n      0x00\n        /* \"#utility.yul\":3359:3374   */\n      revert\n        /* \"#utility.yul\":3386:3706   */\n    tag_27:\n        /* \"#utility.yul\":3430:3436   */\n      0x00\n        /* \"#utility.yul\":3467:3468   */\n      0x02\n        /* \"#utility.yul\":3461:3465   */\n      dup3\n        /* \"#utility.yul\":3457:3469   */\n      div\n        /* \"#utility.yul\":3447:3469   */\n      swap1\n      pop\n        /* \"#utility.yul\":3514:3515   */\n      0x01\n        /* \"#utility.yul\":3508:3512   */\n      dup3\n        /* \"#utility.yul\":3504:3516   */\n      and\n        /* \"#utility.yul\":3535:3553   */\n      dup1\n        /* \"#utility.yul\":3525:3606   */\n      tag_107\n      jumpi\n        /* \"#utility.yul\":3591:3595   */\n      0x7f\n        /* \"#utility.yul\":3583:3589   */\n      dup3\n        /* \"#utility.yul\":3579:3596   */\n      and\n        /* \"#utility.yul\":3569:3596   */\n      swap2\n      pop\n        /* \"#utility.yul\":3525:3606   */\n    tag_107:\n        /* \"#utility.yul\":3653:3655   */\n      0x20\n        /* \"#utility.yul\":3645:3651   */\n      dup3\n        /* \"#utility.yul\":3642:3656   */\n      lt\n        /* \"#utility.yul\":3622:3640   */\n      dup2\n        /* \"#utility.yul\":3619:3657   */\n      sub\n        /* \"#utility.yul\":3616:3700   */\n      tag_108\n      jumpi\n        /* \"#utility.yul\":3672:3690   */\n      tag_109\n      tag_57\n      jump\t// in\n    tag_109:\n        /* \"#utility.yul\":3616:3700   */\n    tag_108:\n        /* \"#utility.yul\":3437:3706   */\n      pop\n        /* \"#utility.yul\":3386:3706   */\n      swap2\n      swap1\n      pop\n      jump\t// out\n        /* \"#utility.yul\":3712:3853   */\n    tag_58:\n        /* \"#utility.yul\":3761:3765   */\n      0x00\n        /* \"#utility.yul\":3784:3787   */\n      dup2\n        /* \"#utility.yul\":3776:3787   */\n      swap1\n      pop\n        /* \"#utility.yul\":3807:3810   */\n      dup2\n        /* \"#utility.yul\":3804:3805   */\n      0x00\n        /* \"#utility.yul\":3797:3811   */\n      mstore\n        /* \"#utility.yul\":3841:3845   */\n      0x20\n        /* \"#utility.yul\":3838:3839   */\n      0x00\n        /* \"#utility.yul\":3828:3846   */\n      keccak256\n        /* \"#utility.yul\":3820:3846   */\n      swap1\n      pop\n        /* \"#utility.yul\":3712:3853   */\n      swap2\n      swap1\n      pop\n      jump\t// out\n        /* \"#utility.yul\":3859:3952   */\n    tag_59:\n        /* \"#utility.yul\":3896:3902   */\n      0x00\n        /* \"#utility.yul\":3943:3945   */\n      0x20\n        /* \"#utility.yul\":3938:3940   */\n      0x1f\n        /* \"#utility.yul\":3931:3936   */\n      dup4\n        /* \"#utility.yul\":3927:3941   */\n      add\n        /* \"#utility.yul\":3923:3946   */\n      div\n        /* \"#utility.yul\":3913:3946   */\n      swap1\n      pop\n        /* \"#utility.yul\":3859:3952   */\n      swap2\n      swap1\n      pop\n      jump\t// out\n        /* \"#utility.yul\":3958:4065   */\n    tag_60:\n        /* \"#utility.yul\":4002:4010   */\n      0x00\n        /* \"#utility.yul\":4052:4057   */\n      dup3\n        /* \"#utility.yul\":4046:4050   */\n      dup3\n        /* \"#utility.yul\":4042:4058   */\n      shl\n        /* \"#utility.yul\":4021:4058   */\n      swap1\n      pop\n        /* \"#utility.yul\":3958:4065   */\n      swap3\n      swap2\n      pop\n      pop\n      jump\t// out\n        /* \"#utility.yul\":4071:4464   */\n    tag_61:\n        /* \"#utility.yul\":4140:4146   */\n      0x00\n        /* \"#utility.yul\":4190:4191   */\n      0x08\n        /* \"#utility.yul\":4178:4188   */\n      dup4\n        /* \"#utility.yul\":4174:4192   */\n      mul\n        /* \"#utility.yul\":4213:4310   */\n      tag_114\n        /* \"#utility.yul\":4243:4309   */\n      0xffffffffffffffffffffffffffffffffffffffffffffffffffffffffffffffff\n        /* \"#utility.yul\":4232:4241   */\n      dup3\n        /* \"#utility.yul\":4213:4310   */\n      tag_60\n      jump\t// in\n    tag_114:\n        /* \"#utility.yul\":4331:4370   */\n      tag_115\n        /* \"#utility.yul\":4361:4369   */\n      dup7\n        /* \"#utility.yul\":4350:4359   */\n      dup4\n        /* \"#utility.yul\":4331:4370   */\n      tag_60\n      jump\t// in\n    tag_115:\n        /* \"#utility.yul\":4319:4370   */\n      swap6\n      pop\n        /* \"#utility.yul\":4403:4407   */\n      dup1\n        /* \"#utility.yul\":4399:4408   */\n      not\n        /* \"#utility.yul\":4392:4397   */\n      dup5\n        /* \"#utility.yul\":4388:4409   */\n      and\n        /* \"#utility.yul\":4379:4409   */\n      swap4\n      pop\n        /* \"#utility.yul\":4452:4456   */\n      dup1\n        /* \"#utility.yul\":4442:4450   */\n      dup7\n        /* \"#utility.yul\":4438:4457   */\n      and\n        /* \"#utility.yul\":4431:4436   */\n      dup5\n        /* \"#utility.yul\":4428:4458   */\n      or\n        /* \"#utility.yul\":4418:4458   */\n      swap3\n      pop\n        /* \"#utility.yul\":4147:4464   */\n      pop\n      pop\n        /* \"#utility.yul\":4071:4464   */\n      swap4\n      swap3\n      pop\n      pop\n      pop\n      jump\t// out\n        /* \"#utility.yul\":4470:4530   */\n    tag_62:\n        /* \"#utility.yul\":4498:4501   */\n      0x00\n        /* \"#utility.yul\":4519:4524   */\n      dup2\n        /* \"#utility.yul\":4512:4524   */\n      swap1\n      pop\n        /* \"#utility.yul\":4470:4530   */\n      swap2\n      swap1\n      pop\n      jump\t// out\n        /* \"#utility.yul\":4536:4678   */\n    tag_63:\n        /* \"#utility.yul\":4586:4595   */\n      0x00\n        /* \"#utility.yul\":4619:4672   */\n      tag_118\n        /* \"#utility.yul\":4637:4671   */\n      tag_119\n        /* \"#utility.yul\":4646:4670   */\n      tag_120\n        /* \"#utility.yul\":4664:4669   */\n      dup5\n        /* \"#utility.yul\":4646:4670   */\n      tag_47\n      jump\t// in\n    tag_120:\n        /* \"#utility.yul\":4637:4671   */\n      tag_62\n      jump\t// in\n    tag_119:\n        /* \"#utility.yul\":4619:4672   */\n      tag_47\n      jump\t// in\n    tag_118:\n        /* \"#utility.yul\":4606:4672   */\n      swap1\n      pop\n        /* \"#utility.yul\":4536:4678   */\n      swap2\n      swap1\n      pop\n      jump\t// out\n        /* \"#utility.yul\":4684:4759   */\n    tag_64:\n        /* \"#utility.yul\":4727:4730   */\n      0x00\n        /* \"#utility.yul\":4748:4753   */\n      dup2\n        /* \"#utility.yul\":4741:4753   */\n      swap1\n      pop\n        /* \"#utility.yul\":4684:4759   */\n      swap2\n      swap1\n      pop\n      jump\t// out\n        /* \"#utility.yul\":4765:5034   */\n    tag_65:\n        /* \"#utility.yul\":4875:4914   */\n      tag_123\n        /* \"#utility.yul\":4906:4913   */\n      dup4\n        /* \"#utility.yul\":4875:4914   */\n      tag_63\n      jump\t// in\n    tag_123:\n        /* \"#utility.yul\":4936:5027   */\n      tag_124\n        /* \"#utility.yul\":4985:5026   */\n      tag_125\n        /* \"#utility.yul\":5009:5025   */\n      dup3\n        /* \"#utility.yul\":4985:5026   */\n      tag_64\n      jump\t// in\n    tag_125:\n        /* \"#utility.yul\":4977:4983   */\n      dup5\n        /* \"#utility.yul\":4970:4974   */\n      dup5\n        /* \"#utility.yul\":4964:4975   */\n      sload\n        /* \"#utility.yul\":4936:5027   */\n      tag_61\n      jump\t// in\n    tag_124:\n        /* \"#utility.yul\":4930:4934   */\n      dup3\n        /* \"#utility.yul\":4923:5028   */\n      sstore\n        /* \"#utility.yul\":4841:5034   */\n      pop\n        /* \"#utility.yul\":4765:5034   */\n      pop\n      pop\n      pop\n      jump\t// out\n        /* \"#utility.yul\":5040:5113   */\n    tag_66:\n        /* \"#utility.yul\":5085:5088   */\n      0x00\n        /* \"#utility.yul\":5106:5107   */\n      0x00\n        /* \"#utility.yul\":5099:5107   */\n      swap1\n      pop\n        /* \"#utility.yul\":5040:5113   */\n      swap1\n      jump\t// out\n        /* \"#utility.yul\":5119:5308   */\n    tag_67:\n        /* \"#utility.yul\":5196:5228   */\n      tag_128\n      tag_66\n      jump\t// in\n    tag_128:\n        /* \"#utility.yul\":5237:5302   */\n      tag_129\n        /* \"#utility.yul\":5295:5301   */\n      dup2\n        /* \"#utility.yul\":5287:5293   */\n      dup5\n        /* \"#utility.yul\":5281:5285   */\n      dup5\n        /* \"#utility.yul\":5237:5302   */\n      tag_65\n      jump\t// in\n    tag_129:\n        /* \"#utility.yul\":5172:5308   */\n      pop\n        /* \"#utility.yul\":5119:5308   */\n      pop\n      pop\n      jump\t// out\n        /* \"#utility.yul\":5314:5500   */\n    tag_68:\n        /* \"#utility.yul\":5374:5494   */\n    tag_131:\n        /* \"#utility.yul\":5391:5394   */\n      dup2\n        /* \"#utility.yul\":5384:5389   */\n      dup2\n        /* \"#utility.yul\":5381:5395   */\n      lt\n        /* \"#utility.yul\":5374:5494   */\n      iszero\n      tag_133\n      jumpi\n        /* \"#utility.yul\":5445:5484   */\n      tag_134\n        /* \"#utility.yul\":5482:5483   */\n      0x00\n        /* \"#utility.yul\":5475:5480   */\n      dup3\n        /* \"#utility.yul\":5445:5484   */\n      tag_67\n      jump\t// in\n    tag_134:\n        /* \"#utility.yul\":5418:5419   */\n      0x01\n        /* \"#utility.yul\":5411:5416   */\n      dup2\n        /* \"#utility.yul\":5407:5420   */\n      add\n        /* \"#utility.yul\":5398:5420   */\n      swap1\n      pop\n        /* \"#utility.yul\":5374:5494   */\n      jump(tag_131)\n    tag_133:\n        /* \"#utility.yul\":5314:5500   */\n      pop\n      pop\n      jump\t// out\n        /* \"#utility.yul\":5506:6049   */\n    tag_69:\n        /* \"#utility.yul\":5607:5609   */\n      0x1f\n        /* \"#utility.yul\":5602:5605   */\n      dup3\n        /* \"#utility.yul\":5599:5610   */\n      gt\n        /* \"#utility.yul\":5596:6042   */\n      iszero\n      tag_136\n      jumpi\n        /* \"#utility.yul\":5641:5679   */\n      tag_137\n        /* \"#utility.yul\":5673:5678   */\n      dup2\n        /* \"#utility.yul\":5641:5679   */\n      tag_58\n      jump\t// in\n    tag_137:\n        /* \"#utility.yul\":5725:5754   */\n      tag_138\n        /* \"#utility.yul\":5743:5753   */\n      dup5\n        /* \"#utility.yul\":5725:5754   */\n      tag_59\n      jump\t// in\n    tag_138:\n        /* \"#utility.yul\":5715:5723   */\n      dup2\n        /* \"#utility.yul\":5711:5755   */\n      add\n        /* \"#utility.yul\":5908:5910   */\n      0x20\n        /* \"#utility.yul\":5896:5906   */\n      dup6\n        /* \"#utility.yul\":5893:5911   */\n      lt\n        /* \"#utility.yul\":5890:5939   */\n      iszero\n      tag_139\n      jumpi\n        /* \"#utility.yul\":5929:5937   */\n      dup2\n        /* \"#utility.yul\":5914:5937   */\n      swap1\n      pop\n        /* \"#utility.yul\":5890:5939   */\n    tag_139:\n        /* \"#utility.yul\":5952:6032   */\n      tag_140\n        /* \"#utility.yul\":6008:6030   */\n      tag_141\n        /* \"#utility.yul\":6026:6029   */\n      dup6\n        /* \"#utility.yul\":6008:6030   */\n      tag_59\n      jump\t// in\n    tag_141:\n        /* \"#utility.yul\":5998:6006   */\n      dup4\n        /* \"#utility.yul\":5994:6031   */\n      add\n        /* \"#utility.yul\":5981:5992   */\n      dup3\n        /* \"#utility.yul\":5952:6032   */\n      tag_68\n      jump\t// in\n    tag_140:\n        /* \"#utility.yul\":5611:6042   */\n      pop\n      pop\n        /* \"#utility.yul\":5596:6042   */\n    tag_136:\n        /* \"#utility.yul\":5506:6049   */\n      pop\n      pop\n      pop\n      jump\t// out\n        /* \"#utility.yul\":6055:6172   */\n    tag_70:\n        /* \"#utility.yul\":6109:6117   */\n      0x00\n        /* \"#utility.yul\":6159:6164   */\n      dup3\n        /* \"#utility.yul\":6153:6157   */\n      dup3\n        /* \"#utility.yul\":6149:6165   */\n      shr\n        /* \"#utility.yul\":6128:6165   */\n      swap1\n      pop\n        /* \"#utility.yul\":6055:6172   */\n      swap3\n      swap2\n      pop\n      pop\n      jump\t// out\n        /* \"#utility.yul\":6178:6347   */\n    tag_71:\n        /* \"#utility.yul\":6222:6228   */\n      0x00\n        /* \"#utility.yul\":6255:6306   */\n      tag_144\n        /* \"#utility.yul\":6303:6304   */\n      0x00\n        /* \"#utility.yul\":6299:6305   */\n      not\n        /* \"#utility.yul\":6291:6296   */\n      dup5\n        /* \"#utility.yul\":6288:6289   */\n      0x08\n        /* \"#utility.yul\":6284:6297   */\n      mul\n        /* \"#utility.yul\":6255:6306   */\n      tag_70\n      jump\t// in\n    tag_144:\n        /* \"#utility.yul\":6251:6307   */\n      not\n        /* \"#utility.yul\":6336:6340   */\n      dup1\n        /* \"#utility.yul\":6330:6334   */\n      dup4\n        /* \"#utility.yul\":6326:6341   */\n      and\n        /* \"#utility.yul\":6316:6341   */\n      swap2\n      pop\n        /* \"#utility.yul\":6229:6347   */\n      pop\n        /* \"#utility.yul\":6178:6347   */\n      swap3\n      swap2\n      pop\n      pop\n      jump\t// out\n        /* \"#utility.yul\":6352:6647   */\n    tag_72:\n        /* \"#utility.yul\":6428:6432   */\n      0x00\n        /* \"#utility.yul\":6574:6603   */\n      tag_146\n        /* \"#utility.yul\":6599:6602   */\n      dup4\n        /* \"#utility.yul\":6593:6597   */\n      dup4\n        /* \"#utility.yul\":6574:6603   */\n      tag_71\n      jump\t// in\n    tag_146:\n        /* \"#utility.yul\":6566:6603   */\n      swap2\n      pop\n        /* \"#utility.yul\":6636:6639   */\n      dup3\n        /* \"#utility.yul\":6633:6634   */\n      0x02\n        /* \"#utility.yul\":6629:6640   */\n      mul\n        /* \"#utility.yul\":6623:6627   */\n      dup3\n        /* \"#utility.yul\":6620:6641   */\n      or\n        /* \"#utility.yul\":6612:6641   */\n      swap1\n      pop\n        /* \"#utility.yul\":6352:6647   */\n      swap3\n      swap2\n      pop\n      pop\n      jump\t// out\n        /* \"#utility.yul\":6652:8047   */\n    tag_22:\n        /* \"#utility.yul\":6769:6806   */\n      tag_148\n        /* \"#utility.yul\":6802:6805   */\n      dup3\n        /* \"#utility.yul\":6769:6806   */\n      tag_50\n      jump\t// in\n    tag_148:\n        /* \"#utility.yul\":6871:6889   */\n      0xffffffffffffffff\n        /* \"#utility.yul\":6863:6869   */\n      dup2\n        /* \"#utility.yul\":6860:6890   */\n      gt\n        /* \"#utility.yul\":6857:6913   */\n      iszero\n      tag_149\n      jumpi\n        /* \"#utility.yul\":6893:6911   */\n      tag_150\n      tag_56\n      jump\t// in\n    tag_150:\n        /* \"#utility.yul\":6857:6913   */\n    tag_149:\n        /* \"#utility.yul\":6937:6975   */\n      tag_151\n        /* \"#utility.yul\":6969:6973   */\n      dup3\n        /* \"#utility.yul\":6963:6974   */\n      sload\n        /* \"#utility.yul\":6937:6975   */\n      tag_27\n      jump\t// in\n    tag_151:\n        /* \"#utility.yul\":7022:7089   */\n      tag_152\n        /* \"#utility.yul\":7082:7088   */\n      dup3\n        /* \"#utility.yul\":7074:7080   */\n      dup3\n        /* \"#utility.yul\":7068:7072   */\n      dup6\n        /* \"#utility.yul\":7022:7089   */\n      tag_69\n      jump\t// in\n    tag_152:\n        /* \"#utility.yul\":7116:7117   */\n      0x00\n        /* \"#utility.yul\":7140:7144   */\n      0x20\n        /* \"#utility.yul\":7127:7144   */\n      swap1\n      pop\n        /* \"#utility.yul\":7172:7174   */\n      0x1f\n        /* \"#utility.yul\":7164:7170   */\n      dup4\n        /* \"#utility.yul\":7161:7175   */\n      gt\n        /* \"#utility.yul\":7189:7190   */\n      0x01\n        /* \"#utility.yul\":7184:7802   */\n      dup2\n      eq\n      tag_154\n      jumpi\n        /* \"#utility.yul\":7846:7847   */\n      0x00\n        /* \"#utility.yul\":7863:7869   */\n      dup5\n        /* \"#utility.yul\":7860:7937   */\n      iszero\n      tag_155\n      jumpi\n        /* \"#utility.yul\":7912:7921   */\n      dup3\n        /* \"#utility.yul\":7907:7910   */\n      dup8\n        /* \"#utility.yul\":7903:7922   */\n      add\n        /* \"#utility.yul\":7897:7923   */\n      mload\n        /* \"#utility.yul\":7888:7923   */\n      swap1\n      pop\n        /* \"#utility.yul\":7860:7937   */\n    tag_155:\n        /* \"#utility.yul\":7963:8030   */\n      tag_156\n        /* \"#utility.yul\":8023:8029   */\n      dup6\n        /* \"#utility.yul\":8016:8021   */\n      dup3\n        /* \"#utility.yul\":7963:8030   */\n      tag_72\n      jump\t// in\n    tag_156:\n        /* \"#utility.yul\":7957:7961   */\n      dup7\n        /* \"#utility.yul\":7950:8031   */\n      sstore\n        /* \"#utility.yul\":7819:8041   */\n      pop\n        /* \"#utility.yul\":7154:8041   */\n      jump(tag_153)\n        /* \"#utility.yul\":7184:7802   */\n    tag_154:\n        /* \"#utility.yul\":7236:7240   */\n      0x1f\n        /* \"#utility.yul\":7232:7241   */\n      not\n        /* \"#utility.yul\":7224:7230   */\n      dup5\n        /* \"#utility.yul\":7220:7242   */\n      and\n        /* \"#utility.yul\":7270:7307   */\n      tag_157\n        /* \"#utility.yul\":7302:7306   */\n      dup7\n        /* \"#utility.yul\":7270:7307   */\n      tag_58\n      jump\t// in\n    tag_157:\n        /* \"#utility.yul\":7329:7330   */\n      0x00\n        /* \"#utility.yul\":7343:7551   */\n    tag_158:\n        /* \"#utility.yul\":7357:7364   */\n      dup3\n        /* \"#utility.yul\":7354:7355   */\n      dup2\n        /* \"#utility.yul\":7351:7365   */\n      lt\n        /* \"#utility.yul\":7343:7551   */\n      iszero\n      tag_160\n      jumpi\n        /* \"#utility.yul\":7436:7445   */\n      dup5\n        /* \"#utility.yul\":7431:7434   */\n      dup10\n        /* \"#utility.yul\":7427:7446   */\n      add\n        /* \"#utility.yul\":7421:7447   */\n      mload\n        /* \"#utility.yul\":7413:7419   */\n      dup3\n        /* \"#utility.yul\":7406:7448   */\n      sstore\n        /* \"#utility.yul\":7487:7488   */\n      0x01\n        /* \"#utility.yul\":7479:7485   */\n      dup3\n        /* \"#utility.yul\":7475:7489   */\n      add\n        /* \"#utility.yul\":7465:7489   */\n      swap2\n      pop\n        /* \"#utility.yul\":7534:7536   */\n      0x20\n        /* \"#utility.yul\":7523:7532   */\n      dup6\n        /* \"#utility.yul\":7519:7537   */\n      add\n        /* \"#utility.yul\":7506:7537   */\n      swap5\n      pop\n        /* \"#utility.yul\":7380:7384   */\n      0x20\n        /* \"#utility.yul\":7377:7378   */\n      dup2\n        /* \"#utility.yul\":7373:7385   */\n      add\n        /* \"#utility.yul\":7368:7385   */\n      swap1\n      pop\n        /* \"#utility.yul\":7343:7551   */\n      jump(tag_158)\n    tag_160:\n        /* \"#utility.yul\":7579:7585   */\n      dup7\n        /* \"#utility.yul\":7570:7577   */\n      dup4\n        /* \"#utility.yul\":7567:7586   */\n      lt\n        /* \"#utility.yul\":7564:7743   */\n      iszero\n      tag_161\n      jumpi\n        /* \"#utility.yul\":7637:7646   */\n      dup5\n        /* \"#utility.yul\":7632:7635   */\n      dup10\n        /* \"#utility.yul\":7628:7647   */\n      add\n        /* \"#utility.yul\":7622:7648   */\n      mload\n        /* \"#utility.yul\":7680:7728   */\n      tag_162\n        /* \"#utility.yul\":7722:7726   */\n      0x1f\n        /* \"#utility.yul\":7714:7720   */\n      dup10\n        /* \"#utility.yul\":7710:7727   */\n      and\n        /* \"#utility.yul\":7699:7708   */\n      dup3\n        /* \"#utility.yul\":7680:7728   */\n      tag_71\n      jump\t// in\n    tag_162:\n        /* \"#utility.yul\":7672:7678   */\n      dup4\n        /* \"#utility.yul\":7665:7729   */\n      sstore\n        /* \"#utility.yul\":7587:7743   */\n      pop\n        /* \"#utility.yul\":7564:7743   */\n    tag_161:\n        /* \"#utility.yul\":7789:7790   */\n      0x01\n        /* \"#utility.yul\":7785:7786   */\n      0x02\n        /* \"#utility.yul\":7777:7783   */\n      dup9\n        /* \"#utility.yul\":7773:7787   */\n      mul\n        /* \"#utility.yul\":7769:7791   */\n      add\n        /* \"#utility.yul\":7763:7767   */\n      dup9\n        /* \"#utility.yul\":7756:7792   */\n      sstore\n        /* \"#utility.yul\":7191:7802   */\n      pop\n      pop\n      pop\n        /* \"#utility.yul\":7154:8041   */\n    tag_153:\n      pop\n        /* \"#utility.yul\":6744:8047   */\n      pop\n      pop\n      pop\n        /* \"#utility.yul\":6652:8047   */\n      pop\n      pop\n      jump\t// out\n\n    auxdata: 0xa2646970667358221220f3d3ac39ea8f57d06cc6f1f634bbc4b0776edf8331f619f4a410de5c2aea35e864736f6c634300081e0033\n}\n",
				"bytecode": {
					"linkReferences": {},
					"object": "608060405260405180606001604052806040518060400160405280600581526020017f4e616e646100000000000000000000000000000000000000000000000000000081525081526020016040518060400160405280600581526020017f526979616e00000000000000000000000000000000000000000000000000000081525081526020016040518060400160405280600481526020017f46616971000000000000000000000000000000000000000000000000000000008152508152505f9060036100cd9291906100df565b503480156100d9575f5ffd5b506104bd565b828054828255905f5260205f20908101928215610125579160200282015b8281111561012457825182908161011491906103ee565b50916020019190600101906100fd565b5b5090506101329190610136565b5090565b5b80821115610155575f818161014c9190610159565b50600101610137565b5090565b50805461016590610215565b5f825580601f106101765750610193565b601f0160209004905f5260205f20908101906101929190610196565b5b50565b5b808211156101ad575f815f905550600101610197565b5090565b5f81519050919050565b7f4e487b71000000000000000000000000000000000000000000000000000000005f52604160045260245ffd5b7f4e487b71000000000000000000000000000000000000000000000000000000005f52602260045260245ffd5b5f600282049050600182168061022c57607f821691505b60208210810361023f5761023e6101e8565b5b50919050565b5f819050815f5260205f209050919050565b5f6020601f8301049050919050565b5f82821b905092915050565b5f600883026102a17fffffffffffffffffffffffffffffffffffffffffffffffffffffffffffffffff82610266565b6102ab8683610266565b95508019841693508086168417925050509392505050565b5f819050919050565b5f819050919050565b5f6102ef6102ea6102e5846102c3565b6102cc565b6102c3565b9050919050565b5f819050919050565b610308836102d5565b61031c610314826102f6565b848454610272565b825550505050565b5f5f905090565b610333610324565b61033e8184846102ff565b505050565b5b81811015610361576103565f8261032b565b600181019050610344565b5050565b601f8211156103a65761037781610245565b61038084610257565b8101602085101561038f578190505b6103a361039b85610257565b830182610343565b50505b505050565b5f82821c905092915050565b5f6103c65f19846008026103ab565b1980831691505092915050565b5f6103de83836103b7565b9150826002028217905092915050565b6103f7826101b1565b67ffffffffffffffff8111156104105761040f6101bb565b5b61041a8254610215565b610425828285610365565b5f60209050601f831160018114610456575f8415610444578287015190505b61044e85826103d3565b8655506104b5565b601f19841661046486610245565b5f5b8281101561048b57848901518255600182019150602085019450602081019050610466565b868310156104a857848901516104a4601f8916826103b7565b8355505b6001600288020188555050505b505050505050565b6107ee806104ca5f395ff3fe608060405234801561000f575f5ffd5b506004361061003f575f3560e01c80634335101d146100435780638102fced1461004d578063a8d4a03b1461007d575b5f5ffd5b61004b6100af565b005b610067600480360381019061006291906103b2565b610195565b604051610074919061044d565b60405180910390f35b610097600480360381019061009291906103b2565b61023a565b6040516100a69392919061047c565b60405180910390f35b600160405180606001604052806040518060400160405280600581526020017f526979616e0000000000000000000000000000000000000000000000000000008152508152602001601181526020016040518060400160405280600581526020017f54656c7572000000000000000000000000000000000000000000000000000000815250815250908060018154018082558091505060019003905f5260205f2090600302015f909190919091505f820151815f01908161017091906106e9565b5060208201518160010155604082015181600201908161019091906106e9565b505050565b5f81815481106101a3575f80fd5b905f5260205f20015f9150905080546101bb90610519565b80601f01602080910402602001604051908101604052809291908181526020018280546101e790610519565b80156102325780601f1061020957610100808354040283529160200191610232565b820191905f5260205f20905b81548152906001019060200180831161021557829003601f168201915b505050505081565b60018181548110610249575f80fd5b905f5260205f2090600302015f91509050805f01805461026890610519565b80601f016020809104026020016040519081016040528092919081815260200182805461029490610519565b80156102df5780601f106102b6576101008083540402835291602001916102df565b820191905f5260205f20905b8154815290600101906020018083116102c257829003601f168201915b5050505050908060010154908060020180546102fa90610519565b80601f016020809104026020016040519081016040528092919081815260200182805461032690610519565b80156103715780601f1061034857610100808354040283529160200191610371565b820191905f5260205f20905b81548152906001019060200180831161035457829003601f168201915b5050505050905083565b5f5ffd5b5f819050919050565b6103918161037f565b811461039b575f5ffd5b50565b5f813590506103ac81610388565b92915050565b5f602082840312156103c7576103c661037b565b5b5f6103d48482850161039e565b91505092915050565b5f81519050919050565b5f82825260208201905092915050565b8281835e5f83830152505050565b5f601f19601f8301169050919050565b5f61041f826103dd565b61042981856103e7565b93506104398185602086016103f7565b61044281610405565b840191505092915050565b5f6020820190508181035f8301526104658184610415565b905092915050565b6104768161037f565b82525050565b5f6060820190508181035f8301526104948186610415565b90506104a3602083018561046d565b81810360408301526104b58184610415565b9050949350505050565b7f4e487b71000000000000000000000000000000000000000000000000000000005f52604160045260245ffd5b7f4e487b71000000000000000000000000000000000000000000000000000000005f52602260045260245ffd5b5f600282049050600182168061053057607f821691505b602082108103610543576105426104ec565b5b50919050565b5f819050815f5260205f209050919050565b5f6020601f8301049050919050565b5f82821b905092915050565b5f600883026105a57fffffffffffffffffffffffffffffffffffffffffffffffffffffffffffffffff8261056a565b6105af868361056a565b95508019841693508086168417925050509392505050565b5f819050919050565b5f6105ea6105e56105e08461037f565b6105c7565b61037f565b9050919050565b5f819050919050565b610603836105d0565b61061761060f826105f1565b848454610576565b825550505050565b5f5f905090565b61062e61061f565b6106398184846105fa565b505050565b5b8181101561065c576106515f82610626565b60018101905061063f565b5050565b601f8211156106a15761067281610549565b61067b8461055b565b8101602085101561068a578190505b61069e6106968561055b565b83018261063e565b50505b505050565b5f82821c905092915050565b5f6106c15f19846008026106a6565b1980831691505092915050565b5f6106d983836106b2565b9150826002028217905092915050565b6106f2826103dd565b67ffffffffffffffff81111561070b5761070a6104bf565b5b6107158254610519565b610720828285610660565b5f60209050601f831160018114610751575f841561073f578287015190505b61074985826106ce565b8655506107b0565b601f19841661075f86610549565b5f5b8281101561078657848901518255600182019150602085019450602081019050610761565b868310156107a3578489015161079f601f8916826106b2565b8355505b6001600288020188555050505b50505050505056fea2646970667358221220f3d3ac39ea8f57d06cc6f1f634bbc4b0776edf8331f619f4a410de5c2aea35e864736f6c634300081e0033",
					"opcodes": "PUSH1 0x80 PUSH1 0x40 MSTORE PUSH1 0x40 MLOAD DUP1 PUSH1 0x60 ADD PUSH1 0x40 MSTORE DUP1 PUSH1 0x40 MLOAD DUP1 PUSH1 0x40 ADD PUSH1 0x40 MSTORE DUP1 PUSH1 0x5 DUP2 MSTORE PUSH1 0x20 ADD PUSH32 0x4E616E6461000000000000000000000000000000000000000000000000000000 DUP2 MSTORE POP DUP2 MSTORE PUSH1 0x20 ADD PUSH1 0x40 MLOAD DUP1 PUSH1 0x40 ADD PUSH1 0x40 MSTORE DUP1 PUSH1 0x5 DUP2 MSTORE PUSH1 0x20 ADD PUSH32 0x526979616E000000000000000000000000000000000000000000000000000000 DUP2 MSTORE POP DUP2 MSTORE PUSH1 0x20 ADD PUSH1 0x40 MLOAD DUP1 PUSH1 0x40 ADD PUSH1 0x40 MSTORE DUP1 PUSH1 0x4 DUP2 MSTORE PUSH1 0x20 ADD PUSH32 0x4661697100000000000000000000000000000000000000000000000000000000 DUP2 MSTORE POP DUP2 MSTORE POP PUSH0 SWAP1 PUSH1 0x3 PUSH2 0xCD SWAP3 SWAP2 SWAP1 PUSH2 0xDF JUMP JUMPDEST POP CALLVALUE DUP1 ISZERO PUSH2 0xD9 JUMPI PUSH0 PUSH0 REVERT JUMPDEST POP PUSH2 0x4BD JUMP JUMPDEST DUP3 DUP1 SLOAD DUP3 DUP3 SSTORE SWAP1 PUSH0 MSTORE PUSH1 0x20 PUSH0 KECCAK256 SWAP1 DUP2 ADD SWAP3 DUP3 ISZERO PUSH2 0x125 JUMPI SWAP2 PUSH1 0x20 MUL DUP3 ADD JUMPDEST DUP3 DUP2 GT ISZERO PUSH2 0x124 JUMPI DUP3 MLOAD DUP3 SWAP1 DUP2 PUSH2 0x114 SWAP2 SWAP1 PUSH2 0x3EE JUMP JUMPDEST POP SWAP2 PUSH1 0x20 ADD SWAP2 SWAP1 PUSH1 0x1 ADD SWAP1 PUSH2 0xFD JUMP JUMPDEST JUMPDEST POP SWAP1 POP PUSH2 0x132 SWAP2 SWAP1 PUSH2 0x136 JUMP JUMPDEST POP SWAP1 JUMP JUMPDEST JUMPDEST DUP1 DUP3 GT ISZERO PUSH2 0x155 JUMPI PUSH0 DUP2 DUP2 PUSH2 0x14C SWAP2 SWAP1 PUSH2 0x159 JUMP JUMPDEST POP PUSH1 0x1 ADD PUSH2 0x137 JUMP JUMPDEST POP SWAP1 JUMP JUMPDEST POP DUP1 SLOAD PUSH2 0x165 SWAP1 PUSH2 0x215 JUMP JUMPDEST PUSH0 DUP3 SSTORE DUP1 PUSH1 0x1F LT PUSH2 0x176 JUMPI POP PUSH2 0x193 JUMP JUMPDEST PUSH1 0x1F ADD PUSH1 0x20 SWAP1 DIV SWAP1 PUSH0 MSTORE PUSH1 0x20 PUSH0 KECCAK256 SWAP1 DUP2 ADD SWAP1 PUSH2 0x192 SWAP2 SWAP1 PUSH2 0x196 JUMP JUMPDEST JUMPDEST POP JUMP JUMPDEST JUMPDEST DUP1 DUP3 GT ISZERO PUSH2 0x1AD JUMPI PUSH0 DUP2 PUSH0 SWAP1 SSTORE POP PUSH1 0x1 ADD PUSH2 0x197 JUMP JUMPDEST POP SWAP1 JUMP JUMPDEST PUSH0 DUP2 MLOAD SWAP1 POP SWAP2 SWAP1 POP JUMP JUMPDEST PUSH32 0x4E487B7100000000000000000000000000000000000000000000000000000000 PUSH0 MSTORE PUSH1 0x41 PUSH1 0x4 MSTORE PUSH1 0x24 PUSH0 REVERT JUMPDEST PUSH32 0x4E487B7100000000000000000000000000000000000000000000000000000000 PUSH0 MSTORE PUSH1 0x22 PUSH1 0x4 MSTORE PUSH1 0x24 PUSH0 REVERT JUMPDEST PUSH0 PUSH1 0x2 DUP3 DIV SWAP1 POP PUSH1 0x1 DUP3 AND DUP1 PUSH2 0x22C JUMPI PUSH1 0x7F DUP3 AND SWAP2 POP JUMPDEST PUSH1 0x20 DUP3 LT DUP2 SUB PUSH2 0x23F JUMPI PUSH2 0x23E PUSH2 0x1E8 JUMP JUMPDEST JUMPDEST POP SWAP2 SWAP1 POP JUMP JUMPDEST PUSH0 DUP2 SWAP1 POP DUP2 PUSH0 MSTORE PUSH1 0x20 PUSH0 KECCAK256 SWAP1 POP SWAP2 SWAP1 POP JUMP JUMPDEST PUSH0 PUSH1 0x20 PUSH1 0x1F DUP4 ADD DIV SWAP1 POP SWAP2 SWAP1 POP JUMP JUMPDEST PUSH0 DUP3 DUP3 SHL SWAP1 POP SWAP3 SWAP2 POP POP JUMP JUMPDEST PUSH0 PUSH1 0x8 DUP4 MUL PUSH2 0x2A1 PUSH32 0xFFFFFFFFFFFFFFFFFFFFFFFFFFFFFFFFFFFFFFFFFFFFFFFFFFFFFFFFFFFFFFFF DUP3 PUSH2 0x266 JUMP JUMPDEST PUSH2 0x2AB DUP7 DUP4 PUSH2 0x266 JUMP JUMPDEST SWAP6 POP DUP1 NOT DUP5 AND SWAP4 POP DUP1 DUP7 AND DUP5 OR SWAP3 POP POP POP SWAP4 SWAP3 POP POP POP JUMP JUMPDEST PUSH0 DUP2 SWAP1 POP SWAP2 SWAP1 POP JUMP JUMPDEST PUSH0 DUP2 SWAP1 POP SWAP2 SWAP1 POP JUMP JUMPDEST PUSH0 PUSH2 0x2EF PUSH2 0x2EA PUSH2 0x2E5 DUP5 PUSH2 0x2C3 JUMP JUMPDEST PUSH2 0x2CC JUMP JUMPDEST PUSH2 0x2C3 JUMP JUMPDEST SWAP1 POP SWAP2 SWAP1 POP JUMP JUMPDEST PUSH0 DUP2 SWAP1 POP SWAP2 SWAP1 POP JUMP JUMPDEST PUSH2 0x308 DUP4 PUSH2 0x2D5 JUMP JUMPDEST PUSH2 0x31C PUSH2 0x314 DUP3 PUSH2 0x2F6 JUMP JUMPDEST DUP5 DUP5 SLOAD PUSH2 0x272 JUMP JUMPDEST DUP3 SSTORE POP POP POP POP JUMP JUMPDEST PUSH0 PUSH0 SWAP1 POP SWAP1 JUMP JUMPDEST PUSH2 0x333 PUSH2 0x324 JUMP JUMPDEST PUSH2 0x33E DUP2 DUP5 DUP5 PUSH2 0x2FF JUMP JUMPDEST POP POP POP JUMP JUMPDEST JUMPDEST DUP2 DUP2 LT ISZERO PUSH2 0x361 JUMPI PUSH2 0x356 PUSH0 DUP3 PUSH2 0x32B JUMP JUMPDEST PUSH1 0x1 DUP2 ADD SWAP1 POP PUSH2 0x344 JUMP JUMPDEST POP POP JUMP JUMPDEST PUSH1 0x1F DUP3 GT ISZERO PUSH2 0x3A6 JUMPI PUSH2 0x377 DUP2 PUSH2 0x245 JUMP JUMPDEST PUSH2 0x380 DUP5 PUSH2 0x257 JUMP JUMPDEST DUP2 ADD PUSH1 0x20 DUP6 LT ISZERO PUSH2 0x38F JUMPI DUP2 SWAP1 POP JUMPDEST PUSH2 0x3A3 PUSH2 0x39B DUP6 PUSH2 0x257 JUMP JUMPDEST DUP4 ADD DUP3 PUSH2 0x343 JUMP JUMPDEST POP POP JUMPDEST POP POP POP JUMP JUMPDEST PUSH0 DUP3 DUP3 SHR SWAP1 POP SWAP3 SWAP2 POP POP JUMP JUMPDEST PUSH0 PUSH2 0x3C6 PUSH0 NOT DUP5 PUSH1 0x8 MUL PUSH2 0x3AB JUMP JUMPDEST NOT DUP1 DUP4 AND SWAP2 POP POP SWAP3 SWAP2 POP POP JUMP JUMPDEST PUSH0 PUSH2 0x3DE DUP4 DUP4 PUSH2 0x3B7 JUMP JUMPDEST SWAP2 POP DUP3 PUSH1 0x2 MUL DUP3 OR SWAP1 POP SWAP3 SWAP2 POP POP JUMP JUMPDEST PUSH2 0x3F7 DUP3 PUSH2 0x1B1 JUMP JUMPDEST PUSH8 0xFFFFFFFFFFFFFFFF DUP2 GT ISZERO PUSH2 0x410 JUMPI PUSH2 0x40F PUSH2 0x1BB JUMP JUMPDEST JUMPDEST PUSH2 0x41A DUP3 SLOAD PUSH2 0x215 JUMP JUMPDEST PUSH2 0x425 DUP3 DUP3 DUP6 PUSH2 0x365 JUMP JUMPDEST PUSH0 PUSH1 0x20 SWAP1 POP PUSH1 0x1F DUP4 GT PUSH1 0x1 DUP2 EQ PUSH2 0x456 JUMPI PUSH0 DUP5 ISZERO PUSH2 0x444 JUMPI DUP3 DUP8 ADD MLOAD SWAP1 POP JUMPDEST PUSH2 0x44E DUP6 DUP3 PUSH2 0x3D3 JUMP JUMPDEST DUP7 SSTORE POP PUSH2 0x4B5 JUMP JUMPDEST PUSH1 0x1F NOT DUP5 AND PUSH2 0x464 DUP7 PUSH2 0x245 JUMP JUMPDEST PUSH0 JUMPDEST DUP3 DUP2 LT ISZERO PUSH2 0x48B JUMPI DUP5 DUP10 ADD MLOAD DUP3 SSTORE PUSH1 0x1 DUP3 ADD SWAP2 POP PUSH1 0x20 DUP6 ADD SWAP5 POP PUSH1 0x20 DUP2 ADD SWAP1 POP PUSH2 0x466 JUMP JUMPDEST DUP7 DUP4 LT ISZERO PUSH2 0x4A8 JUMPI DUP5 DUP10 ADD MLOAD PUSH2 0x4A4 PUSH1 0x1F DUP10 AND DUP3 PUSH2 0x3B7 JUMP JUMPDEST DUP4 SSTORE POP JUMPDEST PUSH1 0x1 PUSH1 0x2 DUP9 MUL ADD DUP9 SSTORE POP POP POP JUMPDEST POP POP POP POP POP POP JUMP JUMPDEST PUSH2 0x7EE DUP1 PUSH2 0x4CA PUSH0 CODECOPY PUSH0 RETURN INVALID PUSH1 0x80 PUSH1 0x40 MSTORE CALLVALUE DUP1 ISZERO PUSH2 0xF JUMPI PUSH0 PUSH0 REVERT JUMPDEST POP PUSH1 0x4 CALLDATASIZE LT PUSH2 0x3F JUMPI PUSH0 CALLDATALOAD PUSH1 0xE0 SHR DUP1 PUSH4 0x4335101D EQ PUSH2 0x43 JUMPI DUP1 PUSH4 0x8102FCED EQ PUSH2 0x4D JUMPI DUP1 PUSH4 0xA8D4A03B EQ PUSH2 0x7D JUMPI JUMPDEST PUSH0 PUSH0 REVERT JUMPDEST PUSH2 0x4B PUSH2 0xAF JUMP JUMPDEST STOP JUMPDEST PUSH2 0x67 PUSH1 0x4 DUP1 CALLDATASIZE SUB DUP2 ADD SWAP1 PUSH2 0x62 SWAP2 SWAP1 PUSH2 0x3B2 JUMP JUMPDEST PUSH2 0x195 JUMP JUMPDEST PUSH1 0x40 MLOAD PUSH2 0x74 SWAP2 SWAP1 PUSH2 0x44D JUMP JUMPDEST PUSH1 0x40 MLOAD DUP1 SWAP2 SUB SWAP1 RETURN JUMPDEST PUSH2 0x97 PUSH1 0x4 DUP1 CALLDATASIZE SUB DUP2 ADD SWAP1 PUSH2 0x92 SWAP2 SWAP1 PUSH2 0x3B2 JUMP JUMPDEST PUSH2 0x23A JUMP JUMPDEST PUSH1 0x40 MLOAD PUSH2 0xA6 SWAP4 SWAP3 SWAP2 SWAP1 PUSH2 0x47C JUMP JUMPDEST PUSH1 0x40 MLOAD DUP1 SWAP2 SUB SWAP1 RETURN JUMPDEST PUSH1 0x1 PUSH1 0x40 MLOAD DUP1 PUSH1 0x60 ADD PUSH1 0x40 MSTORE DUP1 PUSH1 0x40 MLOAD DUP1 PUSH1 0x40 ADD PUSH1 0x40 MSTORE DUP1 PUSH1 0x5 DUP2 MSTORE PUSH1 0x20 ADD PUSH32 0x526979616E000000000000000000000000000000000000000000000000000000 DUP2 MSTORE POP DUP2 MSTORE PUSH1 0x20 ADD PUSH1 0x11 DUP2 MSTORE PUSH1 0x20 ADD PUSH1 0x40 MLOAD DUP1 PUSH1 0x40 ADD PUSH1 0x40 MSTORE DUP1 PUSH1 0x5 DUP2 MSTORE PUSH1 0x20 ADD PUSH32 0x54656C7572000000000000000000000000000000000000000000000000000000 DUP2 MSTORE POP DUP2 MSTORE POP SWAP1 DUP1 PUSH1 0x1 DUP2 SLOAD ADD DUP1 DUP3 SSTORE DUP1 SWAP2 POP POP PUSH1 0x1 SWAP1 SUB SWAP1 PUSH0 MSTORE PUSH1 0x20 PUSH0 KECCAK256 SWAP1 PUSH1 0x3 MUL ADD PUSH0 SWAP1 SWAP2 SWAP1 SWAP2 SWAP1 SWAP2 POP PUSH0 DUP3 ADD MLOAD DUP2 PUSH0 ADD SWAP1 DUP2 PUSH2 0x170 SWAP2 SWAP1 PUSH2 0x6E9 JUMP JUMPDEST POP PUSH1 0x20 DUP3 ADD MLOAD DUP2 PUSH1 0x1 ADD SSTORE PUSH1 0x40 DUP3 ADD MLOAD DUP2 PUSH1 0x2 ADD SWAP1 DUP2 PUSH2 0x190 SWAP2 SWAP1 PUSH2 0x6E9 JUMP JUMPDEST POP POP POP JUMP JUMPDEST PUSH0 DUP2 DUP2 SLOAD DUP2 LT PUSH2 0x1A3 JUMPI PUSH0 DUP1 REVERT JUMPDEST SWAP1 PUSH0 MSTORE PUSH1 0x20 PUSH0 KECCAK256 ADD PUSH0 SWAP2 POP SWAP1 POP DUP1 SLOAD PUSH2 0x1BB SWAP1 PUSH2 0x519 JUMP JUMPDEST DUP1 PUSH1 0x1F ADD PUSH1 0x20 DUP1 SWAP2 DIV MUL PUSH1 0x20 ADD PUSH1 0x40 MLOAD SWAP1 DUP2 ADD PUSH1 0x40 MSTORE DUP1 SWAP3 SWAP2 SWAP1 DUP2 DUP2 MSTORE PUSH1 0x20 ADD DUP3 DUP1 SLOAD PUSH2 0x1E7 SWAP1 PUSH2 0x519 JUMP JUMPDEST DUP1 ISZERO PUSH2 0x232 JUMPI DUP1 PUSH1 0x1F LT PUSH2 0x209 JUMPI PUSH2 0x100 DUP1 DUP4 SLOAD DIV MUL DUP4 MSTORE SWAP2 PUSH1 0x20 ADD SWAP2 PUSH2 0x232 JUMP JUMPDEST DUP3 ADD SWAP2 SWAP1 PUSH0 MSTORE PUSH1 0x20 PUSH0 KECCAK256 SWAP1 JUMPDEST DUP2 SLOAD DUP2 MSTORE SWAP1 PUSH1 0x1 ADD SWAP1 PUSH1 0x20 ADD DUP1 DUP4 GT PUSH2 0x215 JUMPI DUP3 SWAP1 SUB PUSH1 0x1F AND DUP3 ADD SWAP2 JUMPDEST POP POP POP POP POP DUP2 JUMP JUMPDEST PUSH1 0x1 DUP2 DUP2 SLOAD DUP2 LT PUSH2 0x249 JUMPI PUSH0 DUP1 REVERT JUMPDEST SWAP1 PUSH0 MSTORE PUSH1 0x20 PUSH0 KECCAK256 SWAP1 PUSH1 0x3 MUL ADD PUSH0 SWAP2 POP SWAP1 POP DUP1 PUSH0 ADD DUP1 SLOAD PUSH2 0x268 SWAP1 PUSH2 0x519 JUMP JUMPDEST DUP1 PUSH1 0x1F ADD PUSH1 0x20 DUP1 SWAP2 DIV MUL PUSH1 0x20 ADD PUSH1 0x40 MLOAD SWAP1 DUP2 ADD PUSH1 0x40 MSTORE DUP1 SWAP3 SWAP2 SWAP1 DUP2 DUP2 MSTORE PUSH1 0x20 ADD DUP3 DUP1 SLOAD PUSH2 0x294 SWAP1 PUSH2 0x519 JUMP JUMPDEST DUP1 ISZERO PUSH2 0x2DF JUMPI DUP1 PUSH1 0x1F LT PUSH2 0x2B6 JUMPI PUSH2 0x100 DUP1 DUP4 SLOAD DIV MUL DUP4 MSTORE SWAP2 PUSH1 0x20 ADD SWAP2 PUSH2 0x2DF JUMP JUMPDEST DUP3 ADD SWAP2 SWAP1 PUSH0 MSTORE PUSH1 0x20 PUSH0 KECCAK256 SWAP1 JUMPDEST DUP2 SLOAD DUP2 MSTORE SWAP1 PUSH1 0x1 ADD SWAP1 PUSH1 0x20 ADD DUP1 DUP4 GT PUSH2 0x2C2 JUMPI DUP3 SWAP1 SUB PUSH1 0x1F AND DUP3 ADD SWAP2 JUMPDEST POP POP POP POP POP SWAP1 DUP1 PUSH1 0x1 ADD SLOAD SWAP1 DUP1 PUSH1 0x2 ADD DUP1 SLOAD PUSH2 0x2FA SWAP1 PUSH2 0x519 JUMP JUMPDEST DUP1 PUSH1 0x1F ADD PUSH1 0x20 DUP1 SWAP2 DIV MUL PUSH1 0x20 ADD PUSH1 0x40 MLOAD SWAP1 DUP2 ADD PUSH1 0x40 MSTORE DUP1 SWAP3 SWAP2 SWAP1 DUP2 DUP2 MSTORE PUSH1 0x20 ADD DUP3 DUP1 SLOAD PUSH2 0x326 SWAP1 PUSH2 0x519 JUMP JUMPDEST DUP1 ISZERO PUSH2 0x371 JUMPI DUP1 PUSH1 0x1F LT PUSH2 0x348 JUMPI PUSH2 0x100 DUP1 DUP4 SLOAD DIV MUL DUP4 MSTORE SWAP2 PUSH1 0x20 ADD SWAP2 PUSH2 0x371 JUMP JUMPDEST DUP3 ADD SWAP2 SWAP1 PUSH0 MSTORE PUSH1 0x20 PUSH0 KECCAK256 SWAP1 JUMPDEST DUP2 SLOAD DUP2 MSTORE SWAP1 PUSH1 0x1 ADD SWAP1 PUSH1 0x20 ADD DUP1 DUP4 GT PUSH2 0x354 JUMPI DUP3 SWAP1 SUB PUSH1 0x1F AND DUP3 ADD SWAP2 JUMPDEST POP POP POP POP POP SWAP1 POP DUP4 JUMP JUMPDEST PUSH0 PUSH0 REVERT JUMPDEST PUSH0 DUP2 SWAP1 POP SWAP2 SWAP1 POP JUMP JUMPDEST PUSH2 0x391 DUP2 PUSH2 0x37F JUMP JUMPDEST DUP2 EQ PUSH2 0x39B JUMPI PUSH0 PUSH0 REVERT JUMPDEST POP JUMP JUMPDEST PUSH0 DUP2 CALLDATALOAD SWAP1 POP PUSH2 0x3AC DUP2 PUSH2 0x388 JUMP JUMPDEST SWAP3 SWAP2 POP POP JUMP JUMPDEST PUSH0 PUSH1 0x20 DUP3 DUP5 SUB SLT ISZERO PUSH2 0x3C7 JUMPI PUSH2 0x3C6 PUSH2 0x37B JUMP JUMPDEST JUMPDEST PUSH0 PUSH2 0x3D4 DUP5 DUP3 DUP6 ADD PUSH2 0x39E JUMP JUMPDEST SWAP2 POP POP SWAP3 SWAP2 POP POP JUMP JUMPDEST PUSH0 DUP2 MLOAD SWAP1 POP SWAP2 SWAP1 POP JUMP JUMPDEST PUSH0 DUP3 DUP3 MSTORE PUSH1 0x20 DUP3 ADD SWAP1 POP SWAP3 SWAP2 POP POP JUMP JUMPDEST DUP3 DUP2 DUP4 MCOPY PUSH0 DUP4 DUP4 ADD MSTORE POP POP POP JUMP JUMPDEST PUSH0 PUSH1 0x1F NOT PUSH1 0x1F DUP4 ADD AND SWAP1 POP SWAP2 SWAP1 POP JUMP JUMPDEST PUSH0 PUSH2 0x41F DUP3 PUSH2 0x3DD JUMP JUMPDEST PUSH2 0x429 DUP2 DUP6 PUSH2 0x3E7 JUMP JUMPDEST SWAP4 POP PUSH2 0x439 DUP2 DUP6 PUSH1 0x20 DUP7 ADD PUSH2 0x3F7 JUMP JUMPDEST PUSH2 0x442 DUP2 PUSH2 0x405 JUMP JUMPDEST DUP5 ADD SWAP2 POP POP SWAP3 SWAP2 POP POP JUMP JUMPDEST PUSH0 PUSH1 0x20 DUP3 ADD SWAP1 POP DUP2 DUP2 SUB PUSH0 DUP4 ADD MSTORE PUSH2 0x465 DUP2 DUP5 PUSH2 0x415 JUMP JUMPDEST SWAP1 POP SWAP3 SWAP2 POP POP JUMP JUMPDEST PUSH2 0x476 DUP2 PUSH2 0x37F JUMP JUMPDEST DUP3 MSTORE POP POP JUMP JUMPDEST PUSH0 PUSH1 0x60 DUP3 ADD SWAP1 POP DUP2 DUP2 SUB PUSH0 DUP4 ADD MSTORE PUSH2 0x494 DUP2 DUP7 PUSH2 0x415 JUMP JUMPDEST SWAP1 POP PUSH2 0x4A3 PUSH1 0x20 DUP4 ADD DUP6 PUSH2 0x46D JUMP JUMPDEST DUP2 DUP2 SUB PUSH1 0x40 DUP4 ADD MSTORE PUSH2 0x4B5 DUP2 DUP5 PUSH2 0x415 JUMP JUMPDEST SWAP1 POP SWAP5 SWAP4 POP POP POP POP JUMP JUMPDEST PUSH32 0x4E487B7100000000000000000000000000000000000000000000000000000000 PUSH0 MSTORE PUSH1 0x41 PUSH1 0x4 MSTORE PUSH1 0x24 PUSH0 REVERT JUMPDEST PUSH32 0x4E487B7100000000000000000000000000000000000000000000000000000000 PUSH0 MSTORE PUSH1 0x22 PUSH1 0x4 MSTORE PUSH1 0x24 PUSH0 REVERT JUMPDEST PUSH0 PUSH1 0x2 DUP3 DIV SWAP1 POP PUSH1 0x1 DUP3 AND DUP1 PUSH2 0x530 JUMPI PUSH1 0x7F DUP3 AND SWAP2 POP JUMPDEST PUSH1 0x20 DUP3 LT DUP2 SUB PUSH2 0x543 JUMPI PUSH2 0x542 PUSH2 0x4EC JUMP JUMPDEST JUMPDEST POP SWAP2 SWAP1 POP JUMP JUMPDEST PUSH0 DUP2 SWAP1 POP DUP2 PUSH0 MSTORE PUSH1 0x20 PUSH0 KECCAK256 SWAP1 POP SWAP2 SWAP1 POP JUMP JUMPDEST PUSH0 PUSH1 0x20 PUSH1 0x1F DUP4 ADD DIV SWAP1 POP SWAP2 SWAP1 POP JUMP JUMPDEST PUSH0 DUP3 DUP3 SHL SWAP1 POP SWAP3 SWAP2 POP POP JUMP JUMPDEST PUSH0 PUSH1 0x8 DUP4 MUL PUSH2 0x5A5 PUSH32 0xFFFFFFFFFFFFFFFFFFFFFFFFFFFFFFFFFFFFFFFFFFFFFFFFFFFFFFFFFFFFFFFF DUP3 PUSH2 0x56A JUMP JUMPDEST PUSH2 0x5AF DUP7 DUP4 PUSH2 0x56A JUMP JUMPDEST SWAP6 POP DUP1 NOT DUP5 AND SWAP4 POP DUP1 DUP7 AND DUP5 OR SWAP3 POP POP POP SWAP4 SWAP3 POP POP POP JUMP JUMPDEST PUSH0 DUP2 SWAP1 POP SWAP2 SWAP1 POP JUMP JUMPDEST PUSH0 PUSH2 0x5EA PUSH2 0x5E5 PUSH2 0x5E0 DUP5 PUSH2 0x37F JUMP JUMPDEST PUSH2 0x5C7 JUMP JUMPDEST PUSH2 0x37F JUMP JUMPDEST SWAP1 POP SWAP2 SWAP1 POP JUMP JUMPDEST PUSH0 DUP2 SWAP1 POP SWAP2 SWAP1 POP JUMP JUMPDEST PUSH2 0x603 DUP4 PUSH2 0x5D0 JUMP JUMPDEST PUSH2 0x617 PUSH2 0x60F DUP3 PUSH2 0x5F1 JUMP JUMPDEST DUP5 DUP5 SLOAD PUSH2 0x576 JUMP JUMPDEST DUP3 SSTORE POP POP POP POP JUMP JUMPDEST PUSH0 PUSH0 SWAP1 POP SWAP1 JUMP JUMPDEST PUSH2 0x62E PUSH2 0x61F JUMP JUMPDEST PUSH2 0x639 DUP2 DUP5 DUP5 PUSH2 0x5FA JUMP JUMPDEST POP POP POP JUMP JUMPDEST JUMPDEST DUP2 DUP2 LT ISZERO PUSH2 0x65C JUMPI PUSH2 0x651 PUSH0 DUP3 PUSH2 0x626 JUMP JUMPDEST PUSH1 0x1 DUP2 ADD SWAP1 POP PUSH2 0x63F JUMP JUMPDEST POP POP JUMP JUMPDEST PUSH1 0x1F DUP3 GT ISZERO PUSH2 0x6A1 JUMPI PUSH2 0x672 DUP2 PUSH2 0x549 JUMP JUMPDEST PUSH2 0x67B DUP5 PUSH2 0x55B JUMP JUMPDEST DUP2 ADD PUSH1 0x20 DUP6 LT ISZERO PUSH2 0x68A JUMPI DUP2 SWAP1 POP JUMPDEST PUSH2 0x69E PUSH2 0x696 DUP6 PUSH2 0x55B JUMP JUMPDEST DUP4 ADD DUP3 PUSH2 0x63E JUMP JUMPDEST POP POP JUMPDEST POP POP POP JUMP JUMPDEST PUSH0 DUP3 DUP3 SHR SWAP1 POP SWAP3 SWAP2 POP POP JUMP JUMPDEST PUSH0 PUSH2 0x6C1 PUSH0 NOT DUP5 PUSH1 0x8 MUL PUSH2 0x6A6 JUMP JUMPDEST NOT DUP1 DUP4 AND SWAP2 POP POP SWAP3 SWAP2 POP POP JUMP JUMPDEST PUSH0 PUSH2 0x6D9 DUP4 DUP4 PUSH2 0x6B2 JUMP JUMPDEST SWAP2 POP DUP3 PUSH1 0x2 MUL DUP3 OR SWAP1 POP SWAP3 SWAP2 POP POP JUMP JUMPDEST PUSH2 0x6F2 DUP3 PUSH2 0x3DD JUMP JUMPDEST PUSH8 0xFFFFFFFFFFFFFFFF DUP2 GT ISZERO PUSH2 0x70B JUMPI PUSH2 0x70A PUSH2 0x4BF JUMP JUMPDEST JUMPDEST PUSH2 0x715 DUP3 SLOAD PUSH2 0x519 JUMP JUMPDEST PUSH2 0x720 DUP3 DUP3 DUP6 PUSH2 0x660 JUMP JUMPDEST PUSH0 PUSH1 0x20 SWAP1 POP PUSH1 0x1F DUP4 GT PUSH1 0x1 DUP2 EQ PUSH2 0x751 JUMPI PUSH0 DUP5 ISZERO PUSH2 0x73F JUMPI DUP3 DUP8 ADD MLOAD SWAP1 POP JUMPDEST PUSH2 0x749 DUP6 DUP3 PUSH2 0x6CE JUMP JUMPDEST DUP7 SSTORE POP PUSH2 0x7B0 JUMP JUMPDEST PUSH1 0x1F NOT DUP5 AND PUSH2 0x75F DUP7 PUSH2 0x549 JUMP JUMPDEST PUSH0 JUMPDEST DUP3 DUP2 LT ISZERO PUSH2 0x786 JUMPI DUP5 DUP10 ADD MLOAD DUP3 SSTORE PUSH1 0x1 DUP3 ADD SWAP2 POP PUSH1 0x20 DUP6 ADD SWAP5 POP PUSH1 0x20 DUP2 ADD SWAP1 POP PUSH2 0x761 JUMP JUMPDEST DUP7 DUP4 LT ISZERO PUSH2 0x7A3 JUMPI DUP5 DUP10 ADD MLOAD PUSH2 0x79F PUSH1 0x1F DUP10 AND DUP3 PUSH2 0x6B2 JUMP JUMPDEST DUP4 SSTORE POP JUMPDEST PUSH1 0x1 PUSH1 0x2 DUP9 MUL ADD DUP9 SSTORE POP POP POP JUMPDEST POP POP POP POP POP POP JUMP INVALID LOG2 PUSH5 0x6970667358 0x22 SLT KECCAK256 RETURN 0xD3 0xAC CODECOPY 0xEA DUP16 JUMPI 0xD0 PUSH13 0xC6F1F634BBC4B0776EDF8331F6 NOT DELEGATECALL LOG4 LT 0xDE TLOAD 0x2A 0xEA CALLDATALOAD 0xE8 PUSH5 0x736F6C6343 STOP ADDMOD 0x1E STOP CALLER "
				},
				"gasEstimates": {
					"creation": {
						"codeDepositCost": "406000",
						"executionCost": "infinite",
						"totalCost": "infinite"
					},
					"external": {
						"heroes(uint256)": "infinite",
						"humans(uint256)": "infinite",
						"tambahOrang()": "infinite"
					}
				},
				"methodIdentifiers": {
					"heroes(uint256)": "a8d4a03b",
					"humans(uint256)": "8102fced",
					"tambahOrang()": "4335101d"
				}
			},
			"storageLayout": {
				"storage": [
					{
						"astId": 15,
						"contract": "contracts/belajar/structArrayFunction.sol:belajarStruct",
						"label": "humans",
						"offset": 0,
						"slot": "0",
						"type": "t_array(t_string_storage)dyn_storage"
					},
					{
						"astId": 19,
						"contract": "contracts/belajar/structArrayFunction.sol:belajarStruct",
						"label": "heroes",
						"offset": 0,
						"slot": "1",
						"type": "t_array(t_struct(orang)8_storage)dyn_storage"
					}
				],
				"types": {
					"t_array(t_string_storage)dyn_storage": {
						"base": "t_string_storage",
						"encoding": "dynamic_array",
						"label": "string[]",
						"numberOfBytes": "32"
					},
					"t_array(t_struct(orang)8_storage)dyn_storage": {
						"base": "t_struct(orang)8_storage",
						"encoding": "dynamic_array",
						"label": "struct belajarStruct.orang[]",
						"numberOfBytes": "32"
					},
					"t_string_storage": {
						"encoding": "bytes",
						"label": "string",
						"numberOfBytes": "32"
					},
					"t_struct(orang)8_storage": {
						"encoding": "inplace",
						"label": "struct belajarStruct.orang",
						"members": [
							{
								"astId": 3,
								"contract": "contracts/belajar/structArrayFunction.sol:belajarStruct",
								"label": "nama",
								"offset": 0,
								"slot": "0",
								"type": "t_string_storage"
							},
							{
								"astId": 5,
								"contract": "contracts/belajar/structArrayFunction.sol:belajarStruct",
								"label": "umur",
								"offset": 0,
								"slot": "1",
								"type": "t_uint256"
							},
							{
								"astId": 7,
								"contract": "contracts/belajar/structArrayFunction.sol:belajarStruct",
								"label": "makananFavorit",
								"offset": 0,
								"slot": "2",
								"type": "t_string_storage"
							}
						],
						"numberOfBytes": "96"
					},
					"t_uint256": {
						"encoding": "inplace",
						"label": "uint256",
						"numberOfBytes": "32"
					}
				}
			},
			"userdoc": {
				"kind": "user",
				"methods": {},
				"version": 1
			}
		}
	}
}