{
	"contracts/belajar/evoting.sol": {
		"eVoting": {
			"abi": [
				{
					"inputs": [],
					"stateMutability": "nonpayable",
					"type": "constructor"
				},
				{
					"inputs": [],
					"name": "getTotalKandidat",
					"outputs": [
						{
							"internalType": "uint256",
							"name": "",
							"type": "uint256"
						}
					],
					"stateMutability": "view",
					"type": "function"
				},
				{
					"inputs": [
						{
							"internalType": "bool",
							"name": "_status",
							"type": "bool"
						}
					],
					"name": "handleVoting",
					"outputs": [],
					"stateMutability": "nonpayable",
					"type": "function"
				},
				{
					"inputs": [
						{
							"internalType": "uint256",
							"name": "",
							"type": "uint256"
						}
					],
					"name": "kandidat",
					"outputs": [
						{
							"internalType": "address",
							"name": "alamatKandidat",
							"type": "address"
						},
						{
							"internalType": "uint256",
							"name": "jumlahSuara",
							"type": "uint256"
						}
					],
					"stateMutability": "view",
					"type": "function"
				},
				{
					"inputs": [
						{
							"internalType": "address",
							"name": "",
							"type": "address"
						}
					],
					"name": "kandidatTerdaftar",
					"outputs": [
						{
							"internalType": "bool",
							"name": "",
							"type": "bool"
						}
					],
					"stateMutability": "view",
					"type": "function"
				},
				{
					"inputs": [],
					"name": "owner",
					"outputs": [
						{
							"internalType": "address",
							"name": "",
							"type": "address"
						}
					],
					"stateMutability": "view",
					"type": "function"
				},
				{
					"inputs": [],
					"name": "siapaYangMenang",
					"outputs": [
						{
							"internalType": "address",
							"name": "",
							"type": "address"
						},
						{
							"internalType": "uint256",
							"name": "",
							"type": "uint256"
						}
					],
					"stateMutability": "view",
					"type": "function"
				},
				{
					"inputs": [
						{
							"internalType": "address",
							"name": "_alamatKandidat",
							"type": "address"
						}
					],
					"name": "tambahKandidat",
					"outputs": [],
					"stateMutability": "nonpayable",
					"type": "function"
				},
				{
					"inputs": [
						{
							"internalType": "address",
							"name": "",
							"type": "address"
						}
					],
					"name": "userSudahMemilih",
					"outputs": [
						{
							"internalType": "bool",
							"name": "",
							"type": "bool"
						}
					],
					"stateMutability": "view",
					"type": "function"
				},
				{
					"inputs": [
						{
							"internalType": "uint256",
							"name": "_urutanKandidat",
							"type": "uint256"
						}
					],
					"name": "voting",
					"outputs": [],
					"stateMutability": "nonpayable",
					"type": "function"
				}
			],
			"devdoc": {
				"kind": "dev",
				"methods": {},
				"version": 1
			},
			"evm": {
				"assembly": "    /* \"contracts/belajar/evoting.sol\":60:2067  contract eVoting {... */\n  mstore(0x40, 0x80)\n    /* \"contracts/belajar/evoting.sol\":140:225  constructor() {... */\n  callvalue\n  dup1\n  iszero\n  tag_1\n  jumpi\n  revert(0x00, 0x00)\ntag_1:\n  pop\n    /* \"contracts/belajar/evoting.sol\":173:183  msg.sender */\n  caller\n    /* \"contracts/belajar/evoting.sol\":165:170  owner */\n  0x00\n  0x00\n    /* \"contracts/belajar/evoting.sol\":165:183  owner = msg.sender */\n  0x0100\n  exp\n  dup2\n  sload\n  dup2\n  0xffffffffffffffffffffffffffffffffffffffff\n  mul\n  not\n  and\n  swap1\n  dup4\n  0xffffffffffffffffffffffffffffffffffffffff\n  and\n  mul\n  or\n  swap1\n  sstore\n  pop\n    /* \"contracts/belajar/evoting.sol\":212:217  false */\n  0x00\n    /* \"contracts/belajar/evoting.sol\":194:209  sudahBisaVoting */\n  0x00\n  0x14\n    /* \"contracts/belajar/evoting.sol\":194:217  sudahBisaVoting = false */\n  0x0100\n  exp\n  dup2\n  sload\n  dup2\n  0xff\n  mul\n  not\n  and\n  swap1\n  dup4\n  iszero\n  iszero\n  mul\n  or\n  swap1\n  sstore\n  pop\n    /* \"contracts/belajar/evoting.sol\":60:2067  contract eVoting {... */\n  dataSize(sub_0)\n  dup1\n  dataOffset(sub_0)\n  0x00\n  codecopy\n  0x00\n  return\nstop\n\nsub_0: assembly {\n        /* \"contracts/belajar/evoting.sol\":60:2067  contract eVoting {... */\n      mstore(0x40, 0x80)\n      callvalue\n      dup1\n      iszero\n      tag_1\n      jumpi\n      revert(0x00, 0x00)\n    tag_1:\n      pop\n      jumpi(tag_2, lt(calldatasize, 0x04))\n      shr(0xe0, calldataload(0x00))\n      dup1\n      0xa2c7cf26\n      gt\n      tag_12\n      jumpi\n      dup1\n      0xa2c7cf26\n      eq\n      tag_7\n      jumpi\n      dup1\n      0xac1bd216\n      eq\n      tag_8\n      jumpi\n      dup1\n      0xda125730\n      eq\n      tag_9\n      jumpi\n      dup1\n      0xdcacfc12\n      eq\n      tag_10\n      jumpi\n      dup1\n      0xfd4a77f1\n      eq\n      tag_11\n      jumpi\n      jump(tag_2)\n    tag_12:\n      dup1\n      0x029f4cf0\n      eq\n      tag_3\n      jumpi\n      dup1\n      0x3be360f4\n      eq\n      tag_4\n      jumpi\n      dup1\n      0x657c3ef1\n      eq\n      tag_5\n      jumpi\n      dup1\n      0x8da5cb5b\n      eq\n      tag_6\n      jumpi\n    tag_2:\n      revert(0x00, 0x00)\n        /* \"contracts/belajar/evoting.sol\":416:464  mapping(address => bool) public userSudahMemilih */\n    tag_3:\n      tag_13\n      0x04\n      dup1\n      calldatasize\n      sub\n      dup2\n      add\n      swap1\n      tag_14\n      swap2\n      swap1\n      tag_15\n      jump\t// in\n    tag_14:\n      tag_16\n      jump\t// in\n    tag_13:\n      mload(0x40)\n      tag_17\n      swap2\n      swap1\n      tag_18\n      jump\t// in\n    tag_17:\n      mload(0x40)\n      dup1\n      swap2\n      sub\n      swap1\n      return\n        /* \"contracts/belajar/evoting.sol\":895:1041  function handleVoting(bool _status) public {... */\n    tag_4:\n      tag_19\n      0x04\n      dup1\n      calldatasize\n      sub\n      dup2\n      add\n      swap1\n      tag_20\n      swap2\n      swap1\n      tag_21\n      jump\t// in\n    tag_20:\n      tag_22\n      jump\t// in\n    tag_19:\n      stop\n        /* \"contracts/belajar/evoting.sol\":325:351  Kandidat[] public kandidat */\n    tag_5:\n      tag_23\n      0x04\n      dup1\n      calldatasize\n      sub\n      dup2\n      add\n      swap1\n      tag_24\n      swap2\n      swap1\n      tag_25\n      jump\t// in\n    tag_24:\n      tag_26\n      jump\t// in\n    tag_23:\n      mload(0x40)\n      tag_27\n      swap3\n      swap2\n      swap1\n      tag_28\n      jump\t// in\n    tag_27:\n      mload(0x40)\n      dup1\n      swap2\n      sub\n      swap1\n      return\n        /* \"contracts/belajar/evoting.sol\":84:104  address public owner */\n    tag_6:\n      tag_29\n      tag_30\n      jump\t// in\n    tag_29:\n      mload(0x40)\n      tag_31\n      swap2\n      swap1\n      tag_32\n      jump\t// in\n    tag_31:\n      mload(0x40)\n      dup1\n      swap2\n      sub\n      swap1\n      return\n        /* \"contracts/belajar/evoting.sol\":360:409  mapping(address => bool) public kandidatTerdaftar */\n    tag_7:\n      tag_33\n      0x04\n      dup1\n      calldatasize\n      sub\n      dup2\n      add\n      swap1\n      tag_34\n      swap2\n      swap1\n      tag_15\n      jump\t// in\n    tag_34:\n      tag_35\n      jump\t// in\n    tag_33:\n      mload(0x40)\n      tag_36\n      swap2\n      swap1\n      tag_18\n      jump\t// in\n    tag_36:\n      mload(0x40)\n      dup1\n      swap2\n      sub\n      swap1\n      return\n        /* \"contracts/belajar/evoting.sol\":1471:2062  function siapaYangMenang() public view returns(address, uint) {... */\n    tag_8:\n      tag_37\n      tag_38\n      jump\t// in\n    tag_37:\n      mload(0x40)\n      tag_39\n      swap3\n      swap2\n      swap1\n      tag_28\n      jump\t// in\n    tag_39:\n      mload(0x40)\n      dup1\n      swap2\n      sub\n      swap1\n      return\n        /* \"contracts/belajar/evoting.sol\":793:887  function getTotalKandidat() public view returns(uint){... */\n    tag_9:\n      tag_40\n      tag_41\n      jump\t// in\n    tag_40:\n      mload(0x40)\n      tag_42\n      swap2\n      swap1\n      tag_43\n      jump\t// in\n    tag_42:\n      mload(0x40)\n      dup1\n      swap2\n      sub\n      swap1\n      return\n        /* \"contracts/belajar/evoting.sol\":473:785  function tambahKandidat(address _alamatKandidat) public {... */\n    tag_10:\n      tag_44\n      0x04\n      dup1\n      calldatasize\n      sub\n      dup2\n      add\n      swap1\n      tag_45\n      swap2\n      swap1\n      tag_15\n      jump\t// in\n    tag_45:\n      tag_46\n      jump\t// in\n    tag_44:\n      stop\n        /* \"contracts/belajar/evoting.sol\":1049:1463  function voting(uint _urutanKandidat) public {... */\n    tag_11:\n      tag_47\n      0x04\n      dup1\n      calldatasize\n      sub\n      dup2\n      add\n      swap1\n      tag_48\n      swap2\n      swap1\n      tag_25\n      jump\t// in\n    tag_48:\n      tag_49\n      jump\t// in\n    tag_47:\n      stop\n        /* \"contracts/belajar/evoting.sol\":416:464  mapping(address => bool) public userSudahMemilih */\n    tag_16:\n      mstore(0x20, 0x03)\n      dup1\n      0x00\n      mstore\n      keccak256(0x00, 0x40)\n      0x00\n      swap2\n      pop\n      sload\n      swap1\n      0x0100\n      exp\n      swap1\n      div\n      0xff\n      and\n      dup2\n      jump\t// out\n        /* \"contracts/belajar/evoting.sol\":895:1041  function handleVoting(bool _status) public {... */\n    tag_22:\n        /* \"contracts/belajar/evoting.sol\":971:976  owner */\n      0x00\n      0x00\n      swap1\n      sload\n      swap1\n      0x0100\n      exp\n      swap1\n      div\n      0xffffffffffffffffffffffffffffffffffffffff\n      and\n        /* \"contracts/belajar/evoting.sol\":957:976  msg.sender == owner */\n      0xffffffffffffffffffffffffffffffffffffffff\n      and\n        /* \"contracts/belajar/evoting.sol\":957:967  msg.sender */\n      caller\n        /* \"contracts/belajar/evoting.sol\":957:976  msg.sender == owner */\n      0xffffffffffffffffffffffffffffffffffffffff\n      and\n      eq\n        /* \"contracts/belajar/evoting.sol\":949:997  require(msg.sender == owner, \"Anda bukan owner\") */\n      tag_51\n      jumpi\n      mload(0x40)\n      0x08c379a000000000000000000000000000000000000000000000000000000000\n      dup2\n      mstore\n      0x04\n      add\n      tag_52\n      swap1\n      tag_53\n      jump\t// in\n    tag_52:\n      mload(0x40)\n      dup1\n      swap2\n      sub\n      swap1\n      revert\n    tag_51:\n        /* \"contracts/belajar/evoting.sol\":1026:1033  _status */\n      dup1\n        /* \"contracts/belajar/evoting.sol\":1008:1023  sudahBisaVoting */\n      0x00\n      0x14\n        /* \"contracts/belajar/evoting.sol\":1008:1033  sudahBisaVoting = _status */\n      0x0100\n      exp\n      dup2\n      sload\n      dup2\n      0xff\n      mul\n      not\n      and\n      swap1\n      dup4\n      iszero\n      iszero\n      mul\n      or\n      swap1\n      sstore\n      pop\n        /* \"contracts/belajar/evoting.sol\":895:1041  function handleVoting(bool _status) public {... */\n      pop\n      jump\t// out\n        /* \"contracts/belajar/evoting.sol\":325:351  Kandidat[] public kandidat */\n    tag_26:\n      0x01\n      dup2\n      dup2\n      sload\n      dup2\n      lt\n      tag_54\n      jumpi\n      0x00\n      dup1\n      revert\n    tag_54:\n      swap1\n      0x00\n      mstore\n      keccak256(0x00, 0x20)\n      swap1\n      0x02\n      mul\n      add\n      0x00\n      swap2\n      pop\n      swap1\n      pop\n      dup1\n      0x00\n      add\n      0x00\n      swap1\n      sload\n      swap1\n      0x0100\n      exp\n      swap1\n      div\n      0xffffffffffffffffffffffffffffffffffffffff\n      and\n      swap1\n      dup1\n      0x01\n      add\n      sload\n      swap1\n      pop\n      dup3\n      jump\t// out\n        /* \"contracts/belajar/evoting.sol\":84:104  address public owner */\n    tag_30:\n      0x00\n      0x00\n      swap1\n      sload\n      swap1\n      0x0100\n      exp\n      swap1\n      div\n      0xffffffffffffffffffffffffffffffffffffffff\n      and\n      dup2\n      jump\t// out\n        /* \"contracts/belajar/evoting.sol\":360:409  mapping(address => bool) public kandidatTerdaftar */\n    tag_35:\n      mstore(0x20, 0x02)\n      dup1\n      0x00\n      mstore\n      keccak256(0x00, 0x40)\n      0x00\n      swap2\n      pop\n      sload\n      swap1\n      0x0100\n      exp\n      swap1\n      div\n      0xff\n      and\n      dup2\n      jump\t// out\n        /* \"contracts/belajar/evoting.sol\":1471:2062  function siapaYangMenang() public view returns(address, uint) {... */\n    tag_38:\n        /* \"contracts/belajar/evoting.sol\":1518:1525  address */\n      0x00\n        /* \"contracts/belajar/evoting.sol\":1527:1531  uint */\n      0x00\n        /* \"contracts/belajar/evoting.sol\":1553:1568  sudahBisaVoting */\n      0x00\n      0x14\n      swap1\n      sload\n      swap1\n      0x0100\n      exp\n      swap1\n      div\n      0xff\n      and\n        /* \"contracts/belajar/evoting.sol\":1552:1568  !sudahBisaVoting */\n      iszero\n        /* \"contracts/belajar/evoting.sol\":1544:1592  require(!sudahBisaVoting, \"Masih proses voting\") */\n      tag_57\n      jumpi\n      mload(0x40)\n      0x08c379a000000000000000000000000000000000000000000000000000000000\n      dup2\n      mstore\n      0x04\n      add\n      tag_58\n      swap1\n      tag_59\n      jump\t// in\n    tag_58:\n      mload(0x40)\n      dup1\n      swap2\n      sub\n      swap1\n      revert\n    tag_57:\n        /* \"contracts/belajar/evoting.sol\":1630:1631  2 */\n      0x02\n        /* \"contracts/belajar/evoting.sol\":1611:1619  kandidat */\n      0x01\n        /* \"contracts/belajar/evoting.sol\":1611:1626  kandidat.length */\n      dup1\n      sload\n      swap1\n      pop\n        /* \"contracts/belajar/evoting.sol\":1611:1631  kandidat.length >= 2 */\n      lt\n      iszero\n        /* \"contracts/belajar/evoting.sol\":1603:1651  require(kandidat.length >= 2, \"Kandidat kurang\") */\n      tag_60\n      jumpi\n      mload(0x40)\n      0x08c379a000000000000000000000000000000000000000000000000000000000\n      dup2\n      mstore\n      0x04\n      add\n      tag_61\n      swap1\n      tag_62\n      jump\t// in\n    tag_61:\n      mload(0x40)\n      dup1\n      swap2\n      sub\n      swap1\n      revert\n    tag_60:\n        /* \"contracts/belajar/evoting.sol\":1664:1683  uint suaraTertinggi */\n      0x00\n        /* \"contracts/belajar/evoting.sol\":1686:1687  0 */\n      0x00\n        /* \"contracts/belajar/evoting.sol\":1664:1687  uint suaraTertinggi = 0 */\n      swap1\n      pop\n        /* \"contracts/belajar/evoting.sol\":1698:1716  uint indexPemenang */\n      0x00\n        /* \"contracts/belajar/evoting.sol\":1719:1720  0 */\n      0x00\n        /* \"contracts/belajar/evoting.sol\":1698:1720  uint indexPemenang = 0 */\n      swap1\n      pop\n        /* \"contracts/belajar/evoting.sol\":1737:1743  uint i */\n      0x00\n        /* \"contracts/belajar/evoting.sol\":1746:1747  0 */\n      0x00\n        /* \"contracts/belajar/evoting.sol\":1737:1747  uint i = 0 */\n      swap1\n      pop\n        /* \"contracts/belajar/evoting.sol\":1733:1958  for(uint i = 0; i < kandidat.length; i++) {... */\n    tag_63:\n        /* \"contracts/belajar/evoting.sol\":1753:1761  kandidat */\n      0x01\n        /* \"contracts/belajar/evoting.sol\":1753:1768  kandidat.length */\n      dup1\n      sload\n      swap1\n      pop\n        /* \"contracts/belajar/evoting.sol\":1749:1750  i */\n      dup2\n        /* \"contracts/belajar/evoting.sol\":1749:1768  i < kandidat.length */\n      lt\n        /* \"contracts/belajar/evoting.sol\":1733:1958  for(uint i = 0; i < kandidat.length; i++) {... */\n      iszero\n      tag_64\n      jumpi\n        /* \"contracts/belajar/evoting.sol\":1820:1834  suaraTertinggi */\n      dup3\n        /* \"contracts/belajar/evoting.sol\":1794:1802  kandidat */\n      0x01\n        /* \"contracts/belajar/evoting.sol\":1803:1804  i */\n      dup3\n        /* \"contracts/belajar/evoting.sol\":1794:1805  kandidat[i] */\n      dup2\n      sload\n      dup2\n      lt\n      tag_66\n      jumpi\n      tag_67\n      tag_68\n      jump\t// in\n    tag_67:\n    tag_66:\n      swap1\n      0x00\n      mstore\n      keccak256(0x00, 0x20)\n      swap1\n      0x02\n      mul\n      add\n        /* \"contracts/belajar/evoting.sol\":1794:1817  kandidat[i].jumlahSuara */\n      0x01\n      add\n      sload\n        /* \"contracts/belajar/evoting.sol\":1794:1834  kandidat[i].jumlahSuara > suaraTertinggi */\n      gt\n        /* \"contracts/belajar/evoting.sol\":1790:1947  if (kandidat[i].jumlahSuara > suaraTertinggi) {... */\n      iszero\n      tag_70\n      jumpi\n        /* \"contracts/belajar/evoting.sol\":1872:1880  kandidat */\n      0x01\n        /* \"contracts/belajar/evoting.sol\":1881:1882  i */\n      dup2\n        /* \"contracts/belajar/evoting.sol\":1872:1883  kandidat[i] */\n      dup2\n      sload\n      dup2\n      lt\n      tag_71\n      jumpi\n      tag_72\n      tag_68\n      jump\t// in\n    tag_72:\n    tag_71:\n      swap1\n      0x00\n      mstore\n      keccak256(0x00, 0x20)\n      swap1\n      0x02\n      mul\n      add\n        /* \"contracts/belajar/evoting.sol\":1872:1895  kandidat[i].jumlahSuara */\n      0x01\n      add\n      sload\n        /* \"contracts/belajar/evoting.sol\":1855:1895  suaraTertinggi = kandidat[i].jumlahSuara */\n      swap3\n      pop\n        /* \"contracts/belajar/evoting.sol\":1930:1931  i */\n      dup1\n        /* \"contracts/belajar/evoting.sol\":1914:1931  indexPemenang = i */\n      swap2\n      pop\n        /* \"contracts/belajar/evoting.sol\":1790:1947  if (kandidat[i].jumlahSuara > suaraTertinggi) {... */\n    tag_70:\n        /* \"contracts/belajar/evoting.sol\":1770:1773  i++ */\n      dup1\n      dup1\n      0x01\n      add\n      swap2\n      pop\n      pop\n        /* \"contracts/belajar/evoting.sol\":1733:1958  for(uint i = 0; i < kandidat.length; i++) {... */\n      jump(tag_63)\n    tag_64:\n      pop\n        /* \"contracts/belajar/evoting.sol\":1978:1986  kandidat */\n      0x01\n        /* \"contracts/belajar/evoting.sol\":1987:2000  indexPemenang */\n      dup2\n        /* \"contracts/belajar/evoting.sol\":1978:2001  kandidat[indexPemenang] */\n      dup2\n      sload\n      dup2\n      lt\n      tag_74\n      jumpi\n      tag_75\n      tag_68\n      jump\t// in\n    tag_75:\n    tag_74:\n      swap1\n      0x00\n      mstore\n      keccak256(0x00, 0x20)\n      swap1\n      0x02\n      mul\n      add\n        /* \"contracts/belajar/evoting.sol\":1978:2016  kandidat[indexPemenang].alamatKandidat */\n      0x00\n      add\n      0x00\n      swap1\n      sload\n      swap1\n      0x0100\n      exp\n      swap1\n      div\n      0xffffffffffffffffffffffffffffffffffffffff\n      and\n        /* \"contracts/belajar/evoting.sol\":2018:2026  kandidat */\n      0x01\n        /* \"contracts/belajar/evoting.sol\":2027:2040  indexPemenang */\n      dup3\n        /* \"contracts/belajar/evoting.sol\":2018:2041  kandidat[indexPemenang] */\n      dup2\n      sload\n      dup2\n      lt\n      tag_77\n      jumpi\n      tag_78\n      tag_68\n      jump\t// in\n    tag_78:\n    tag_77:\n      swap1\n      0x00\n      mstore\n      keccak256(0x00, 0x20)\n      swap1\n      0x02\n      mul\n      add\n        /* \"contracts/belajar/evoting.sol\":2018:2053  kandidat[indexPemenang].jumlahSuara */\n      0x01\n      add\n      sload\n        /* \"contracts/belajar/evoting.sol\":1970:2054  return (kandidat[indexPemenang].alamatKandidat, kandidat[indexPemenang].jumlahSuara) */\n      swap4\n      pop\n      swap4\n      pop\n      pop\n      pop\n        /* \"contracts/belajar/evoting.sol\":1471:2062  function siapaYangMenang() public view returns(address, uint) {... */\n      swap1\n      swap2\n      jump\t// out\n        /* \"contracts/belajar/evoting.sol\":793:887  function getTotalKandidat() public view returns(uint){... */\n    tag_41:\n        /* \"contracts/belajar/evoting.sol\":841:845  uint */\n      0x00\n        /* \"contracts/belajar/evoting.sol\":864:872  kandidat */\n      0x01\n        /* \"contracts/belajar/evoting.sol\":864:879  kandidat.length */\n      dup1\n      sload\n      swap1\n      pop\n        /* \"contracts/belajar/evoting.sol\":857:879  return kandidat.length */\n      swap1\n      pop\n        /* \"contracts/belajar/evoting.sol\":793:887  function getTotalKandidat() public view returns(uint){... */\n      swap1\n      jump\t// out\n        /* \"contracts/belajar/evoting.sol\":473:785  function tambahKandidat(address _alamatKandidat) public {... */\n    tag_46:\n        /* \"contracts/belajar/evoting.sol\":562:567  owner */\n      0x00\n      0x00\n      swap1\n      sload\n      swap1\n      0x0100\n      exp\n      swap1\n      div\n      0xffffffffffffffffffffffffffffffffffffffff\n      and\n        /* \"contracts/belajar/evoting.sol\":548:567  msg.sender == owner */\n      0xffffffffffffffffffffffffffffffffffffffff\n      and\n        /* \"contracts/belajar/evoting.sol\":548:558  msg.sender */\n      caller\n        /* \"contracts/belajar/evoting.sol\":548:567  msg.sender == owner */\n      0xffffffffffffffffffffffffffffffffffffffff\n      and\n      eq\n        /* \"contracts/belajar/evoting.sol\":540:588  require(msg.sender == owner, \"Anda bukan owner\") */\n      tag_82\n      jumpi\n      mload(0x40)\n      0x08c379a000000000000000000000000000000000000000000000000000000000\n      dup2\n      mstore\n      0x04\n      add\n      tag_83\n      swap1\n      tag_53\n      jump\t// in\n    tag_83:\n      mload(0x40)\n      dup1\n      swap2\n      sub\n      swap1\n      revert\n    tag_82:\n        /* \"contracts/belajar/evoting.sol\":608:625  kandidatTerdaftar */\n      0x02\n        /* \"contracts/belajar/evoting.sol\":608:642  kandidatTerdaftar[_alamatKandidat] */\n      0x00\n        /* \"contracts/belajar/evoting.sol\":626:641  _alamatKandidat */\n      dup3\n        /* \"contracts/belajar/evoting.sol\":608:642  kandidatTerdaftar[_alamatKandidat] */\n      0xffffffffffffffffffffffffffffffffffffffff\n      and\n      0xffffffffffffffffffffffffffffffffffffffff\n      and\n      dup2\n      mstore\n      0x20\n      add\n      swap1\n      dup2\n      mstore\n      0x20\n      add\n      0x00\n      keccak256\n      0x00\n      swap1\n      sload\n      swap1\n      0x0100\n      exp\n      swap1\n      div\n      0xff\n      and\n        /* \"contracts/belajar/evoting.sol\":607:642  !kandidatTerdaftar[_alamatKandidat] */\n      iszero\n        /* \"contracts/belajar/evoting.sol\":599:671  require(!kandidatTerdaftar[_alamatKandidat], \"Kandidat sudah terdaftar\") */\n      tag_84\n      jumpi\n      mload(0x40)\n      0x08c379a000000000000000000000000000000000000000000000000000000000\n      dup2\n      mstore\n      0x04\n      add\n      tag_85\n      swap1\n      tag_86\n      jump\t// in\n    tag_85:\n      mload(0x40)\n      dup1\n      swap2\n      sub\n      swap1\n      revert\n    tag_84:\n        /* \"contracts/belajar/evoting.sol\":682:690  kandidat */\n      0x01\n        /* \"contracts/belajar/evoting.sol\":696:724  Kandidat(_alamatKandidat, 0) */\n      mload(0x40)\n      dup1\n      0x40\n      add\n      0x40\n      mstore\n      dup1\n        /* \"contracts/belajar/evoting.sol\":705:720  _alamatKandidat */\n      dup4\n        /* \"contracts/belajar/evoting.sol\":696:724  Kandidat(_alamatKandidat, 0) */\n      0xffffffffffffffffffffffffffffffffffffffff\n      and\n      dup2\n      mstore\n      0x20\n      add\n        /* \"contracts/belajar/evoting.sol\":722:723  0 */\n      0x00\n        /* \"contracts/belajar/evoting.sol\":696:724  Kandidat(_alamatKandidat, 0) */\n      dup2\n      mstore\n      pop\n        /* \"contracts/belajar/evoting.sol\":682:725  kandidat.push(Kandidat(_alamatKandidat, 0)) */\n      swap1\n      dup1\n      0x01\n      dup2\n      sload\n      add\n      dup1\n      dup3\n      sstore\n      dup1\n      swap2\n      pop\n      pop\n      0x01\n      swap1\n      sub\n      swap1\n      0x00\n      mstore\n      keccak256(0x00, 0x20)\n      swap1\n      0x02\n      mul\n      add\n      0x00\n      swap1\n      swap2\n      swap1\n      swap2\n      swap1\n      swap2\n      pop\n      0x00\n      dup3\n      add\n      mload\n      dup2\n      0x00\n      add\n      exp(0x0100, 0x00)\n      dup2\n      sload\n      dup2\n      0xffffffffffffffffffffffffffffffffffffffff\n      mul\n      not\n      and\n      swap1\n      dup4\n      0xffffffffffffffffffffffffffffffffffffffff\n      and\n      mul\n      or\n      swap1\n      sstore\n      pop\n      0x20\n      dup3\n      add\n      mload\n      dup2\n      0x01\n      add\n      sstore\n      pop\n      pop\n        /* \"contracts/belajar/evoting.sol\":773:777  true */\n      0x01\n        /* \"contracts/belajar/evoting.sol\":736:753  kandidatTerdaftar */\n      0x02\n        /* \"contracts/belajar/evoting.sol\":736:770  kandidatTerdaftar[_alamatKandidat] */\n      0x00\n        /* \"contracts/belajar/evoting.sol\":754:769  _alamatKandidat */\n      dup4\n        /* \"contracts/belajar/evoting.sol\":736:770  kandidatTerdaftar[_alamatKandidat] */\n      0xffffffffffffffffffffffffffffffffffffffff\n      and\n      0xffffffffffffffffffffffffffffffffffffffff\n      and\n      dup2\n      mstore\n      0x20\n      add\n      swap1\n      dup2\n      mstore\n      0x20\n      add\n      0x00\n      keccak256\n      0x00\n        /* \"contracts/belajar/evoting.sol\":736:777  kandidatTerdaftar[_alamatKandidat] = true */\n      0x0100\n      exp\n      dup2\n      sload\n      dup2\n      0xff\n      mul\n      not\n      and\n      swap1\n      dup4\n      iszero\n      iszero\n      mul\n      or\n      swap1\n      sstore\n      pop\n        /* \"contracts/belajar/evoting.sol\":473:785  function tambahKandidat(address _alamatKandidat) public {... */\n      pop\n      jump\t// out\n        /* \"contracts/belajar/evoting.sol\":1049:1463  function voting(uint _urutanKandidat) public {... */\n    tag_49:\n        /* \"contracts/belajar/evoting.sol\":1113:1128  sudahBisaVoting */\n      0x00\n      0x14\n      swap1\n      sload\n      swap1\n      0x0100\n      exp\n      swap1\n      div\n      0xff\n      and\n        /* \"contracts/belajar/evoting.sol\":1105:1150  require(sudahBisaVoting, \"Belum bisa voting\") */\n      tag_89\n      jumpi\n      mload(0x40)\n      0x08c379a000000000000000000000000000000000000000000000000000000000\n      dup2\n      mstore\n      0x04\n      add\n      tag_90\n      swap1\n      tag_91\n      jump\t// in\n    tag_90:\n      mload(0x40)\n      dup1\n      swap2\n      sub\n      swap1\n      revert\n    tag_89:\n        /* \"contracts/belajar/evoting.sol\":1170:1186  userSudahMemilih */\n      0x03\n        /* \"contracts/belajar/evoting.sol\":1170:1198  userSudahMemilih[msg.sender] */\n      0x00\n        /* \"contracts/belajar/evoting.sol\":1187:1197  msg.sender */\n      caller\n        /* \"contracts/belajar/evoting.sol\":1170:1198  userSudahMemilih[msg.sender] */\n      0xffffffffffffffffffffffffffffffffffffffff\n      and\n      0xffffffffffffffffffffffffffffffffffffffff\n      and\n      dup2\n      mstore\n      0x20\n      add\n      swap1\n      dup2\n      mstore\n      0x20\n      add\n      0x00\n      keccak256\n      0x00\n      swap1\n      sload\n      swap1\n      0x0100\n      exp\n      swap1\n      div\n      0xff\n      and\n        /* \"contracts/belajar/evoting.sol\":1169:1198  !userSudahMemilih[msg.sender] */\n      iszero\n        /* \"contracts/belajar/evoting.sol\":1161:1220  require(!userSudahMemilih[msg.sender], \"Anda sudah voting\") */\n      tag_92\n      jumpi\n      mload(0x40)\n      0x08c379a000000000000000000000000000000000000000000000000000000000\n      dup2\n      mstore\n      0x04\n      add\n      tag_93\n      swap1\n      tag_94\n      jump\t// in\n    tag_93:\n      mload(0x40)\n      dup1\n      swap2\n      sub\n      swap1\n      revert\n    tag_92:\n        /* \"contracts/belajar/evoting.sol\":1257:1265  kandidat */\n      0x01\n        /* \"contracts/belajar/evoting.sol\":1257:1272  kandidat.length */\n      dup1\n      sload\n      swap1\n      pop\n        /* \"contracts/belajar/evoting.sol\":1239:1254  _urutanKandidat */\n      dup2\n        /* \"contracts/belajar/evoting.sol\":1239:1272  _urutanKandidat < kandidat.length */\n      lt\n        /* \"contracts/belajar/evoting.sol\":1231:1295  require(_urutanKandidat < kandidat.length, \"Kandidat tidak ada\") */\n      tag_95\n      jumpi\n      mload(0x40)\n      0x08c379a000000000000000000000000000000000000000000000000000000000\n      dup2\n      mstore\n      0x04\n      add\n      tag_96\n      swap1\n      tag_97\n      jump\t// in\n    tag_96:\n      mload(0x40)\n      dup1\n      swap2\n      sub\n      swap1\n      revert\n    tag_95:\n        /* \"contracts/belajar/evoting.sol\":1328:1333  owner */\n      0x00\n      0x00\n      swap1\n      sload\n      swap1\n      0x0100\n      exp\n      swap1\n      div\n      0xffffffffffffffffffffffffffffffffffffffff\n      and\n        /* \"contracts/belajar/evoting.sol\":1314:1333  msg.sender != owner */\n      0xffffffffffffffffffffffffffffffffffffffff\n      and\n        /* \"contracts/belajar/evoting.sol\":1314:1324  msg.sender */\n      caller\n        /* \"contracts/belajar/evoting.sol\":1314:1333  msg.sender != owner */\n      0xffffffffffffffffffffffffffffffffffffffff\n      and\n      sub\n        /* \"contracts/belajar/evoting.sol\":1306:1359  require(msg.sender != owner, \"Owner ga boleh voting\") */\n      tag_98\n      jumpi\n      mload(0x40)\n      0x08c379a000000000000000000000000000000000000000000000000000000000\n      dup2\n      mstore\n      0x04\n      add\n      tag_99\n      swap1\n      tag_100\n      jump\t// in\n    tag_99:\n      mload(0x40)\n      dup1\n      swap2\n      sub\n      swap1\n      revert\n    tag_98:\n        /* \"contracts/belajar/evoting.sol\":1370:1378  kandidat */\n      0x01\n        /* \"contracts/belajar/evoting.sol\":1379:1394  _urutanKandidat */\n      dup2\n        /* \"contracts/belajar/evoting.sol\":1370:1395  kandidat[_urutanKandidat] */\n      dup2\n      sload\n      dup2\n      lt\n      tag_101\n      jumpi\n      tag_102\n      tag_68\n      jump\t// in\n    tag_102:\n    tag_101:\n      swap1\n      0x00\n      mstore\n      keccak256(0x00, 0x20)\n      swap1\n      0x02\n      mul\n      add\n        /* \"contracts/belajar/evoting.sol\":1370:1407  kandidat[_urutanKandidat].jumlahSuara */\n      0x01\n      add\n      0x00\n        /* \"contracts/belajar/evoting.sol\":1370:1409  kandidat[_urutanKandidat].jumlahSuara++ */\n      dup2\n      sload\n      dup1\n      swap3\n      swap2\n      swap1\n      tag_104\n      swap1\n      tag_105\n      jump\t// in\n    tag_104:\n      swap2\n      swap1\n      pop\n      sstore\n      pop\n        /* \"contracts/belajar/evoting.sol\":1451:1455  true */\n      0x01\n        /* \"contracts/belajar/evoting.sol\":1420:1436  userSudahMemilih */\n      0x03\n        /* \"contracts/belajar/evoting.sol\":1420:1448  userSudahMemilih[msg.sender] */\n      0x00\n        /* \"contracts/belajar/evoting.sol\":1437:1447  msg.sender */\n      caller\n        /* \"contracts/belajar/evoting.sol\":1420:1448  userSudahMemilih[msg.sender] */\n      0xffffffffffffffffffffffffffffffffffffffff\n      and\n      0xffffffffffffffffffffffffffffffffffffffff\n      and\n      dup2\n      mstore\n      0x20\n      add\n      swap1\n      dup2\n      mstore\n      0x20\n      add\n      0x00\n      keccak256\n      0x00\n        /* \"contracts/belajar/evoting.sol\":1420:1455  userSudahMemilih[msg.sender] = true */\n      0x0100\n      exp\n      dup2\n      sload\n      dup2\n      0xff\n      mul\n      not\n      and\n      swap1\n      dup4\n      iszero\n      iszero\n      mul\n      or\n      swap1\n      sstore\n      pop\n        /* \"contracts/belajar/evoting.sol\":1049:1463  function voting(uint _urutanKandidat) public {... */\n      pop\n      jump\t// out\n        /* \"#utility.yul\":88:205   */\n    tag_107:\n        /* \"#utility.yul\":197:198   */\n      0x00\n        /* \"#utility.yul\":194:195   */\n      0x00\n        /* \"#utility.yul\":187:199   */\n      revert\n        /* \"#utility.yul\":334:460   */\n    tag_109:\n        /* \"#utility.yul\":371:378   */\n      0x00\n        /* \"#utility.yul\":411:453   */\n      0xffffffffffffffffffffffffffffffffffffffff\n        /* \"#utility.yul\":404:409   */\n      dup3\n        /* \"#utility.yul\":400:454   */\n      and\n        /* \"#utility.yul\":389:454   */\n      swap1\n      pop\n        /* \"#utility.yul\":334:460   */\n      swap2\n      swap1\n      pop\n      jump\t// out\n        /* \"#utility.yul\":466:562   */\n    tag_110:\n        /* \"#utility.yul\":503:510   */\n      0x00\n        /* \"#utility.yul\":532:556   */\n      tag_146\n        /* \"#utility.yul\":550:555   */\n      dup3\n        /* \"#utility.yul\":532:556   */\n      tag_109\n      jump\t// in\n    tag_146:\n        /* \"#utility.yul\":521:556   */\n      swap1\n      pop\n        /* \"#utility.yul\":466:562   */\n      swap2\n      swap1\n      pop\n      jump\t// out\n        /* \"#utility.yul\":568:690   */\n    tag_111:\n        /* \"#utility.yul\":641:665   */\n      tag_148\n        /* \"#utility.yul\":659:664   */\n      dup2\n        /* \"#utility.yul\":641:665   */\n      tag_110\n      jump\t// in\n    tag_148:\n        /* \"#utility.yul\":634:639   */\n      dup2\n        /* \"#utility.yul\":631:666   */\n      eq\n        /* \"#utility.yul\":621:684   */\n      tag_149\n      jumpi\n        /* \"#utility.yul\":680:681   */\n      0x00\n        /* \"#utility.yul\":677:678   */\n      0x00\n        /* \"#utility.yul\":670:682   */\n      revert\n        /* \"#utility.yul\":621:684   */\n    tag_149:\n        /* \"#utility.yul\":568:690   */\n      pop\n      jump\t// out\n        /* \"#utility.yul\":696:835   */\n    tag_112:\n        /* \"#utility.yul\":742:747   */\n      0x00\n        /* \"#utility.yul\":780:786   */\n      dup2\n        /* \"#utility.yul\":767:787   */\n      calldataload\n        /* \"#utility.yul\":758:787   */\n      swap1\n      pop\n        /* \"#utility.yul\":796:829   */\n      tag_151\n        /* \"#utility.yul\":823:828   */\n      dup2\n        /* \"#utility.yul\":796:829   */\n      tag_111\n      jump\t// in\n    tag_151:\n        /* \"#utility.yul\":696:835   */\n      swap3\n      swap2\n      pop\n      pop\n      jump\t// out\n        /* \"#utility.yul\":841:1170   */\n    tag_15:\n        /* \"#utility.yul\":900:906   */\n      0x00\n        /* \"#utility.yul\":949:951   */\n      0x20\n        /* \"#utility.yul\":937:946   */\n      dup3\n        /* \"#utility.yul\":928:935   */\n      dup5\n        /* \"#utility.yul\":924:947   */\n      sub\n        /* \"#utility.yul\":920:952   */\n      slt\n        /* \"#utility.yul\":917:1036   */\n      iszero\n      tag_153\n      jumpi\n        /* \"#utility.yul\":955:1034   */\n      tag_154\n      tag_107\n      jump\t// in\n    tag_154:\n        /* \"#utility.yul\":917:1036   */\n    tag_153:\n        /* \"#utility.yul\":1075:1076   */\n      0x00\n        /* \"#utility.yul\":1100:1153   */\n      tag_155\n        /* \"#utility.yul\":1145:1152   */\n      dup5\n        /* \"#utility.yul\":1136:1142   */\n      dup3\n        /* \"#utility.yul\":1125:1134   */\n      dup6\n        /* \"#utility.yul\":1121:1143   */\n      add\n        /* \"#utility.yul\":1100:1153   */\n      tag_112\n      jump\t// in\n    tag_155:\n        /* \"#utility.yul\":1090:1153   */\n      swap2\n      pop\n        /* \"#utility.yul\":1046:1163   */\n      pop\n        /* \"#utility.yul\":841:1170   */\n      swap3\n      swap2\n      pop\n      pop\n      jump\t// out\n        /* \"#utility.yul\":1176:1266   */\n    tag_113:\n        /* \"#utility.yul\":1210:1217   */\n      0x00\n        /* \"#utility.yul\":1253:1258   */\n      dup2\n        /* \"#utility.yul\":1246:1259   */\n      iszero\n        /* \"#utility.yul\":1239:1260   */\n      iszero\n        /* \"#utility.yul\":1228:1260   */\n      swap1\n      pop\n        /* \"#utility.yul\":1176:1266   */\n      swap2\n      swap1\n      pop\n      jump\t// out\n        /* \"#utility.yul\":1272:1381   */\n    tag_114:\n        /* \"#utility.yul\":1353:1374   */\n      tag_158\n        /* \"#utility.yul\":1368:1373   */\n      dup2\n        /* \"#utility.yul\":1353:1374   */\n      tag_113\n      jump\t// in\n    tag_158:\n        /* \"#utility.yul\":1348:1351   */\n      dup3\n        /* \"#utility.yul\":1341:1375   */\n      mstore\n        /* \"#utility.yul\":1272:1381   */\n      pop\n      pop\n      jump\t// out\n        /* \"#utility.yul\":1387:1597   */\n    tag_18:\n        /* \"#utility.yul\":1474:1478   */\n      0x00\n        /* \"#utility.yul\":1512:1514   */\n      0x20\n        /* \"#utility.yul\":1501:1510   */\n      dup3\n        /* \"#utility.yul\":1497:1515   */\n      add\n        /* \"#utility.yul\":1489:1515   */\n      swap1\n      pop\n        /* \"#utility.yul\":1525:1590   */\n      tag_160\n        /* \"#utility.yul\":1587:1588   */\n      0x00\n        /* \"#utility.yul\":1576:1585   */\n      dup4\n        /* \"#utility.yul\":1572:1589   */\n      add\n        /* \"#utility.yul\":1563:1569   */\n      dup5\n        /* \"#utility.yul\":1525:1590   */\n      tag_114\n      jump\t// in\n    tag_160:\n        /* \"#utility.yul\":1387:1597   */\n      swap3\n      swap2\n      pop\n      pop\n      jump\t// out\n        /* \"#utility.yul\":1603:1719   */\n    tag_115:\n        /* \"#utility.yul\":1673:1694   */\n      tag_162\n        /* \"#utility.yul\":1688:1693   */\n      dup2\n        /* \"#utility.yul\":1673:1694   */\n      tag_113\n      jump\t// in\n    tag_162:\n        /* \"#utility.yul\":1666:1671   */\n      dup2\n        /* \"#utility.yul\":1663:1695   */\n      eq\n        /* \"#utility.yul\":1653:1713   */\n      tag_163\n      jumpi\n        /* \"#utility.yul\":1709:1710   */\n      0x00\n        /* \"#utility.yul\":1706:1707   */\n      0x00\n        /* \"#utility.yul\":1699:1711   */\n      revert\n        /* \"#utility.yul\":1653:1713   */\n    tag_163:\n        /* \"#utility.yul\":1603:1719   */\n      pop\n      jump\t// out\n        /* \"#utility.yul\":1725:1858   */\n    tag_116:\n        /* \"#utility.yul\":1768:1773   */\n      0x00\n        /* \"#utility.yul\":1806:1812   */\n      dup2\n        /* \"#utility.yul\":1793:1813   */\n      calldataload\n        /* \"#utility.yul\":1784:1813   */\n      swap1\n      pop\n        /* \"#utility.yul\":1822:1852   */\n      tag_165\n        /* \"#utility.yul\":1846:1851   */\n      dup2\n        /* \"#utility.yul\":1822:1852   */\n      tag_115\n      jump\t// in\n    tag_165:\n        /* \"#utility.yul\":1725:1858   */\n      swap3\n      swap2\n      pop\n      pop\n      jump\t// out\n        /* \"#utility.yul\":1864:2187   */\n    tag_21:\n        /* \"#utility.yul\":1920:1926   */\n      0x00\n        /* \"#utility.yul\":1969:1971   */\n      0x20\n        /* \"#utility.yul\":1957:1966   */\n      dup3\n        /* \"#utility.yul\":1948:1955   */\n      dup5\n        /* \"#utility.yul\":1944:1967   */\n      sub\n        /* \"#utility.yul\":1940:1972   */\n      slt\n        /* \"#utility.yul\":1937:2056   */\n      iszero\n      tag_167\n      jumpi\n        /* \"#utility.yul\":1975:2054   */\n      tag_168\n      tag_107\n      jump\t// in\n    tag_168:\n        /* \"#utility.yul\":1937:2056   */\n    tag_167:\n        /* \"#utility.yul\":2095:2096   */\n      0x00\n        /* \"#utility.yul\":2120:2170   */\n      tag_169\n        /* \"#utility.yul\":2162:2169   */\n      dup5\n        /* \"#utility.yul\":2153:2159   */\n      dup3\n        /* \"#utility.yul\":2142:2151   */\n      dup6\n        /* \"#utility.yul\":2138:2160   */\n      add\n        /* \"#utility.yul\":2120:2170   */\n      tag_116\n      jump\t// in\n    tag_169:\n        /* \"#utility.yul\":2110:2170   */\n      swap2\n      pop\n        /* \"#utility.yul\":2066:2180   */\n      pop\n        /* \"#utility.yul\":1864:2187   */\n      swap3\n      swap2\n      pop\n      pop\n      jump\t// out\n        /* \"#utility.yul\":2193:2270   */\n    tag_117:\n        /* \"#utility.yul\":2230:2237   */\n      0x00\n        /* \"#utility.yul\":2259:2264   */\n      dup2\n        /* \"#utility.yul\":2248:2264   */\n      swap1\n      pop\n        /* \"#utility.yul\":2193:2270   */\n      swap2\n      swap1\n      pop\n      jump\t// out\n        /* \"#utility.yul\":2276:2398   */\n    tag_118:\n        /* \"#utility.yul\":2349:2373   */\n      tag_172\n        /* \"#utility.yul\":2367:2372   */\n      dup2\n        /* \"#utility.yul\":2349:2373   */\n      tag_117\n      jump\t// in\n    tag_172:\n        /* \"#utility.yul\":2342:2347   */\n      dup2\n        /* \"#utility.yul\":2339:2374   */\n      eq\n        /* \"#utility.yul\":2329:2392   */\n      tag_173\n      jumpi\n        /* \"#utility.yul\":2388:2389   */\n      0x00\n        /* \"#utility.yul\":2385:2386   */\n      0x00\n        /* \"#utility.yul\":2378:2390   */\n      revert\n        /* \"#utility.yul\":2329:2392   */\n    tag_173:\n        /* \"#utility.yul\":2276:2398   */\n      pop\n      jump\t// out\n        /* \"#utility.yul\":2404:2543   */\n    tag_119:\n        /* \"#utility.yul\":2450:2455   */\n      0x00\n        /* \"#utility.yul\":2488:2494   */\n      dup2\n        /* \"#utility.yul\":2475:2495   */\n      calldataload\n        /* \"#utility.yul\":2466:2495   */\n      swap1\n      pop\n        /* \"#utility.yul\":2504:2537   */\n      tag_175\n        /* \"#utility.yul\":2531:2536   */\n      dup2\n        /* \"#utility.yul\":2504:2537   */\n      tag_118\n      jump\t// in\n    tag_175:\n        /* \"#utility.yul\":2404:2543   */\n      swap3\n      swap2\n      pop\n      pop\n      jump\t// out\n        /* \"#utility.yul\":2549:2878   */\n    tag_25:\n        /* \"#utility.yul\":2608:2614   */\n      0x00\n        /* \"#utility.yul\":2657:2659   */\n      0x20\n        /* \"#utility.yul\":2645:2654   */\n      dup3\n        /* \"#utility.yul\":2636:2643   */\n      dup5\n        /* \"#utility.yul\":2632:2655   */\n      sub\n        /* \"#utility.yul\":2628:2660   */\n      slt\n        /* \"#utility.yul\":2625:2744   */\n      iszero\n      tag_177\n      jumpi\n        /* \"#utility.yul\":2663:2742   */\n      tag_178\n      tag_107\n      jump\t// in\n    tag_178:\n        /* \"#utility.yul\":2625:2744   */\n    tag_177:\n        /* \"#utility.yul\":2783:2784   */\n      0x00\n        /* \"#utility.yul\":2808:2861   */\n      tag_179\n        /* \"#utility.yul\":2853:2860   */\n      dup5\n        /* \"#utility.yul\":2844:2850   */\n      dup3\n        /* \"#utility.yul\":2833:2842   */\n      dup6\n        /* \"#utility.yul\":2829:2851   */\n      add\n        /* \"#utility.yul\":2808:2861   */\n      tag_119\n      jump\t// in\n    tag_179:\n        /* \"#utility.yul\":2798:2861   */\n      swap2\n      pop\n        /* \"#utility.yul\":2754:2871   */\n      pop\n        /* \"#utility.yul\":2549:2878   */\n      swap3\n      swap2\n      pop\n      pop\n      jump\t// out\n        /* \"#utility.yul\":2884:3002   */\n    tag_120:\n        /* \"#utility.yul\":2971:2995   */\n      tag_181\n        /* \"#utility.yul\":2989:2994   */\n      dup2\n        /* \"#utility.yul\":2971:2995   */\n      tag_110\n      jump\t// in\n    tag_181:\n        /* \"#utility.yul\":2966:2969   */\n      dup3\n        /* \"#utility.yul\":2959:2996   */\n      mstore\n        /* \"#utility.yul\":2884:3002   */\n      pop\n      pop\n      jump\t// out\n        /* \"#utility.yul\":3008:3126   */\n    tag_121:\n        /* \"#utility.yul\":3095:3119   */\n      tag_183\n        /* \"#utility.yul\":3113:3118   */\n      dup2\n        /* \"#utility.yul\":3095:3119   */\n      tag_117\n      jump\t// in\n    tag_183:\n        /* \"#utility.yul\":3090:3093   */\n      dup3\n        /* \"#utility.yul\":3083:3120   */\n      mstore\n        /* \"#utility.yul\":3008:3126   */\n      pop\n      pop\n      jump\t// out\n        /* \"#utility.yul\":3132:3464   */\n    tag_28:\n        /* \"#utility.yul\":3253:3257   */\n      0x00\n        /* \"#utility.yul\":3291:3293   */\n      0x40\n        /* \"#utility.yul\":3280:3289   */\n      dup3\n        /* \"#utility.yul\":3276:3294   */\n      add\n        /* \"#utility.yul\":3268:3294   */\n      swap1\n      pop\n        /* \"#utility.yul\":3304:3375   */\n      tag_185\n        /* \"#utility.yul\":3372:3373   */\n      0x00\n        /* \"#utility.yul\":3361:3370   */\n      dup4\n        /* \"#utility.yul\":3357:3374   */\n      add\n        /* \"#utility.yul\":3348:3354   */\n      dup6\n        /* \"#utility.yul\":3304:3375   */\n      tag_120\n      jump\t// in\n    tag_185:\n        /* \"#utility.yul\":3385:3457   */\n      tag_186\n        /* \"#utility.yul\":3453:3455   */\n      0x20\n        /* \"#utility.yul\":3442:3451   */\n      dup4\n        /* \"#utility.yul\":3438:3456   */\n      add\n        /* \"#utility.yul\":3429:3435   */\n      dup5\n        /* \"#utility.yul\":3385:3457   */\n      tag_121\n      jump\t// in\n    tag_186:\n        /* \"#utility.yul\":3132:3464   */\n      swap4\n      swap3\n      pop\n      pop\n      pop\n      jump\t// out\n        /* \"#utility.yul\":3470:3692   */\n    tag_32:\n        /* \"#utility.yul\":3563:3567   */\n      0x00\n        /* \"#utility.yul\":3601:3603   */\n      0x20\n        /* \"#utility.yul\":3590:3599   */\n      dup3\n        /* \"#utility.yul\":3586:3604   */\n      add\n        /* \"#utility.yul\":3578:3604   */\n      swap1\n      pop\n        /* \"#utility.yul\":3614:3685   */\n      tag_188\n        /* \"#utility.yul\":3682:3683   */\n      0x00\n        /* \"#utility.yul\":3671:3680   */\n      dup4\n        /* \"#utility.yul\":3667:3684   */\n      add\n        /* \"#utility.yul\":3658:3664   */\n      dup5\n        /* \"#utility.yul\":3614:3685   */\n      tag_120\n      jump\t// in\n    tag_188:\n        /* \"#utility.yul\":3470:3692   */\n      swap3\n      swap2\n      pop\n      pop\n      jump\t// out\n        /* \"#utility.yul\":3698:3920   */\n    tag_43:\n        /* \"#utility.yul\":3791:3795   */\n      0x00\n        /* \"#utility.yul\":3829:3831   */\n      0x20\n        /* \"#utility.yul\":3818:3827   */\n      dup3\n        /* \"#utility.yul\":3814:3832   */\n      add\n        /* \"#utility.yul\":3806:3832   */\n      swap1\n      pop\n        /* \"#utility.yul\":3842:3913   */\n      tag_190\n        /* \"#utility.yul\":3910:3911   */\n      0x00\n        /* \"#utility.yul\":3899:3908   */\n      dup4\n        /* \"#utility.yul\":3895:3912   */\n      add\n        /* \"#utility.yul\":3886:3892   */\n      dup5\n        /* \"#utility.yul\":3842:3913   */\n      tag_121\n      jump\t// in\n    tag_190:\n        /* \"#utility.yul\":3698:3920   */\n      swap3\n      swap2\n      pop\n      pop\n      jump\t// out\n        /* \"#utility.yul\":3926:4095   */\n    tag_122:\n        /* \"#utility.yul\":4010:4021   */\n      0x00\n        /* \"#utility.yul\":4044:4050   */\n      dup3\n        /* \"#utility.yul\":4039:4042   */\n      dup3\n        /* \"#utility.yul\":4032:4051   */\n      mstore\n        /* \"#utility.yul\":4084:4088   */\n      0x20\n        /* \"#utility.yul\":4079:4082   */\n      dup3\n        /* \"#utility.yul\":4075:4089   */\n      add\n        /* \"#utility.yul\":4060:4089   */\n      swap1\n      pop\n        /* \"#utility.yul\":3926:4095   */\n      swap3\n      swap2\n      pop\n      pop\n      jump\t// out\n        /* \"#utility.yul\":4101:4267   */\n    tag_123:\n        /* \"#utility.yul\":4241:4259   */\n      0x416e64612062756b616e206f776e657200000000000000000000000000000000\n        /* \"#utility.yul\":4237:4238   */\n      0x00\n        /* \"#utility.yul\":4229:4235   */\n      dup3\n        /* \"#utility.yul\":4225:4239   */\n      add\n        /* \"#utility.yul\":4218:4260   */\n      mstore\n        /* \"#utility.yul\":4101:4267   */\n      pop\n      jump\t// out\n        /* \"#utility.yul\":4273:4639   */\n    tag_124:\n        /* \"#utility.yul\":4415:4418   */\n      0x00\n        /* \"#utility.yul\":4436:4503   */\n      tag_194\n        /* \"#utility.yul\":4500:4502   */\n      0x10\n        /* \"#utility.yul\":4495:4498   */\n      dup4\n        /* \"#utility.yul\":4436:4503   */\n      tag_122\n      jump\t// in\n    tag_194:\n        /* \"#utility.yul\":4429:4503   */\n      swap2\n      pop\n        /* \"#utility.yul\":4512:4605   */\n      tag_195\n        /* \"#utility.yul\":4601:4604   */\n      dup3\n        /* \"#utility.yul\":4512:4605   */\n      tag_123\n      jump\t// in\n    tag_195:\n        /* \"#utility.yul\":4630:4632   */\n      0x20\n        /* \"#utility.yul\":4625:4628   */\n      dup3\n        /* \"#utility.yul\":4621:4633   */\n      add\n        /* \"#utility.yul\":4614:4633   */\n      swap1\n      pop\n        /* \"#utility.yul\":4273:4639   */\n      swap2\n      swap1\n      pop\n      jump\t// out\n        /* \"#utility.yul\":4645:5064   */\n    tag_53:\n        /* \"#utility.yul\":4811:4815   */\n      0x00\n        /* \"#utility.yul\":4849:4851   */\n      0x20\n        /* \"#utility.yul\":4838:4847   */\n      dup3\n        /* \"#utility.yul\":4834:4852   */\n      add\n        /* \"#utility.yul\":4826:4852   */\n      swap1\n      pop\n        /* \"#utility.yul\":4898:4907   */\n      dup2\n        /* \"#utility.yul\":4892:4896   */\n      dup2\n        /* \"#utility.yul\":4888:4908   */\n      sub\n        /* \"#utility.yul\":4884:4885   */\n      0x00\n        /* \"#utility.yul\":4873:4882   */\n      dup4\n        /* \"#utility.yul\":4869:4886   */\n      add\n        /* \"#utility.yul\":4862:4909   */\n      mstore\n        /* \"#utility.yul\":4926:5057   */\n      tag_197\n        /* \"#utility.yul\":5052:5056   */\n      dup2\n        /* \"#utility.yul\":4926:5057   */\n      tag_124\n      jump\t// in\n    tag_197:\n        /* \"#utility.yul\":4918:5057   */\n      swap1\n      pop\n        /* \"#utility.yul\":4645:5064   */\n      swap2\n      swap1\n      pop\n      jump\t// out\n        /* \"#utility.yul\":5070:5239   */\n    tag_125:\n        /* \"#utility.yul\":5210:5231   */\n      0x4d617369682070726f73657320766f74696e6700000000000000000000000000\n        /* \"#utility.yul\":5206:5207   */\n      0x00\n        /* \"#utility.yul\":5198:5204   */\n      dup3\n        /* \"#utility.yul\":5194:5208   */\n      add\n        /* \"#utility.yul\":5187:5232   */\n      mstore\n        /* \"#utility.yul\":5070:5239   */\n      pop\n      jump\t// out\n        /* \"#utility.yul\":5245:5611   */\n    tag_126:\n        /* \"#utility.yul\":5387:5390   */\n      0x00\n        /* \"#utility.yul\":5408:5475   */\n      tag_200\n        /* \"#utility.yul\":5472:5474   */\n      0x13\n        /* \"#utility.yul\":5467:5470   */\n      dup4\n        /* \"#utility.yul\":5408:5475   */\n      tag_122\n      jump\t// in\n    tag_200:\n        /* \"#utility.yul\":5401:5475   */\n      swap2\n      pop\n        /* \"#utility.yul\":5484:5577   */\n      tag_201\n        /* \"#utility.yul\":5573:5576   */\n      dup3\n        /* \"#utility.yul\":5484:5577   */\n      tag_125\n      jump\t// in\n    tag_201:\n        /* \"#utility.yul\":5602:5604   */\n      0x20\n        /* \"#utility.yul\":5597:5600   */\n      dup3\n        /* \"#utility.yul\":5593:5605   */\n      add\n        /* \"#utility.yul\":5586:5605   */\n      swap1\n      pop\n        /* \"#utility.yul\":5245:5611   */\n      swap2\n      swap1\n      pop\n      jump\t// out\n        /* \"#utility.yul\":5617:6036   */\n    tag_59:\n        /* \"#utility.yul\":5783:5787   */\n      0x00\n        /* \"#utility.yul\":5821:5823   */\n      0x20\n        /* \"#utility.yul\":5810:5819   */\n      dup3\n        /* \"#utility.yul\":5806:5824   */\n      add\n        /* \"#utility.yul\":5798:5824   */\n      swap1\n      pop\n        /* \"#utility.yul\":5870:5879   */\n      dup2\n        /* \"#utility.yul\":5864:5868   */\n      dup2\n        /* \"#utility.yul\":5860:5880   */\n      sub\n        /* \"#utility.yul\":5856:5857   */\n      0x00\n        /* \"#utility.yul\":5845:5854   */\n      dup4\n        /* \"#utility.yul\":5841:5858   */\n      add\n        /* \"#utility.yul\":5834:5881   */\n      mstore\n        /* \"#utility.yul\":5898:6029   */\n      tag_203\n        /* \"#utility.yul\":6024:6028   */\n      dup2\n        /* \"#utility.yul\":5898:6029   */\n      tag_126\n      jump\t// in\n    tag_203:\n        /* \"#utility.yul\":5890:6029   */\n      swap1\n      pop\n        /* \"#utility.yul\":5617:6036   */\n      swap2\n      swap1\n      pop\n      jump\t// out\n        /* \"#utility.yul\":6042:6207   */\n    tag_127:\n        /* \"#utility.yul\":6182:6199   */\n      0x4b616e6469646174206b7572616e670000000000000000000000000000000000\n        /* \"#utility.yul\":6178:6179   */\n      0x00\n        /* \"#utility.yul\":6170:6176   */\n      dup3\n        /* \"#utility.yul\":6166:6180   */\n      add\n        /* \"#utility.yul\":6159:6200   */\n      mstore\n        /* \"#utility.yul\":6042:6207   */\n      pop\n      jump\t// out\n        /* \"#utility.yul\":6213:6579   */\n    tag_128:\n        /* \"#utility.yul\":6355:6358   */\n      0x00\n        /* \"#utility.yul\":6376:6443   */\n      tag_206\n        /* \"#utility.yul\":6440:6442   */\n      0x0f\n        /* \"#utility.yul\":6435:6438   */\n      dup4\n        /* \"#utility.yul\":6376:6443   */\n      tag_122\n      jump\t// in\n    tag_206:\n        /* \"#utility.yul\":6369:6443   */\n      swap2\n      pop\n        /* \"#utility.yul\":6452:6545   */\n      tag_207\n        /* \"#utility.yul\":6541:6544   */\n      dup3\n        /* \"#utility.yul\":6452:6545   */\n      tag_127\n      jump\t// in\n    tag_207:\n        /* \"#utility.yul\":6570:6572   */\n      0x20\n        /* \"#utility.yul\":6565:6568   */\n      dup3\n        /* \"#utility.yul\":6561:6573   */\n      add\n        /* \"#utility.yul\":6554:6573   */\n      swap1\n      pop\n        /* \"#utility.yul\":6213:6579   */\n      swap2\n      swap1\n      pop\n      jump\t// out\n        /* \"#utility.yul\":6585:7004   */\n    tag_62:\n        /* \"#utility.yul\":6751:6755   */\n      0x00\n        /* \"#utility.yul\":6789:6791   */\n      0x20\n        /* \"#utility.yul\":6778:6787   */\n      dup3\n        /* \"#utility.yul\":6774:6792   */\n      add\n        /* \"#utility.yul\":6766:6792   */\n      swap1\n      pop\n        /* \"#utility.yul\":6838:6847   */\n      dup2\n        /* \"#utility.yul\":6832:6836   */\n      dup2\n        /* \"#utility.yul\":6828:6848   */\n      sub\n        /* \"#utility.yul\":6824:6825   */\n      0x00\n        /* \"#utility.yul\":6813:6822   */\n      dup4\n        /* \"#utility.yul\":6809:6826   */\n      add\n        /* \"#utility.yul\":6802:6849   */\n      mstore\n        /* \"#utility.yul\":6866:6997   */\n      tag_209\n        /* \"#utility.yul\":6992:6996   */\n      dup2\n        /* \"#utility.yul\":6866:6997   */\n      tag_128\n      jump\t// in\n    tag_209:\n        /* \"#utility.yul\":6858:6997   */\n      swap1\n      pop\n        /* \"#utility.yul\":6585:7004   */\n      swap2\n      swap1\n      pop\n      jump\t// out\n        /* \"#utility.yul\":7010:7190   */\n    tag_68:\n        /* \"#utility.yul\":7058:7135   */\n      0x4e487b7100000000000000000000000000000000000000000000000000000000\n        /* \"#utility.yul\":7055:7056   */\n      0x00\n        /* \"#utility.yul\":7048:7136   */\n      mstore\n        /* \"#utility.yul\":7155:7159   */\n      0x32\n        /* \"#utility.yul\":7152:7153   */\n      0x04\n        /* \"#utility.yul\":7145:7160   */\n      mstore\n        /* \"#utility.yul\":7179:7183   */\n      0x24\n        /* \"#utility.yul\":7176:7177   */\n      0x00\n        /* \"#utility.yul\":7169:7184   */\n      revert\n        /* \"#utility.yul\":7196:7370   */\n    tag_129:\n        /* \"#utility.yul\":7336:7362   */\n      0x4b616e6469646174207375646168207465726461667461720000000000000000\n        /* \"#utility.yul\":7332:7333   */\n      0x00\n        /* \"#utility.yul\":7324:7330   */\n      dup3\n        /* \"#utility.yul\":7320:7334   */\n      add\n        /* \"#utility.yul\":7313:7363   */\n      mstore\n        /* \"#utility.yul\":7196:7370   */\n      pop\n      jump\t// out\n        /* \"#utility.yul\":7376:7742   */\n    tag_130:\n        /* \"#utility.yul\":7518:7521   */\n      0x00\n        /* \"#utility.yul\":7539:7606   */\n      tag_213\n        /* \"#utility.yul\":7603:7605   */\n      0x18\n        /* \"#utility.yul\":7598:7601   */\n      dup4\n        /* \"#utility.yul\":7539:7606   */\n      tag_122\n      jump\t// in\n    tag_213:\n        /* \"#utility.yul\":7532:7606   */\n      swap2\n      pop\n        /* \"#utility.yul\":7615:7708   */\n      tag_214\n        /* \"#utility.yul\":7704:7707   */\n      dup3\n        /* \"#utility.yul\":7615:7708   */\n      tag_129\n      jump\t// in\n    tag_214:\n        /* \"#utility.yul\":7733:7735   */\n      0x20\n        /* \"#utility.yul\":7728:7731   */\n      dup3\n        /* \"#utility.yul\":7724:7736   */\n      add\n        /* \"#utility.yul\":7717:7736   */\n      swap1\n      pop\n        /* \"#utility.yul\":7376:7742   */\n      swap2\n      swap1\n      pop\n      jump\t// out\n        /* \"#utility.yul\":7748:8167   */\n    tag_86:\n        /* \"#utility.yul\":7914:7918   */\n      0x00\n        /* \"#utility.yul\":7952:7954   */\n      0x20\n        /* \"#utility.yul\":7941:7950   */\n      dup3\n        /* \"#utility.yul\":7937:7955   */\n      add\n        /* \"#utility.yul\":7929:7955   */\n      swap1\n      pop\n        /* \"#utility.yul\":8001:8010   */\n      dup2\n        /* \"#utility.yul\":7995:7999   */\n      dup2\n        /* \"#utility.yul\":7991:8011   */\n      sub\n        /* \"#utility.yul\":7987:7988   */\n      0x00\n        /* \"#utility.yul\":7976:7985   */\n      dup4\n        /* \"#utility.yul\":7972:7989   */\n      add\n        /* \"#utility.yul\":7965:8012   */\n      mstore\n        /* \"#utility.yul\":8029:8160   */\n      tag_216\n        /* \"#utility.yul\":8155:8159   */\n      dup2\n        /* \"#utility.yul\":8029:8160   */\n      tag_130\n      jump\t// in\n    tag_216:\n        /* \"#utility.yul\":8021:8160   */\n      swap1\n      pop\n        /* \"#utility.yul\":7748:8167   */\n      swap2\n      swap1\n      pop\n      jump\t// out\n        /* \"#utility.yul\":8173:8340   */\n    tag_131:\n        /* \"#utility.yul\":8313:8332   */\n      0x42656c756d206269736120766f74696e67000000000000000000000000000000\n        /* \"#utility.yul\":8309:8310   */\n      0x00\n        /* \"#utility.yul\":8301:8307   */\n      dup3\n        /* \"#utility.yul\":8297:8311   */\n      add\n        /* \"#utility.yul\":8290:8333   */\n      mstore\n        /* \"#utility.yul\":8173:8340   */\n      pop\n      jump\t// out\n        /* \"#utility.yul\":8346:8712   */\n    tag_132:\n        /* \"#utility.yul\":8488:8491   */\n      0x00\n        /* \"#utility.yul\":8509:8576   */\n      tag_219\n        /* \"#utility.yul\":8573:8575   */\n      0x11\n        /* \"#utility.yul\":8568:8571   */\n      dup4\n        /* \"#utility.yul\":8509:8576   */\n      tag_122\n      jump\t// in\n    tag_219:\n        /* \"#utility.yul\":8502:8576   */\n      swap2\n      pop\n        /* \"#utility.yul\":8585:8678   */\n      tag_220\n        /* \"#utility.yul\":8674:8677   */\n      dup3\n        /* \"#utility.yul\":8585:8678   */\n      tag_131\n      jump\t// in\n    tag_220:\n        /* \"#utility.yul\":8703:8705   */\n      0x20\n        /* \"#utility.yul\":8698:8701   */\n      dup3\n        /* \"#utility.yul\":8694:8706   */\n      add\n        /* \"#utility.yul\":8687:8706   */\n      swap1\n      pop\n        /* \"#utility.yul\":8346:8712   */\n      swap2\n      swap1\n      pop\n      jump\t// out\n        /* \"#utility.yul\":8718:9137   */\n    tag_91:\n        /* \"#utility.yul\":8884:8888   */\n      0x00\n        /* \"#utility.yul\":8922:8924   */\n      0x20\n        /* \"#utility.yul\":8911:8920   */\n      dup3\n        /* \"#utility.yul\":8907:8925   */\n      add\n        /* \"#utility.yul\":8899:8925   */\n      swap1\n      pop\n        /* \"#utility.yul\":8971:8980   */\n      dup2\n        /* \"#utility.yul\":8965:8969   */\n      dup2\n        /* \"#utility.yul\":8961:8981   */\n      sub\n        /* \"#utility.yul\":8957:8958   */\n      0x00\n        /* \"#utility.yul\":8946:8955   */\n      dup4\n        /* \"#utility.yul\":8942:8959   */\n      add\n        /* \"#utility.yul\":8935:8982   */\n      mstore\n        /* \"#utility.yul\":8999:9130   */\n      tag_222\n        /* \"#utility.yul\":9125:9129   */\n      dup2\n        /* \"#utility.yul\":8999:9130   */\n      tag_132\n      jump\t// in\n    tag_222:\n        /* \"#utility.yul\":8991:9130   */\n      swap1\n      pop\n        /* \"#utility.yul\":8718:9137   */\n      swap2\n      swap1\n      pop\n      jump\t// out\n        /* \"#utility.yul\":9143:9310   */\n    tag_133:\n        /* \"#utility.yul\":9283:9302   */\n      0x416e646120737564616820766f74696e67000000000000000000000000000000\n        /* \"#utility.yul\":9279:9280   */\n      0x00\n        /* \"#utility.yul\":9271:9277   */\n      dup3\n        /* \"#utility.yul\":9267:9281   */\n      add\n        /* \"#utility.yul\":9260:9303   */\n      mstore\n        /* \"#utility.yul\":9143:9310   */\n      pop\n      jump\t// out\n        /* \"#utility.yul\":9316:9682   */\n    tag_134:\n        /* \"#utility.yul\":9458:9461   */\n      0x00\n        /* \"#utility.yul\":9479:9546   */\n      tag_225\n        /* \"#utility.yul\":9543:9545   */\n      0x11\n        /* \"#utility.yul\":9538:9541   */\n      dup4\n        /* \"#utility.yul\":9479:9546   */\n      tag_122\n      jump\t// in\n    tag_225:\n        /* \"#utility.yul\":9472:9546   */\n      swap2\n      pop\n        /* \"#utility.yul\":9555:9648   */\n      tag_226\n        /* \"#utility.yul\":9644:9647   */\n      dup3\n        /* \"#utility.yul\":9555:9648   */\n      tag_133\n      jump\t// in\n    tag_226:\n        /* \"#utility.yul\":9673:9675   */\n      0x20\n        /* \"#utility.yul\":9668:9671   */\n      dup3\n        /* \"#utility.yul\":9664:9676   */\n      add\n        /* \"#utility.yul\":9657:9676   */\n      swap1\n      pop\n        /* \"#utility.yul\":9316:9682   */\n      swap2\n      swap1\n      pop\n      jump\t// out\n        /* \"#utility.yul\":9688:10107   */\n    tag_94:\n        /* \"#utility.yul\":9854:9858   */\n      0x00\n        /* \"#utility.yul\":9892:9894   */\n      0x20\n        /* \"#utility.yul\":9881:9890   */\n      dup3\n        /* \"#utility.yul\":9877:9895   */\n      add\n        /* \"#utility.yul\":9869:9895   */\n      swap1\n      pop\n        /* \"#utility.yul\":9941:9950   */\n      dup2\n        /* \"#utility.yul\":9935:9939   */\n      dup2\n        /* \"#utility.yul\":9931:9951   */\n      sub\n        /* \"#utility.yul\":9927:9928   */\n      0x00\n        /* \"#utility.yul\":9916:9925   */\n      dup4\n        /* \"#utility.yul\":9912:9929   */\n      add\n        /* \"#utility.yul\":9905:9952   */\n      mstore\n        /* \"#utility.yul\":9969:10100   */\n      tag_228\n        /* \"#utility.yul\":10095:10099   */\n      dup2\n        /* \"#utility.yul\":9969:10100   */\n      tag_134\n      jump\t// in\n    tag_228:\n        /* \"#utility.yul\":9961:10100   */\n      swap1\n      pop\n        /* \"#utility.yul\":9688:10107   */\n      swap2\n      swap1\n      pop\n      jump\t// out\n        /* \"#utility.yul\":10113:10281   */\n    tag_135:\n        /* \"#utility.yul\":10253:10273   */\n      0x4b616e646964617420746964616b206164610000000000000000000000000000\n        /* \"#utility.yul\":10249:10250   */\n      0x00\n        /* \"#utility.yul\":10241:10247   */\n      dup3\n        /* \"#utility.yul\":10237:10251   */\n      add\n        /* \"#utility.yul\":10230:10274   */\n      mstore\n        /* \"#utility.yul\":10113:10281   */\n      pop\n      jump\t// out\n        /* \"#utility.yul\":10287:10653   */\n    tag_136:\n        /* \"#utility.yul\":10429:10432   */\n      0x00\n        /* \"#utility.yul\":10450:10517   */\n      tag_231\n        /* \"#utility.yul\":10514:10516   */\n      0x12\n        /* \"#utility.yul\":10509:10512   */\n      dup4\n        /* \"#utility.yul\":10450:10517   */\n      tag_122\n      jump\t// in\n    tag_231:\n        /* \"#utility.yul\":10443:10517   */\n      swap2\n      pop\n        /* \"#utility.yul\":10526:10619   */\n      tag_232\n        /* \"#utility.yul\":10615:10618   */\n      dup3\n        /* \"#utility.yul\":10526:10619   */\n      tag_135\n      jump\t// in\n    tag_232:\n        /* \"#utility.yul\":10644:10646   */\n      0x20\n        /* \"#utility.yul\":10639:10642   */\n      dup3\n        /* \"#utility.yul\":10635:10647   */\n      add\n        /* \"#utility.yul\":10628:10647   */\n      swap1\n      pop\n        /* \"#utility.yul\":10287:10653   */\n      swap2\n      swap1\n      pop\n      jump\t// out\n        /* \"#utility.yul\":10659:11078   */\n    tag_97:\n        /* \"#utility.yul\":10825:10829   */\n      0x00\n        /* \"#utility.yul\":10863:10865   */\n      0x20\n        /* \"#utility.yul\":10852:10861   */\n      dup3\n        /* \"#utility.yul\":10848:10866   */\n      add\n        /* \"#utility.yul\":10840:10866   */\n      swap1\n      pop\n        /* \"#utility.yul\":10912:10921   */\n      dup2\n        /* \"#utility.yul\":10906:10910   */\n      dup2\n        /* \"#utility.yul\":10902:10922   */\n      sub\n        /* \"#utility.yul\":10898:10899   */\n      0x00\n        /* \"#utility.yul\":10887:10896   */\n      dup4\n        /* \"#utility.yul\":10883:10900   */\n      add\n        /* \"#utility.yul\":10876:10923   */\n      mstore\n        /* \"#utility.yul\":10940:11071   */\n      tag_234\n        /* \"#utility.yul\":11066:11070   */\n      dup2\n        /* \"#utility.yul\":10940:11071   */\n      tag_136\n      jump\t// in\n    tag_234:\n        /* \"#utility.yul\":10932:11071   */\n      swap1\n      pop\n        /* \"#utility.yul\":10659:11078   */\n      swap2\n      swap1\n      pop\n      jump\t// out\n        /* \"#utility.yul\":11084:11255   */\n    tag_137:\n        /* \"#utility.yul\":11224:11247   */\n      0x4f776e657220676120626f6c656820766f74696e670000000000000000000000\n        /* \"#utility.yul\":11220:11221   */\n      0x00\n        /* \"#utility.yul\":11212:11218   */\n      dup3\n        /* \"#utility.yul\":11208:11222   */\n      add\n        /* \"#utility.yul\":11201:11248   */\n      mstore\n        /* \"#utility.yul\":11084:11255   */\n      pop\n      jump\t// out\n        /* \"#utility.yul\":11261:11627   */\n    tag_138:\n        /* \"#utility.yul\":11403:11406   */\n      0x00\n        /* \"#utility.yul\":11424:11491   */\n      tag_237\n        /* \"#utility.yul\":11488:11490   */\n      0x15\n        /* \"#utility.yul\":11483:11486   */\n      dup4\n        /* \"#utility.yul\":11424:11491   */\n      tag_122\n      jump\t// in\n    tag_237:\n        /* \"#utility.yul\":11417:11491   */\n      swap2\n      pop\n        /* \"#utility.yul\":11500:11593   */\n      tag_238\n        /* \"#utility.yul\":11589:11592   */\n      dup3\n        /* \"#utility.yul\":11500:11593   */\n      tag_137\n      jump\t// in\n    tag_238:\n        /* \"#utility.yul\":11618:11620   */\n      0x20\n        /* \"#utility.yul\":11613:11616   */\n      dup3\n        /* \"#utility.yul\":11609:11621   */\n      add\n        /* \"#utility.yul\":11602:11621   */\n      swap1\n      pop\n        /* \"#utility.yul\":11261:11627   */\n      swap2\n      swap1\n      pop\n      jump\t// out\n        /* \"#utility.yul\":11633:12052   */\n    tag_100:\n        /* \"#utility.yul\":11799:11803   */\n      0x00\n        /* \"#utility.yul\":11837:11839   */\n      0x20\n        /* \"#utility.yul\":11826:11835   */\n      dup3\n        /* \"#utility.yul\":11822:11840   */\n      add\n        /* \"#utility.yul\":11814:11840   */\n      swap1\n      pop\n        /* \"#utility.yul\":11886:11895   */\n      dup2\n        /* \"#utility.yul\":11880:11884   */\n      dup2\n        /* \"#utility.yul\":11876:11896   */\n      sub\n        /* \"#utility.yul\":11872:11873   */\n      0x00\n        /* \"#utility.yul\":11861:11870   */\n      dup4\n        /* \"#utility.yul\":11857:11874   */\n      add\n        /* \"#utility.yul\":11850:11897   */\n      mstore\n        /* \"#utility.yul\":11914:12045   */\n      tag_240\n        /* \"#utility.yul\":12040:12044   */\n      dup2\n        /* \"#utility.yul\":11914:12045   */\n      tag_138\n      jump\t// in\n    tag_240:\n        /* \"#utility.yul\":11906:12045   */\n      swap1\n      pop\n        /* \"#utility.yul\":11633:12052   */\n      swap2\n      swap1\n      pop\n      jump\t// out\n        /* \"#utility.yul\":12058:12238   */\n    tag_139:\n        /* \"#utility.yul\":12106:12183   */\n      0x4e487b7100000000000000000000000000000000000000000000000000000000\n        /* \"#utility.yul\":12103:12104   */\n      0x00\n        /* \"#utility.yul\":12096:12184   */\n      mstore\n        /* \"#utility.yul\":12203:12207   */\n      0x11\n        /* \"#utility.yul\":12200:12201   */\n      0x04\n        /* \"#utility.yul\":12193:12208   */\n      mstore\n        /* \"#utility.yul\":12227:12231   */\n      0x24\n        /* \"#utility.yul\":12224:12225   */\n      0x00\n        /* \"#utility.yul\":12217:12232   */\n      revert\n        /* \"#utility.yul\":12244:12477   */\n    tag_105:\n        /* \"#utility.yul\":12283:12286   */\n      0x00\n        /* \"#utility.yul\":12306:12330   */\n      tag_243\n        /* \"#utility.yul\":12324:12329   */\n      dup3\n        /* \"#utility.yul\":12306:12330   */\n      tag_117\n      jump\t// in\n    tag_243:\n        /* \"#utility.yul\":12297:12330   */\n      swap2\n      pop\n        /* \"#utility.yul\":12352:12418   */\n      0xffffffffffffffffffffffffffffffffffffffffffffffffffffffffffffffff\n        /* \"#utility.yul\":12345:12350   */\n      dup3\n        /* \"#utility.yul\":12342:12419   */\n      sub\n        /* \"#utility.yul\":12339:12442   */\n      tag_244\n      jumpi\n        /* \"#utility.yul\":12422:12440   */\n      tag_245\n      tag_139\n      jump\t// in\n    tag_245:\n        /* \"#utility.yul\":12339:12442   */\n    tag_244:\n        /* \"#utility.yul\":12469:12470   */\n      0x01\n        /* \"#utility.yul\":12462:12467   */\n      dup3\n        /* \"#utility.yul\":12458:12471   */\n      add\n        /* \"#utility.yul\":12451:12471   */\n      swap1\n      pop\n        /* \"#utility.yul\":12244:12477   */\n      swap2\n      swap1\n      pop\n      jump\t// out\n\n    auxdata: 0xa26469706673582212209202eb26086bc601d89a5df9f53e4e9514f148d95ca095bffae32777eba9dc5f64736f6c634300081e0033\n}\n",
				"bytecode": {
					"linkReferences": {},
					"object": "6080604052348015600e575f5ffd5b50335f5f6101000a81548173ffffffffffffffffffffffffffffffffffffffff021916908373ffffffffffffffffffffffffffffffffffffffff1602179055505f5f60146101000a81548160ff021916908315150217905550610f1b806100745f395ff3fe608060405234801561000f575f5ffd5b5060043610610091575f3560e01c8063a2c7cf2611610064578063a2c7cf2614610130578063ac1bd21614610160578063da1257301461017f578063dcacfc121461019d578063fd4a77f1146101b957610091565b8063029f4cf0146100955780633be360f4146100c5578063657c3ef1146100e15780638da5cb5b14610112575b5f5ffd5b6100af60048036038101906100aa919061096c565b6101d5565b6040516100bc91906109b1565b60405180910390f35b6100df60048036038101906100da91906109f4565b6101f2565b005b6100fb60048036038101906100f69190610a52565b61029c565b604051610109929190610a9b565b60405180910390f35b61011a6102ea565b6040516101279190610ac2565b60405180910390f35b61014a6004803603810190610145919061096c565b61030e565b60405161015791906109b1565b60405180910390f35b61016861032b565b604051610176929190610a9b565b60405180910390f35b6101876104b2565b6040516101949190610adb565b60405180910390f35b6101b760048036038101906101b2919061096c565b6104be565b005b6101d360048036038101906101ce9190610a52565b6106d1565b005b6003602052805f5260405f205f915054906101000a900460ff1681565b5f5f9054906101000a900473ffffffffffffffffffffffffffffffffffffffff1673ffffffffffffffffffffffffffffffffffffffff163373ffffffffffffffffffffffffffffffffffffffff1614610280576040517f08c379a000000000000000000000000000000000000000000000000000000000815260040161027790610b4e565b60405180910390fd5b805f60146101000a81548160ff02191690831515021790555050565b600181815481106102ab575f80fd5b905f5260205f2090600202015f91509050805f015f9054906101000a900473ffffffffffffffffffffffffffffffffffffffff16908060010154905082565b5f5f9054906101000a900473ffffffffffffffffffffffffffffffffffffffff1681565b6002602052805f5260405f205f915054906101000a900460ff1681565b5f5f5f60149054906101000a900460ff161561037c576040517f08c379a000000000000000000000000000000000000000000000000000000000815260040161037390610bb6565b60405180910390fd5b600260018054905010156103c5576040517f08c379a00000000000000000000000000000000000000000000000000000000081526004016103bc90610c1e565b60405180910390fd5b5f5f90505f5f90505f5f90505b6001805490508110156104415782600182815481106103f4576103f3610c3c565b5b905f5260205f209060020201600101541115610434576001818154811061041e5761041d610c3c565b5b905f5260205f2090600202016001015492508091505b80806001019150506103d2565b506001818154811061045657610455610c3c565b5b905f5260205f2090600202015f015f9054906101000a900473ffffffffffffffffffffffffffffffffffffffff166001828154811061049857610497610c3c565b5b905f5260205f209060020201600101549350935050509091565b5f600180549050905090565b5f5f9054906101000a900473ffffffffffffffffffffffffffffffffffffffff1673ffffffffffffffffffffffffffffffffffffffff163373ffffffffffffffffffffffffffffffffffffffff161461054c576040517f08c379a000000000000000000000000000000000000000000000000000000000815260040161054390610b4e565b60405180910390fd5b60025f8273ffffffffffffffffffffffffffffffffffffffff1673ffffffffffffffffffffffffffffffffffffffff1681526020019081526020015f205f9054906101000a900460ff16156105d6576040517f08c379a00000000000000000000000000000000000000000000000000000000081526004016105cd90610cb3565b60405180910390fd5b600160405180604001604052808373ffffffffffffffffffffffffffffffffffffffff1681526020015f815250908060018154018082558091505060019003905f5260205f2090600202015f909190919091505f820151815f015f6101000a81548173ffffffffffffffffffffffffffffffffffffffff021916908373ffffffffffffffffffffffffffffffffffffffff160217905550602082015181600101555050600160025f8373ffffffffffffffffffffffffffffffffffffffff1673ffffffffffffffffffffffffffffffffffffffff1681526020019081526020015f205f6101000a81548160ff02191690831515021790555050565b5f60149054906101000a900460ff1661071f576040517f08c379a000000000000000000000000000000000000000000000000000000000815260040161071690610d1b565b60405180910390fd5b60035f3373ffffffffffffffffffffffffffffffffffffffff1673ffffffffffffffffffffffffffffffffffffffff1681526020019081526020015f205f9054906101000a900460ff16156107a9576040517f08c379a00000000000000000000000000000000000000000000000000000000081526004016107a090610d83565b60405180910390fd5b60018054905081106107f0576040517f08c379a00000000000000000000000000000000000000000000000000000000081526004016107e790610deb565b60405180910390fd5b5f5f9054906101000a900473ffffffffffffffffffffffffffffffffffffffff1673ffffffffffffffffffffffffffffffffffffffff163373ffffffffffffffffffffffffffffffffffffffff160361087e576040517f08c379a000000000000000000000000000000000000000000000000000000000815260040161087590610e53565b60405180910390fd5b6001818154811061089257610891610c3c565b5b905f5260205f2090600202016001015f8154809291906108b190610e9e565b9190505550600160035f3373ffffffffffffffffffffffffffffffffffffffff1673ffffffffffffffffffffffffffffffffffffffff1681526020019081526020015f205f6101000a81548160ff02191690831515021790555050565b5f5ffd5b5f73ffffffffffffffffffffffffffffffffffffffff82169050919050565b5f61093b82610912565b9050919050565b61094b81610931565b8114610955575f5ffd5b50565b5f8135905061096681610942565b92915050565b5f602082840312156109815761098061090e565b5b5f61098e84828501610958565b91505092915050565b5f8115159050919050565b6109ab81610997565b82525050565b5f6020820190506109c45f8301846109a2565b92915050565b6109d381610997565b81146109dd575f5ffd5b50565b5f813590506109ee816109ca565b92915050565b5f60208284031215610a0957610a0861090e565b5b5f610a16848285016109e0565b91505092915050565b5f819050919050565b610a3181610a1f565b8114610a3b575f5ffd5b50565b5f81359050610a4c81610a28565b92915050565b5f60208284031215610a6757610a6661090e565b5b5f610a7484828501610a3e565b91505092915050565b610a8681610931565b82525050565b610a9581610a1f565b82525050565b5f604082019050610aae5f830185610a7d565b610abb6020830184610a8c565b9392505050565b5f602082019050610ad55f830184610a7d565b92915050565b5f602082019050610aee5f830184610a8c565b92915050565b5f82825260208201905092915050565b7f416e64612062756b616e206f776e6572000000000000000000000000000000005f82015250565b5f610b38601083610af4565b9150610b4382610b04565b602082019050919050565b5f6020820190508181035f830152610b6581610b2c565b9050919050565b7f4d617369682070726f73657320766f74696e67000000000000000000000000005f82015250565b5f610ba0601383610af4565b9150610bab82610b6c565b602082019050919050565b5f6020820190508181035f830152610bcd81610b94565b9050919050565b7f4b616e6469646174206b7572616e6700000000000000000000000000000000005f82015250565b5f610c08600f83610af4565b9150610c1382610bd4565b602082019050919050565b5f6020820190508181035f830152610c3581610bfc565b9050919050565b7f4e487b71000000000000000000000000000000000000000000000000000000005f52603260045260245ffd5b7f4b616e64696461742073756461682074657264616674617200000000000000005f82015250565b5f610c9d601883610af4565b9150610ca882610c69565b602082019050919050565b5f6020820190508181035f830152610cca81610c91565b9050919050565b7f42656c756d206269736120766f74696e670000000000000000000000000000005f82015250565b5f610d05601183610af4565b9150610d1082610cd1565b602082019050919050565b5f6020820190508181035f830152610d3281610cf9565b9050919050565b7f416e646120737564616820766f74696e670000000000000000000000000000005f82015250565b5f610d6d601183610af4565b9150610d7882610d39565b602082019050919050565b5f6020820190508181035f830152610d9a81610d61565b9050919050565b7f4b616e646964617420746964616b2061646100000000000000000000000000005f82015250565b5f610dd5601283610af4565b9150610de082610da1565b602082019050919050565b5f6020820190508181035f830152610e0281610dc9565b9050919050565b7f4f776e657220676120626f6c656820766f74696e6700000000000000000000005f82015250565b5f610e3d601583610af4565b9150610e4882610e09565b602082019050919050565b5f6020820190508181035f830152610e6a81610e31565b9050919050565b7f4e487b71000000000000000000000000000000000000000000000000000000005f52601160045260245ffd5b5f610ea882610a1f565b91507fffffffffffffffffffffffffffffffffffffffffffffffffffffffffffffffff8203610eda57610ed9610e71565b5b60018201905091905056fea26469706673582212209202eb26086bc601d89a5df9f53e4e9514f148d95ca095bffae32777eba9dc5f64736f6c634300081e0033",
					"opcodes": "PUSH1 0x80 PUSH1 0x40 MSTORE CALLVALUE DUP1 ISZERO PUSH1 0xE JUMPI PUSH0 PUSH0 REVERT JUMPDEST POP CALLER PUSH0 PUSH0 PUSH2 0x100 EXP DUP2 SLOAD DUP2 PUSH20 0xFFFFFFFFFFFFFFFFFFFFFFFFFFFFFFFFFFFFFFFF MUL NOT AND SWAP1 DUP4 PUSH20 0xFFFFFFFFFFFFFFFFFFFFFFFFFFFFFFFFFFFFFFFF AND MUL OR SWAP1 SSTORE POP PUSH0 PUSH0 PUSH1 0x14 PUSH2 0x100 EXP DUP2 SLOAD DUP2 PUSH1 0xFF MUL NOT AND SWAP1 DUP4 ISZERO ISZERO MUL OR SWAP1 SSTORE POP PUSH2 0xF1B DUP1 PUSH2 0x74 PUSH0 CODECOPY PUSH0 RETURN INVALID PUSH1 0x80 PUSH1 0x40 MSTORE CALLVALUE DUP1 ISZERO PUSH2 0xF JUMPI PUSH0 PUSH0 REVERT JUMPDEST POP PUSH1 0x4 CALLDATASIZE LT PUSH2 0x91 JUMPI PUSH0 CALLDATALOAD PUSH1 0xE0 SHR DUP1 PUSH4 0xA2C7CF26 GT PUSH2 0x64 JUMPI DUP1 PUSH4 0xA2C7CF26 EQ PUSH2 0x130 JUMPI DUP1 PUSH4 0xAC1BD216 EQ PUSH2 0x160 JUMPI DUP1 PUSH4 0xDA125730 EQ PUSH2 0x17F JUMPI DUP1 PUSH4 0xDCACFC12 EQ PUSH2 0x19D JUMPI DUP1 PUSH4 0xFD4A77F1 EQ PUSH2 0x1B9 JUMPI PUSH2 0x91 JUMP JUMPDEST DUP1 PUSH4 0x29F4CF0 EQ PUSH2 0x95 JUMPI DUP1 PUSH4 0x3BE360F4 EQ PUSH2 0xC5 JUMPI DUP1 PUSH4 0x657C3EF1 EQ PUSH2 0xE1 JUMPI DUP1 PUSH4 0x8DA5CB5B EQ PUSH2 0x112 JUMPI JUMPDEST PUSH0 PUSH0 REVERT JUMPDEST PUSH2 0xAF PUSH1 0x4 DUP1 CALLDATASIZE SUB DUP2 ADD SWAP1 PUSH2 0xAA SWAP2 SWAP1 PUSH2 0x96C JUMP JUMPDEST PUSH2 0x1D5 JUMP JUMPDEST PUSH1 0x40 MLOAD PUSH2 0xBC SWAP2 SWAP1 PUSH2 0x9B1 JUMP JUMPDEST PUSH1 0x40 MLOAD DUP1 SWAP2 SUB SWAP1 RETURN JUMPDEST PUSH2 0xDF PUSH1 0x4 DUP1 CALLDATASIZE SUB DUP2 ADD SWAP1 PUSH2 0xDA SWAP2 SWAP1 PUSH2 0x9F4 JUMP JUMPDEST PUSH2 0x1F2 JUMP JUMPDEST STOP JUMPDEST PUSH2 0xFB PUSH1 0x4 DUP1 CALLDATASIZE SUB DUP2 ADD SWAP1 PUSH2 0xF6 SWAP2 SWAP1 PUSH2 0xA52 JUMP JUMPDEST PUSH2 0x29C JUMP JUMPDEST PUSH1 0x40 MLOAD PUSH2 0x109 SWAP3 SWAP2 SWAP1 PUSH2 0xA9B JUMP JUMPDEST PUSH1 0x40 MLOAD DUP1 SWAP2 SUB SWAP1 RETURN JUMPDEST PUSH2 0x11A PUSH2 0x2EA JUMP JUMPDEST PUSH1 0x40 MLOAD PUSH2 0x127 SWAP2 SWAP1 PUSH2 0xAC2 JUMP JUMPDEST PUSH1 0x40 MLOAD DUP1 SWAP2 SUB SWAP1 RETURN JUMPDEST PUSH2 0x14A PUSH1 0x4 DUP1 CALLDATASIZE SUB DUP2 ADD SWAP1 PUSH2 0x145 SWAP2 SWAP1 PUSH2 0x96C JUMP JUMPDEST PUSH2 0x30E JUMP JUMPDEST PUSH1 0x40 MLOAD PUSH2 0x157 SWAP2 SWAP1 PUSH2 0x9B1 JUMP JUMPDEST PUSH1 0x40 MLOAD DUP1 SWAP2 SUB SWAP1 RETURN JUMPDEST PUSH2 0x168 PUSH2 0x32B JUMP JUMPDEST PUSH1 0x40 MLOAD PUSH2 0x176 SWAP3 SWAP2 SWAP1 PUSH2 0xA9B JUMP JUMPDEST PUSH1 0x40 MLOAD DUP1 SWAP2 SUB SWAP1 RETURN JUMPDEST PUSH2 0x187 PUSH2 0x4B2 JUMP JUMPDEST PUSH1 0x40 MLOAD PUSH2 0x194 SWAP2 SWAP1 PUSH2 0xADB JUMP JUMPDEST PUSH1 0x40 MLOAD DUP1 SWAP2 SUB SWAP1 RETURN JUMPDEST PUSH2 0x1B7 PUSH1 0x4 DUP1 CALLDATASIZE SUB DUP2 ADD SWAP1 PUSH2 0x1B2 SWAP2 SWAP1 PUSH2 0x96C JUMP JUMPDEST PUSH2 0x4BE JUMP JUMPDEST STOP JUMPDEST PUSH2 0x1D3 PUSH1 0x4 DUP1 CALLDATASIZE SUB DUP2 ADD SWAP1 PUSH2 0x1CE SWAP2 SWAP1 PUSH2 0xA52 JUMP JUMPDEST PUSH2 0x6D1 JUMP JUMPDEST STOP JUMPDEST PUSH1 0x3 PUSH1 0x20 MSTORE DUP1 PUSH0 MSTORE PUSH1 0x40 PUSH0 KECCAK256 PUSH0 SWAP2 POP SLOAD SWAP1 PUSH2 0x100 EXP SWAP1 DIV PUSH1 0xFF AND DUP2 JUMP JUMPDEST PUSH0 PUSH0 SWAP1 SLOAD SWAP1 PUSH2 0x100 EXP SWAP1 DIV PUSH20 0xFFFFFFFFFFFFFFFFFFFFFFFFFFFFFFFFFFFFFFFF AND PUSH20 0xFFFFFFFFFFFFFFFFFFFFFFFFFFFFFFFFFFFFFFFF AND CALLER PUSH20 0xFFFFFFFFFFFFFFFFFFFFFFFFFFFFFFFFFFFFFFFF AND EQ PUSH2 0x280 JUMPI PUSH1 0x40 MLOAD PUSH32 0x8C379A000000000000000000000000000000000000000000000000000000000 DUP2 MSTORE PUSH1 0x4 ADD PUSH2 0x277 SWAP1 PUSH2 0xB4E JUMP JUMPDEST PUSH1 0x40 MLOAD DUP1 SWAP2 SUB SWAP1 REVERT JUMPDEST DUP1 PUSH0 PUSH1 0x14 PUSH2 0x100 EXP DUP2 SLOAD DUP2 PUSH1 0xFF MUL NOT AND SWAP1 DUP4 ISZERO ISZERO MUL OR SWAP1 SSTORE POP POP JUMP JUMPDEST PUSH1 0x1 DUP2 DUP2 SLOAD DUP2 LT PUSH2 0x2AB JUMPI PUSH0 DUP1 REVERT JUMPDEST SWAP1 PUSH0 MSTORE PUSH1 0x20 PUSH0 KECCAK256 SWAP1 PUSH1 0x2 MUL ADD PUSH0 SWAP2 POP SWAP1 POP DUP1 PUSH0 ADD PUSH0 SWAP1 SLOAD SWAP1 PUSH2 0x100 EXP SWAP1 DIV PUSH20 0xFFFFFFFFFFFFFFFFFFFFFFFFFFFFFFFFFFFFFFFF AND SWAP1 DUP1 PUSH1 0x1 ADD SLOAD SWAP1 POP DUP3 JUMP JUMPDEST PUSH0 PUSH0 SWAP1 SLOAD SWAP1 PUSH2 0x100 EXP SWAP1 DIV PUSH20 0xFFFFFFFFFFFFFFFFFFFFFFFFFFFFFFFFFFFFFFFF AND DUP2 JUMP JUMPDEST PUSH1 0x2 PUSH1 0x20 MSTORE DUP1 PUSH0 MSTORE PUSH1 0x40 PUSH0 KECCAK256 PUSH0 SWAP2 POP SLOAD SWAP1 PUSH2 0x100 EXP SWAP1 DIV PUSH1 0xFF AND DUP2 JUMP JUMPDEST PUSH0 PUSH0 PUSH0 PUSH1 0x14 SWAP1 SLOAD SWAP1 PUSH2 0x100 EXP SWAP1 DIV PUSH1 0xFF AND ISZERO PUSH2 0x37C JUMPI PUSH1 0x40 MLOAD PUSH32 0x8C379A000000000000000000000000000000000000000000000000000000000 DUP2 MSTORE PUSH1 0x4 ADD PUSH2 0x373 SWAP1 PUSH2 0xBB6 JUMP JUMPDEST PUSH1 0x40 MLOAD DUP1 SWAP2 SUB SWAP1 REVERT JUMPDEST PUSH1 0x2 PUSH1 0x1 DUP1 SLOAD SWAP1 POP LT ISZERO PUSH2 0x3C5 JUMPI PUSH1 0x40 MLOAD PUSH32 0x8C379A000000000000000000000000000000000000000000000000000000000 DUP2 MSTORE PUSH1 0x4 ADD PUSH2 0x3BC SWAP1 PUSH2 0xC1E JUMP JUMPDEST PUSH1 0x40 MLOAD DUP1 SWAP2 SUB SWAP1 REVERT JUMPDEST PUSH0 PUSH0 SWAP1 POP PUSH0 PUSH0 SWAP1 POP PUSH0 PUSH0 SWAP1 POP JUMPDEST PUSH1 0x1 DUP1 SLOAD SWAP1 POP DUP2 LT ISZERO PUSH2 0x441 JUMPI DUP3 PUSH1 0x1 DUP3 DUP2 SLOAD DUP2 LT PUSH2 0x3F4 JUMPI PUSH2 0x3F3 PUSH2 0xC3C JUMP JUMPDEST JUMPDEST SWAP1 PUSH0 MSTORE PUSH1 0x20 PUSH0 KECCAK256 SWAP1 PUSH1 0x2 MUL ADD PUSH1 0x1 ADD SLOAD GT ISZERO PUSH2 0x434 JUMPI PUSH1 0x1 DUP2 DUP2 SLOAD DUP2 LT PUSH2 0x41E JUMPI PUSH2 0x41D PUSH2 0xC3C JUMP JUMPDEST JUMPDEST SWAP1 PUSH0 MSTORE PUSH1 0x20 PUSH0 KECCAK256 SWAP1 PUSH1 0x2 MUL ADD PUSH1 0x1 ADD SLOAD SWAP3 POP DUP1 SWAP2 POP JUMPDEST DUP1 DUP1 PUSH1 0x1 ADD SWAP2 POP POP PUSH2 0x3D2 JUMP JUMPDEST POP PUSH1 0x1 DUP2 DUP2 SLOAD DUP2 LT PUSH2 0x456 JUMPI PUSH2 0x455 PUSH2 0xC3C JUMP JUMPDEST JUMPDEST SWAP1 PUSH0 MSTORE PUSH1 0x20 PUSH0 KECCAK256 SWAP1 PUSH1 0x2 MUL ADD PUSH0 ADD PUSH0 SWAP1 SLOAD SWAP1 PUSH2 0x100 EXP SWAP1 DIV PUSH20 0xFFFFFFFFFFFFFFFFFFFFFFFFFFFFFFFFFFFFFFFF AND PUSH1 0x1 DUP3 DUP2 SLOAD DUP2 LT PUSH2 0x498 JUMPI PUSH2 0x497 PUSH2 0xC3C JUMP JUMPDEST JUMPDEST SWAP1 PUSH0 MSTORE PUSH1 0x20 PUSH0 KECCAK256 SWAP1 PUSH1 0x2 MUL ADD PUSH1 0x1 ADD SLOAD SWAP4 POP SWAP4 POP POP POP SWAP1 SWAP2 JUMP JUMPDEST PUSH0 PUSH1 0x1 DUP1 SLOAD SWAP1 POP SWAP1 POP SWAP1 JUMP JUMPDEST PUSH0 PUSH0 SWAP1 SLOAD SWAP1 PUSH2 0x100 EXP SWAP1 DIV PUSH20 0xFFFFFFFFFFFFFFFFFFFFFFFFFFFFFFFFFFFFFFFF AND PUSH20 0xFFFFFFFFFFFFFFFFFFFFFFFFFFFFFFFFFFFFFFFF AND CALLER PUSH20 0xFFFFFFFFFFFFFFFFFFFFFFFFFFFFFFFFFFFFFFFF AND EQ PUSH2 0x54C JUMPI PUSH1 0x40 MLOAD PUSH32 0x8C379A000000000000000000000000000000000000000000000000000000000 DUP2 MSTORE PUSH1 0x4 ADD PUSH2 0x543 SWAP1 PUSH2 0xB4E JUMP JUMPDEST PUSH1 0x40 MLOAD DUP1 SWAP2 SUB SWAP1 REVERT JUMPDEST PUSH1 0x2 PUSH0 DUP3 PUSH20 0xFFFFFFFFFFFFFFFFFFFFFFFFFFFFFFFFFFFFFFFF AND PUSH20 0xFFFFFFFFFFFFFFFFFFFFFFFFFFFFFFFFFFFFFFFF AND DUP2 MSTORE PUSH1 0x20 ADD SWAP1 DUP2 MSTORE PUSH1 0x20 ADD PUSH0 KECCAK256 PUSH0 SWAP1 SLOAD SWAP1 PUSH2 0x100 EXP SWAP1 DIV PUSH1 0xFF AND ISZERO PUSH2 0x5D6 JUMPI PUSH1 0x40 MLOAD PUSH32 0x8C379A000000000000000000000000000000000000000000000000000000000 DUP2 MSTORE PUSH1 0x4 ADD PUSH2 0x5CD SWAP1 PUSH2 0xCB3 JUMP JUMPDEST PUSH1 0x40 MLOAD DUP1 SWAP2 SUB SWAP1 REVERT JUMPDEST PUSH1 0x1 PUSH1 0x40 MLOAD DUP1 PUSH1 0x40 ADD PUSH1 0x40 MSTORE DUP1 DUP4 PUSH20 0xFFFFFFFFFFFFFFFFFFFFFFFFFFFFFFFFFFFFFFFF AND DUP2 MSTORE PUSH1 0x20 ADD PUSH0 DUP2 MSTORE POP SWAP1 DUP1 PUSH1 0x1 DUP2 SLOAD ADD DUP1 DUP3 SSTORE DUP1 SWAP2 POP POP PUSH1 0x1 SWAP1 SUB SWAP1 PUSH0 MSTORE PUSH1 0x20 PUSH0 KECCAK256 SWAP1 PUSH1 0x2 MUL ADD PUSH0 SWAP1 SWAP2 SWAP1 SWAP2 SWAP1 SWAP2 POP PUSH0 DUP3 ADD MLOAD DUP2 PUSH0 ADD PUSH0 PUSH2 0x100 EXP DUP2 SLOAD DUP2 PUSH20 0xFFFFFFFFFFFFFFFFFFFFFFFFFFFFFFFFFFFFFFFF MUL NOT AND SWAP1 DUP4 PUSH20 0xFFFFFFFFFFFFFFFFFFFFFFFFFFFFFFFFFFFFFFFF AND MUL OR SWAP1 SSTORE POP PUSH1 0x20 DUP3 ADD MLOAD DUP2 PUSH1 0x1 ADD SSTORE POP POP PUSH1 0x1 PUSH1 0x2 PUSH0 DUP4 PUSH20 0xFFFFFFFFFFFFFFFFFFFFFFFFFFFFFFFFFFFFFFFF AND PUSH20 0xFFFFFFFFFFFFFFFFFFFFFFFFFFFFFFFFFFFFFFFF AND DUP2 MSTORE PUSH1 0x20 ADD SWAP1 DUP2 MSTORE PUSH1 0x20 ADD PUSH0 KECCAK256 PUSH0 PUSH2 0x100 EXP DUP2 SLOAD DUP2 PUSH1 0xFF MUL NOT AND SWAP1 DUP4 ISZERO ISZERO MUL OR SWAP1 SSTORE POP POP JUMP JUMPDEST PUSH0 PUSH1 0x14 SWAP1 SLOAD SWAP1 PUSH2 0x100 EXP SWAP1 DIV PUSH1 0xFF AND PUSH2 0x71F JUMPI PUSH1 0x40 MLOAD PUSH32 0x8C379A000000000000000000000000000000000000000000000000000000000 DUP2 MSTORE PUSH1 0x4 ADD PUSH2 0x716 SWAP1 PUSH2 0xD1B JUMP JUMPDEST PUSH1 0x40 MLOAD DUP1 SWAP2 SUB SWAP1 REVERT JUMPDEST PUSH1 0x3 PUSH0 CALLER PUSH20 0xFFFFFFFFFFFFFFFFFFFFFFFFFFFFFFFFFFFFFFFF AND PUSH20 0xFFFFFFFFFFFFFFFFFFFFFFFFFFFFFFFFFFFFFFFF AND DUP2 MSTORE PUSH1 0x20 ADD SWAP1 DUP2 MSTORE PUSH1 0x20 ADD PUSH0 KECCAK256 PUSH0 SWAP1 SLOAD SWAP1 PUSH2 0x100 EXP SWAP1 DIV PUSH1 0xFF AND ISZERO PUSH2 0x7A9 JUMPI PUSH1 0x40 MLOAD PUSH32 0x8C379A000000000000000000000000000000000000000000000000000000000 DUP2 MSTORE PUSH1 0x4 ADD PUSH2 0x7A0 SWAP1 PUSH2 0xD83 JUMP JUMPDEST PUSH1 0x40 MLOAD DUP1 SWAP2 SUB SWAP1 REVERT JUMPDEST PUSH1 0x1 DUP1 SLOAD SWAP1 POP DUP2 LT PUSH2 0x7F0 JUMPI PUSH1 0x40 MLOAD PUSH32 0x8C379A000000000000000000000000000000000000000000000000000000000 DUP2 MSTORE PUSH1 0x4 ADD PUSH2 0x7E7 SWAP1 PUSH2 0xDEB JUMP JUMPDEST PUSH1 0x40 MLOAD DUP1 SWAP2 SUB SWAP1 REVERT JUMPDEST PUSH0 PUSH0 SWAP1 SLOAD SWAP1 PUSH2 0x100 EXP SWAP1 DIV PUSH20 0xFFFFFFFFFFFFFFFFFFFFFFFFFFFFFFFFFFFFFFFF AND PUSH20 0xFFFFFFFFFFFFFFFFFFFFFFFFFFFFFFFFFFFFFFFF AND CALLER PUSH20 0xFFFFFFFFFFFFFFFFFFFFFFFFFFFFFFFFFFFFFFFF AND SUB PUSH2 0x87E JUMPI PUSH1 0x40 MLOAD PUSH32 0x8C379A000000000000000000000000000000000000000000000000000000000 DUP2 MSTORE PUSH1 0x4 ADD PUSH2 0x875 SWAP1 PUSH2 0xE53 JUMP JUMPDEST PUSH1 0x40 MLOAD DUP1 SWAP2 SUB SWAP1 REVERT JUMPDEST PUSH1 0x1 DUP2 DUP2 SLOAD DUP2 LT PUSH2 0x892 JUMPI PUSH2 0x891 PUSH2 0xC3C JUMP JUMPDEST JUMPDEST SWAP1 PUSH0 MSTORE PUSH1 0x20 PUSH0 KECCAK256 SWAP1 PUSH1 0x2 MUL ADD PUSH1 0x1 ADD PUSH0 DUP2 SLOAD DUP1 SWAP3 SWAP2 SWAP1 PUSH2 0x8B1 SWAP1 PUSH2 0xE9E JUMP JUMPDEST SWAP2 SWAP1 POP SSTORE POP PUSH1 0x1 PUSH1 0x3 PUSH0 CALLER PUSH20 0xFFFFFFFFFFFFFFFFFFFFFFFFFFFFFFFFFFFFFFFF AND PUSH20 0xFFFFFFFFFFFFFFFFFFFFFFFFFFFFFFFFFFFFFFFF AND DUP2 MSTORE PUSH1 0x20 ADD SWAP1 DUP2 MSTORE PUSH1 0x20 ADD PUSH0 KECCAK256 PUSH0 PUSH2 0x100 EXP DUP2 SLOAD DUP2 PUSH1 0xFF MUL NOT AND SWAP1 DUP4 ISZERO ISZERO MUL OR SWAP1 SSTORE POP POP JUMP JUMPDEST PUSH0 PUSH0 REVERT JUMPDEST PUSH0 PUSH20 0xFFFFFFFFFFFFFFFFFFFFFFFFFFFFFFFFFFFFFFFF DUP3 AND SWAP1 POP SWAP2 SWAP1 POP JUMP JUMPDEST PUSH0 PUSH2 0x93B DUP3 PUSH2 0x912 JUMP JUMPDEST SWAP1 POP SWAP2 SWAP1 POP JUMP JUMPDEST PUSH2 0x94B DUP2 PUSH2 0x931 JUMP JUMPDEST DUP2 EQ PUSH2 0x955 JUMPI PUSH0 PUSH0 REVERT JUMPDEST POP JUMP JUMPDEST PUSH0 DUP2 CALLDATALOAD SWAP1 POP PUSH2 0x966 DUP2 PUSH2 0x942 JUMP JUMPDEST SWAP3 SWAP2 POP POP JUMP JUMPDEST PUSH0 PUSH1 0x20 DUP3 DUP5 SUB SLT ISZERO PUSH2 0x981 JUMPI PUSH2 0x980 PUSH2 0x90E JUMP JUMPDEST JUMPDEST PUSH0 PUSH2 0x98E DUP5 DUP3 DUP6 ADD PUSH2 0x958 JUMP JUMPDEST SWAP2 POP POP SWAP3 SWAP2 POP POP JUMP JUMPDEST PUSH0 DUP2 ISZERO ISZERO SWAP1 POP SWAP2 SWAP1 POP JUMP JUMPDEST PUSH2 0x9AB DUP2 PUSH2 0x997 JUMP JUMPDEST DUP3 MSTORE POP POP JUMP JUMPDEST PUSH0 PUSH1 0x20 DUP3 ADD SWAP1 POP PUSH2 0x9C4 PUSH0 DUP4 ADD DUP5 PUSH2 0x9A2 JUMP JUMPDEST SWAP3 SWAP2 POP POP JUMP JUMPDEST PUSH2 0x9D3 DUP2 PUSH2 0x997 JUMP JUMPDEST DUP2 EQ PUSH2 0x9DD JUMPI PUSH0 PUSH0 REVERT JUMPDEST POP JUMP JUMPDEST PUSH0 DUP2 CALLDATALOAD SWAP1 POP PUSH2 0x9EE DUP2 PUSH2 0x9CA JUMP JUMPDEST SWAP3 SWAP2 POP POP JUMP JUMPDEST PUSH0 PUSH1 0x20 DUP3 DUP5 SUB SLT ISZERO PUSH2 0xA09 JUMPI PUSH2 0xA08 PUSH2 0x90E JUMP JUMPDEST JUMPDEST PUSH0 PUSH2 0xA16 DUP5 DUP3 DUP6 ADD PUSH2 0x9E0 JUMP JUMPDEST SWAP2 POP POP SWAP3 SWAP2 POP POP JUMP JUMPDEST PUSH0 DUP2 SWAP1 POP SWAP2 SWAP1 POP JUMP JUMPDEST PUSH2 0xA31 DUP2 PUSH2 0xA1F JUMP JUMPDEST DUP2 EQ PUSH2 0xA3B JUMPI PUSH0 PUSH0 REVERT JUMPDEST POP JUMP JUMPDEST PUSH0 DUP2 CALLDATALOAD SWAP1 POP PUSH2 0xA4C DUP2 PUSH2 0xA28 JUMP JUMPDEST SWAP3 SWAP2 POP POP JUMP JUMPDEST PUSH0 PUSH1 0x20 DUP3 DUP5 SUB SLT ISZERO PUSH2 0xA67 JUMPI PUSH2 0xA66 PUSH2 0x90E JUMP JUMPDEST JUMPDEST PUSH0 PUSH2 0xA74 DUP5 DUP3 DUP6 ADD PUSH2 0xA3E JUMP JUMPDEST SWAP2 POP POP SWAP3 SWAP2 POP POP JUMP JUMPDEST PUSH2 0xA86 DUP2 PUSH2 0x931 JUMP JUMPDEST DUP3 MSTORE POP POP JUMP JUMPDEST PUSH2 0xA95 DUP2 PUSH2 0xA1F JUMP JUMPDEST DUP3 MSTORE POP POP JUMP JUMPDEST PUSH0 PUSH1 0x40 DUP3 ADD SWAP1 POP PUSH2 0xAAE PUSH0 DUP4 ADD DUP6 PUSH2 0xA7D JUMP JUMPDEST PUSH2 0xABB PUSH1 0x20 DUP4 ADD DUP5 PUSH2 0xA8C JUMP JUMPDEST SWAP4 SWAP3 POP POP POP JUMP JUMPDEST PUSH0 PUSH1 0x20 DUP3 ADD SWAP1 POP PUSH2 0xAD5 PUSH0 DUP4 ADD DUP5 PUSH2 0xA7D JUMP JUMPDEST SWAP3 SWAP2 POP POP JUMP JUMPDEST PUSH0 PUSH1 0x20 DUP3 ADD SWAP1 POP PUSH2 0xAEE PUSH0 DUP4 ADD DUP5 PUSH2 0xA8C JUMP JUMPDEST SWAP3 SWAP2 POP POP JUMP JUMPDEST PUSH0 DUP3 DUP3 MSTORE PUSH1 0x20 DUP3 ADD SWAP1 POP SWAP3 SWAP2 POP POP JUMP JUMPDEST PUSH32 0x416E64612062756B616E206F776E657200000000000000000000000000000000 PUSH0 DUP3 ADD MSTORE POP JUMP JUMPDEST PUSH0 PUSH2 0xB38 PUSH1 0x10 DUP4 PUSH2 0xAF4 JUMP JUMPDEST SWAP2 POP PUSH2 0xB43 DUP3 PUSH2 0xB04 JUMP JUMPDEST PUSH1 0x20 DUP3 ADD SWAP1 POP SWAP2 SWAP1 POP JUMP JUMPDEST PUSH0 PUSH1 0x20 DUP3 ADD SWAP1 POP DUP2 DUP2 SUB PUSH0 DUP4 ADD MSTORE PUSH2 0xB65 DUP2 PUSH2 0xB2C JUMP JUMPDEST SWAP1 POP SWAP2 SWAP1 POP JUMP JUMPDEST PUSH32 0x4D617369682070726F73657320766F74696E6700000000000000000000000000 PUSH0 DUP3 ADD MSTORE POP JUMP JUMPDEST PUSH0 PUSH2 0xBA0 PUSH1 0x13 DUP4 PUSH2 0xAF4 JUMP JUMPDEST SWAP2 POP PUSH2 0xBAB DUP3 PUSH2 0xB6C JUMP JUMPDEST PUSH1 0x20 DUP3 ADD SWAP1 POP SWAP2 SWAP1 POP JUMP JUMPDEST PUSH0 PUSH1 0x20 DUP3 ADD SWAP1 POP DUP2 DUP2 SUB PUSH0 DUP4 ADD MSTORE PUSH2 0xBCD DUP2 PUSH2 0xB94 JUMP JUMPDEST SWAP1 POP SWAP2 SWAP1 POP JUMP JUMPDEST PUSH32 0x4B616E6469646174206B7572616E670000000000000000000000000000000000 PUSH0 DUP3 ADD MSTORE POP JUMP JUMPDEST PUSH0 PUSH2 0xC08 PUSH1 0xF DUP4 PUSH2 0xAF4 JUMP JUMPDEST SWAP2 POP PUSH2 0xC13 DUP3 PUSH2 0xBD4 JUMP JUMPDEST PUSH1 0x20 DUP3 ADD SWAP1 POP SWAP2 SWAP1 POP JUMP JUMPDEST PUSH0 PUSH1 0x20 DUP3 ADD SWAP1 POP DUP2 DUP2 SUB PUSH0 DUP4 ADD MSTORE PUSH2 0xC35 DUP2 PUSH2 0xBFC JUMP JUMPDEST SWAP1 POP SWAP2 SWAP1 POP JUMP JUMPDEST PUSH32 0x4E487B7100000000000000000000000000000000000000000000000000000000 PUSH0 MSTORE PUSH1 0x32 PUSH1 0x4 MSTORE PUSH1 0x24 PUSH0 REVERT JUMPDEST PUSH32 0x4B616E6469646174207375646168207465726461667461720000000000000000 PUSH0 DUP3 ADD MSTORE POP JUMP JUMPDEST PUSH0 PUSH2 0xC9D PUSH1 0x18 DUP4 PUSH2 0xAF4 JUMP JUMPDEST SWAP2 POP PUSH2 0xCA8 DUP3 PUSH2 0xC69 JUMP JUMPDEST PUSH1 0x20 DUP3 ADD SWAP1 POP SWAP2 SWAP1 POP JUMP JUMPDEST PUSH0 PUSH1 0x20 DUP3 ADD SWAP1 POP DUP2 DUP2 SUB PUSH0 DUP4 ADD MSTORE PUSH2 0xCCA DUP2 PUSH2 0xC91 JUMP JUMPDEST SWAP1 POP SWAP2 SWAP1 POP JUMP JUMPDEST PUSH32 0x42656C756D206269736120766F74696E67000000000000000000000000000000 PUSH0 DUP3 ADD MSTORE POP JUMP JUMPDEST PUSH0 PUSH2 0xD05 PUSH1 0x11 DUP4 PUSH2 0xAF4 JUMP JUMPDEST SWAP2 POP PUSH2 0xD10 DUP3 PUSH2 0xCD1 JUMP JUMPDEST PUSH1 0x20 DUP3 ADD SWAP1 POP SWAP2 SWAP1 POP JUMP JUMPDEST PUSH0 PUSH1 0x20 DUP3 ADD SWAP1 POP DUP2 DUP2 SUB PUSH0 DUP4 ADD MSTORE PUSH2 0xD32 DUP2 PUSH2 0xCF9 JUMP JUMPDEST SWAP1 POP SWAP2 SWAP1 POP JUMP JUMPDEST PUSH32 0x416E646120737564616820766F74696E67000000000000000000000000000000 PUSH0 DUP3 ADD MSTORE POP JUMP JUMPDEST PUSH0 PUSH2 0xD6D PUSH1 0x11 DUP4 PUSH2 0xAF4 JUMP JUMPDEST SWAP2 POP PUSH2 0xD78 DUP3 PUSH2 0xD39 JUMP JUMPDEST PUSH1 0x20 DUP3 ADD SWAP1 POP SWAP2 SWAP1 POP JUMP JUMPDEST PUSH0 PUSH1 0x20 DUP3 ADD SWAP1 POP DUP2 DUP2 SUB PUSH0 DUP4 ADD MSTORE PUSH2 0xD9A DUP2 PUSH2 0xD61 JUMP JUMPDEST SWAP1 POP SWAP2 SWAP1 POP JUMP JUMPDEST PUSH32 0x4B616E646964617420746964616B206164610000000000000000000000000000 PUSH0 DUP3 ADD MSTORE POP JUMP JUMPDEST PUSH0 PUSH2 0xDD5 PUSH1 0x12 DUP4 PUSH2 0xAF4 JUMP JUMPDEST SWAP2 POP PUSH2 0xDE0 DUP3 PUSH2 0xDA1 JUMP JUMPDEST PUSH1 0x20 DUP3 ADD SWAP1 POP SWAP2 SWAP1 POP JUMP JUMPDEST PUSH0 PUSH1 0x20 DUP3 ADD SWAP1 POP DUP2 DUP2 SUB PUSH0 DUP4 ADD MSTORE PUSH2 0xE02 DUP2 PUSH2 0xDC9 JUMP JUMPDEST SWAP1 POP SWAP2 SWAP1 POP JUMP JUMPDEST PUSH32 0x4F776E657220676120626F6C656820766F74696E670000000000000000000000 PUSH0 DUP3 ADD MSTORE POP JUMP JUMPDEST PUSH0 PUSH2 0xE3D PUSH1 0x15 DUP4 PUSH2 0xAF4 JUMP JUMPDEST SWAP2 POP PUSH2 0xE48 DUP3 PUSH2 0xE09 JUMP JUMPDEST PUSH1 0x20 DUP3 ADD SWAP1 POP SWAP2 SWAP1 POP JUMP JUMPDEST PUSH0 PUSH1 0x20 DUP3 ADD SWAP1 POP DUP2 DUP2 SUB PUSH0 DUP4 ADD MSTORE PUSH2 0xE6A DUP2 PUSH2 0xE31 JUMP JUMPDEST SWAP1 POP SWAP2 SWAP1 POP JUMP JUMPDEST PUSH32 0x4E487B7100000000000000000000000000000000000000000000000000000000 PUSH0 MSTORE PUSH1 0x11 PUSH1 0x4 MSTORE PUSH1 0x24 PUSH0 REVERT JUMPDEST PUSH0 PUSH2 0xEA8 DUP3 PUSH2 0xA1F JUMP JUMPDEST SWAP2 POP PUSH32 0xFFFFFFFFFFFFFFFFFFFFFFFFFFFFFFFFFFFFFFFFFFFFFFFFFFFFFFFFFFFFFFFF DUP3 SUB PUSH2 0xEDA JUMPI PUSH2 0xED9 PUSH2 0xE71 JUMP JUMPDEST JUMPDEST PUSH1 0x1 DUP3 ADD SWAP1 POP SWAP2 SWAP1 POP JUMP INVALID LOG2 PUSH5 0x6970667358 0x22 SLT KECCAK256 SWAP3 MUL 0xEB 0x26 ADDMOD PUSH12 0xC601D89A5DF9F53E4E9514F1 BASEFEE 0xD9 TLOAD LOG0 SWAP6 0xBF STATICCALL CALLF 0x2777 0xEB 0xA9 0xDC PUSH0 PUSH5 0x736F6C6343 STOP ADDMOD 0x1E STOP CALLER "
				},
				"gasEstimates": {
					"creation": {
						"codeDepositCost": "773400",
						"executionCost": "49382",
						"totalCost": "822782"
					},
					"external": {
						"getTotalKandidat()": "2484",
						"handleVoting(bool)": "26914",
						"kandidat(uint256)": "infinite",
						"kandidatTerdaftar(address)": "2833",
						"owner()": "2574",
						"siapaYangMenang()": "infinite",
						"tambahKandidat(address)": "82976",
						"userSudahMemilih(address)": "2834",
						"voting(uint256)": "infinite"
					}
				},
				"methodIdentifiers": {
					"getTotalKandidat()": "da125730",
					"handleVoting(bool)": "3be360f4",
					"kandidat(uint256)": "657c3ef1",
					"kandidatTerdaftar(address)": "a2c7cf26",
					"owner()": "8da5cb5b",
					"siapaYangMenang()": "ac1bd216",
					"tambahKandidat(address)": "dcacfc12",
					"userSudahMemilih(address)": "029f4cf0",
					"voting(uint256)": "fd4a77f1"
				}
			},
			"storageLayout": {
				"storage": [
					{
						"astId": 3,
						"contract": "contracts/belajar/evoting.sol:eVoting",
						"label": "owner",
						"offset": 0,
						"slot": "0",
						"type": "t_address"
					},
					{
						"astId": 5,
						"contract": "contracts/belajar/evoting.sol:eVoting",
						"label": "sudahBisaVoting",
						"offset": 20,
						"slot": "0",
						"type": "t_bool"
					},
					{
						"astId": 27,
						"contract": "contracts/belajar/evoting.sol:eVoting",
						"label": "kandidat",
						"offset": 0,
						"slot": "1",
						"type": "t_array(t_struct(Kandidat)23_storage)dyn_storage"
					},
					{
						"astId": 31,
						"contract": "contracts/belajar/evoting.sol:eVoting",
						"label": "kandidatTerdaftar",
						"offset": 0,
						"slot": "2",
						"type": "t_mapping(t_address,t_bool)"
					},
					{
						"astId": 35,
						"contract": "contracts/belajar/evoting.sol:eVoting",
						"label": "userSudahMemilih",
						"offset": 0,
						"slot": "3",
						"type": "t_mapping(t_address,t_bool)"
					}
				],
				"types": {
					"t_address": {
						"encoding": "inplace",
						"label": "address",
						"numberOfBytes": "20"
					},
					"t_array(t_struct(Kandidat)23_storage)dyn_storage": {
						"base": "t_struct(Kandidat)23_storage",
						"encoding": "dynamic_array",
						"label": "struct eVoting.Kandidat[]",
						"numberOfBytes": "32"
					},
					"t_bool": {
						"encoding": "inplace",
						"label": "bool",
						"numberOfBytes": "1"
					},
					"t_mapping(t_address,t_bool)": {
						"encoding": "mapping",
						"key": "t_address",
						"label": "mapping(address => bool)",
						"numberOfBytes": "32",
						"value": "t_bool"
					},
					"t_struct(Kandidat)23_storage": {
						"encoding": "inplace",
						"label": "struct eVoting.Kandidat",
						"members": [
							{
								"astId": 20,
								"contract": "contracts/belajar/evoting.sol:eVoting",
								"label": "alamatKandidat",
								"offset": 0,
								"slot": "0",
								"type": "t_address"
							},
							{
								"astId": 22,
								"contract": "contracts/belajar/evoting.sol:eVoting",
								"label": "jumlahSuara",
								"offset": 0,
								"slot": "1",
								"type": "t_uint256"
							}
						],
						"numberOfBytes": "64"
					},
					"t_uint256": {
						"encoding": "inplace",
						"label": "uint256",
						"numberOfBytes": "32"
					}
				}
			},
			"userdoc": {
				"kind": "user",
				"methods": {},
				"version": 1
			}
		}
	}
}