{
	"data": {
		"bytecode": {
			"linkReferences": {},
			"object": "6080604052348015600e575f5ffd5b506102068061001c5f395ff3fe608060405234801561000f575f5ffd5b5060043610610029575f3560e01c806338f58e951461002d575b5f5ffd5b61003561004b565b604051610042919061012b565b60405180910390f35b60605f61005661007e565b90508060405160200161006991906101ab565b60405160208183030381529060405291505090565b60606040518060400160405280600981526020017f4265726a616c616e200000000000000000000000000000000000000000000000815250905090565b5f81519050919050565b5f82825260208201905092915050565b8281835e5f83830152505050565b5f601f19601f8301169050919050565b5f6100fd826100bb565b61010781856100c5565b93506101178185602086016100d5565b610120816100e3565b840191505092915050565b5f6020820190508181035f83015261014381846100f3565b905092915050565b5f81905092915050565b5f61015f826100bb565b610169818561014b565b93506101798185602086016100d5565b80840191505092915050565b7f64656e67616e2032206b616b6900000000000000000000000000000000000000815250565b5f6101b68284610155565b91506101c182610185565b600d820191508190509291505056fea2646970667358221220a3acbbd9eee498593824f1b67ca3771007948df9d71f045e32a6d9cb50457bc264736f6c634300081e0033",
			"opcodes": "PUSH1 0x80 PUSH1 0x40 MSTORE CALLVALUE DUP1 ISZERO PUSH1 0xE JUMPI PUSH0 PUSH0 REVERT JUMPDEST POP PUSH2 0x206 DUP1 PUSH2 0x1C PUSH0 CODECOPY PUSH0 RETURN INVALID PUSH1 0x80 PUSH1 0x40 MSTORE CALLVALUE DUP1 ISZERO PUSH2 0xF JUMPI PUSH0 PUSH0 REVERT JUMPDEST POP PUSH1 0x4 CALLDATASIZE LT PUSH2 0x29 JUMPI PUSH0 CALLDATALOAD PUSH1 0xE0 SHR DUP1 PUSH4 0x38F58E95 EQ PUSH2 0x2D JUMPI JUMPDEST PUSH0 PUSH0 REVERT JUMPDEST PUSH2 0x35 PUSH2 0x4B JUMP JUMPDEST PUSH1 0x40 MLOAD PUSH2 0x42 SWAP2 SWAP1 PUSH2 0x12B JUMP JUMPDEST PUSH1 0x40 MLOAD DUP1 SWAP2 SUB SWAP1 RETURN JUMPDEST PUSH1 0x60 PUSH0 PUSH2 0x56 PUSH2 0x7E JUMP JUMPDEST SWAP1 POP DUP1 PUSH1 0x40 MLOAD PUSH1 0x20 ADD PUSH2 0x69 SWAP2 SWAP1 PUSH2 0x1AB JUMP JUMPDEST PUSH1 0x40 MLOAD PUSH1 0x20 DUP2 DUP4 SUB SUB DUP2 MSTORE SWAP1 PUSH1 0x40 MSTORE SWAP2 POP POP SWAP1 JUMP JUMPDEST PUSH1 0x60 PUSH1 0x40 MLOAD DUP1 PUSH1 0x40 ADD PUSH1 0x40 MSTORE DUP1 PUSH1 0x9 DUP2 MSTORE PUSH1 0x20 ADD PUSH32 0x4265726A616C616E200000000000000000000000000000000000000000000000 DUP2 MSTORE POP SWAP1 POP SWAP1 JUMP JUMPDEST PUSH0 DUP2 MLOAD SWAP1 POP SWAP2 SWAP1 POP JUMP JUMPDEST PUSH0 DUP3 DUP3 MSTORE PUSH1 0x20 DUP3 ADD SWAP1 POP SWAP3 SWAP2 POP POP JUMP JUMPDEST DUP3 DUP2 DUP4 MCOPY PUSH0 DUP4 DUP4 ADD MSTORE POP POP POP JUMP JUMPDEST PUSH0 PUSH1 0x1F NOT PUSH1 0x1F DUP4 ADD AND SWAP1 POP SWAP2 SWAP1 POP JUMP JUMPDEST PUSH0 PUSH2 0xFD DUP3 PUSH2 0xBB JUMP JUMPDEST PUSH2 0x107 DUP2 DUP6 PUSH2 0xC5 JUMP JUMPDEST SWAP4 POP PUSH2 0x117 DUP2 DUP6 PUSH1 0x20 DUP7 ADD PUSH2 0xD5 JUMP JUMPDEST PUSH2 0x120 DUP2 PUSH2 0xE3 JUMP JUMPDEST DUP5 ADD SWAP2 POP POP SWAP3 SWAP2 POP POP JUMP JUMPDEST PUSH0 PUSH1 0x20 DUP3 ADD SWAP1 POP DUP2 DUP2 SUB PUSH0 DUP4 ADD MSTORE PUSH2 0x143 DUP2 DUP5 PUSH2 0xF3 JUMP JUMPDEST SWAP1 POP SWAP3 SWAP2 POP POP JUMP JUMPDEST PUSH0 DUP2 SWAP1 POP SWAP3 SWAP2 POP POP JUMP JUMPDEST PUSH0 PUSH2 0x15F DUP3 PUSH2 0xBB JUMP JUMPDEST PUSH2 0x169 DUP2 DUP6 PUSH2 0x14B JUMP JUMPDEST SWAP4 POP PUSH2 0x179 DUP2 DUP6 PUSH1 0x20 DUP7 ADD PUSH2 0xD5 JUMP JUMPDEST DUP1 DUP5 ADD SWAP2 POP POP SWAP3 SWAP2 POP POP JUMP JUMPDEST PUSH32 0x64656E67616E2032206B616B6900000000000000000000000000000000000000 DUP2 MSTORE POP JUMP JUMPDEST PUSH0 PUSH2 0x1B6 DUP3 DUP5 PUSH2 0x155 JUMP JUMPDEST SWAP2 POP PUSH2 0x1C1 DUP3 PUSH2 0x185 JUMP JUMPDEST PUSH1 0xD DUP3 ADD SWAP2 POP DUP2 SWAP1 POP SWAP3 SWAP2 POP POP JUMP INVALID LOG2 PUSH5 0x6970667358 0x22 SLT KECCAK256 LOG3 0xAC 0xBB 0xD9 RETURNCONTRACT 0xE4 SWAP9 MSIZE CODESIZE 0x24 CALL 0xB6 PUSH29 0xA3771007948DF9D71F045E32A6D9CB50457BC264736F6C634300081E00 CALLER "
		},
		"gasEstimates": {
			"creation": {
				"codeDepositCost": "103600",
				"executionCost": "151",
				"totalCost": "103751"
			},
			"external": {
				"berjalan()": "infinite"
			}
		},
		"methodIdentifiers": {
			"berjalan()": "38f58e95"
		}
	},
	"abi": [
		{
			"inputs": [],
			"name": "berjalan",
			"outputs": [
				{
					"internalType": "string",
					"name": "",
					"type": "string"
				}
			],
			"stateMutability": "pure",
			"type": "function"
		}
	]
}